{
  "transactions": [
    {
      "hash": "0x5145c5fbe1b3b0b5a71bded2bfc7ab778b96530e14bf66f178cf147776da64bd",
      "transactionType": "CREATE",
      "contractName": "Vault",
      "contractAddress": "0x85564d6Eba2dA0d01D71071E05e4bF612457cd0D",
      "function": null,
      "arguments": null,
      "transaction": {
        "type": "0x02",
        "from": "0x077a79ab65caabaa684f34cc22aca911742690e0",
        "gas": "0x4c732a",
        "value": "0x0",
        "data": "0x60806040526008805460ff60a01b1916905534801561001d57600080fd5b506000805460ff1916815533815260016020819052604090912081905560025561445d8061004c6000396000f3fe608060405234801561001057600080fd5b50600436106102415760003560e01c80639e49590c11610145578063c70acd16116100bd578063d510be411161008c578063ebecb39d11610071578063ebecb39d14610519578063edcc99ee1461052c578063f2f4eb261461057157600080fd5b8063d510be41146104fe578063e6e2307b1461051157600080fd5b8063c70acd161461042d578063ca9335f2146104d0578063d4c3eea0146104e3578063d4e8be83146104eb57600080fd5b8063a4d3444c11610114578063ba423c88116100f9578063ba423c88146103f4578063bf92942514610407578063c4d66de81461041a57600080fd5b8063a4d3444c146103ce578063aec67f5c146103e157600080fd5b80639e49590c1461038d578063a035b1fe146103a0578063a28b9c0f146103a8578063a33be40b146103bb57600080fd5b8063408a8027116101d857806365fae35e116101a7578063967b90281161018c578063967b90281461035e57806399538f4b146103715780639c52a7f11461037a57600080fd5b806365fae35e146103435780638456cb591461035657600080fd5b8063408a8027146102e857806343c885ba146102f0578063593ce569146103255780635c975abb1461033857600080fd5b80631ed5239c116102145780631ed5239c146102a75780632040178f146102ba57806329ae8114146102cd5780633f4ba83a146102e057600080fd5b80630499123f146102465780630cba51821461026c5780630d34b71d146102815780631a0b287e14610294575b600080fd5b610259610254366004613a3c565b610591565b6040519081526020015b60405180910390f35b61027f61027a366004613a55565b61067a565b005b61025961028f366004613a99565b610935565b61027f6102a2366004613ad6565b610cf5565b6102596102b5366004613a99565b610f16565b6102596102c8366004613a99565b6112c9565b61027f6102db366004613a55565b6113bd565b61027f6114a9565b61025961152d565b6008546103159074010000000000000000000000000000000000000000900460ff1681565b6040519015158152602001610263565b610259610333366004613a3c565b6115f5565b60005460ff16610315565b61027f610351366004613b02565b611616565b61027f6116e4565b61027f61036c366004613b1f565b611766565b61025960095481565b61027f610388366004613b02565b6118ac565b61025961039b366004613a55565b611977565b610259611a64565b6102596103b6366004613a99565b611b0f565b6102596103c9366004613a3c565b611e5d565b61027f6103dc366004613cf8565b611f11565b61027f6103ef366004613a55565b61207e565b610259610402366004613a3c565b61229b565b610259610415366004613a3c565b6123ad565b61027f610428366004613b02565b6124a2565b61048a61043b366004613a3c565b600560208190526000918252604090912080546001820154600283015460038401546004850154949095015492949193909273ffffffffffffffffffffffffffffffffffffffff918216911686565b60408051968752602087019590955293850192909252606084015273ffffffffffffffffffffffffffffffffffffffff90811660808401521660a082015260c001610263565b6102596104de366004613a55565b612682565b61025961272a565b61027f6104f9366004613db1565b612a66565b61025961050c366004613a3c565b612c81565b600354610259565b61027f610527366004613de1565b612c8e565b60085461054c9073ffffffffffffffffffffffffffffffffffffffff1681565b60405173ffffffffffffffffffffffffffffffffffffffff9091168152602001610263565b60075461054c9073ffffffffffffffffffffffffffffffffffffffff1681565b60008061059d836123ad565b600084815260056020908152604080832060049081015482517f313ce5670000000000000000000000000000000000000000000000000000000081529251959650939473ffffffffffffffffffffffffffffffffffffffff9094169363313ce56793838301939092908290030181865afa15801561061f573d6000803e3d6000fd5b505050506040513d601f19601f820116820180604052508101906106439190613e1a565b61064e90600a613f8c565b90506000818361065d87611e5d565b6106679190613f9b565b6106719190613fb2565b95945050505050565b33600090815260016020819052604090912054146106f9576040517f08c379a000000000000000000000000000000000000000000000000000000000815260206004820152601360248201527f417574682f6e6f742d617574686f72697a65640000000000000000000000000060448201526064015b60405180910390fd5b610701612e99565b60065473ffffffffffffffffffffffffffffffffffffffff16610780576040517f08c379a000000000000000000000000000000000000000000000000000000000815260206004820152601260248201527f5661756c742f66756e64206973207a65726f000000000000000000000000000060448201526064016106f0565b6107898261229b565b8111156107f2576040517f08c379a000000000000000000000000000000000000000000000000000000000815260206004820152601c60248201527f5661756c742f696e76696c6964206465706f73697420616d6f756e740000000060448201526064016106f0565b6000828152600560205260409020600481015460065473ffffffffffffffffffffffffffffffffffffffff9182169161082e9183911685612eda565b6006546004838101546040517f47e7ef2400000000000000000000000000000000000000000000000000000000815273ffffffffffffffffffffffffffffffffffffffff918216928101929092526024820186905260009216906347e7ef24906044016020604051808303816000875af11580156108b0573d6000803e3d6000fd5b505050506040513d601f19601f820116820180604052508101906108d49190613fed565b9050808360030160008282546108ea9190614006565b909155505060405184815285907fc83dd68d72d0a827986cc1153b60cc28a906ee30f22a23613d5a97dbafc1bed59060200160405180910390a25050506109316001600255565b5050565b600061093f612ffb565b610947612e99565b600085815260056020818152604092839020835160c08101855281548152600182015492810183905260028201549481019490945260038101546060850152600481015473ffffffffffffffffffffffffffffffffffffffff908116608086015292015490911660a0830152610a19576040517f08c379a000000000000000000000000000000000000000000000000000000000815260206004820152601c60248201527f5661756c742f6173736574206e6f7420696e2077686974656c6973740000000060448201526064016106f0565b6000816080015173ffffffffffffffffffffffffffffffffffffffff1663313ce5676040518163ffffffff1660e01b8152600401602060405180830381865afa158015610a6a573d6000803e3d6000fd5b505050506040513d601f19601f82011682018060405250810190610a8e9190613e1a565b610a9990600a613f8c565b90506000670de0b6b3a7640000610aaf89611e5d565b83610ab861152d565b610ac29089613f9b565b610acc9190613f9b565b610ad69190613fb2565b610ae09190613fb2565b905060008111610b4c576040517f08c379a000000000000000000000000000000000000000000000000000000000815260206004820152601b60248201527f5661756c742f6f757420616d6f756e7420697320696e76616c6964000000000060448201526064016106f0565b6000610b588983611977565b9050610b648183614006565b915086821115610bd0576040517f08c379a000000000000000000000000000000000000000000000000000000000815260206004820152601a60248201527f5661756c742f616d6f756e7420696e206e6f7420656e6f75676800000000000060448201526064016106f0565b6080840151610bf79073ffffffffffffffffffffffffffffffffffffffff16333085613038565b6007546040517f40c10f1900000000000000000000000000000000000000000000000000000000815273ffffffffffffffffffffffffffffffffffffffff8a8116600483015260248201899052909116906340c10f1990604401600060405180830381600087803b158015610c6b57600080fd5b505af1158015610c7f573d6000803e3d6000fd5b50506040805173ffffffffffffffffffffffffffffffffffffffff8c168152602081018690529081018990528b92503391507f7309ef3b726eaaa68f8c2718c3792a5573fc273c7a8a7f2daa65dc739b8459529060600160405180910390a35092505050610ced6001600255565b949350505050565b3360009081526001602081905260409091205414610d6f576040517f08c379a000000000000000000000000000000000000000000000000000000000815260206004820152601360248201527f417574682f6e6f742d617574686f72697a65640000000000000000000000000060448201526064016106f0565b610d77612ffb565b817f6d6178000000000000000000000000000000000000000000000000000000000003610db7576000838152600560205260409020600101819055610ed6565b817f6d696e000000000000000000000000000000000000000000000000000000000003610df4576000838152600560205260409020819055610ed6565b817f6f7574000000000000000000000000000000000000000000000000000000000003610e34576000838152600560205260409020600101819055610ed6565b817f696e76000000000000000000000000000000000000000000000000000000000003610e74576000838152600560205260409020600101819055610ed6565b6040517f08c379a000000000000000000000000000000000000000000000000000000000815260206004820152601d60248201527f5661756c742f66696c652d756e7265636f676e697a65642d706172616d00000060448201526064016106f0565b81837fa067509ec87ecd55bd872477a1d1e9646562214b268981fd83507a15ce09b62b83604051610f0991815260200190565b60405180910390a3505050565b6000610f20612ffb565b610f28612e99565b600085815260056020818152604092839020835160c08101855281548152600182015492810183905260028201549481019490945260038101546060850152600481015473ffffffffffffffffffffffffffffffffffffffff908116608086015292015490911660a0830152610ffa576040517f08c379a000000000000000000000000000000000000000000000000000000000815260206004820152601c60248201527f5661756c742f6173736574206e6f7420696e2077686974656c6973740000000060448201526064016106f0565b60006110068785612682565b90506000826080015173ffffffffffffffffffffffffffffffffffffffff1663313ce5676040518163ffffffff1660e01b8152600401602060405180830381865afa158015611059573d6000803e3d6000fd5b505050506040513d601f19601f8201168201806040525081019061107d9190613e1a565b61108890600a613f8c565b905060008161109561152d565b670de0b6b3a76400006110a8868a614006565b6110b18d611e5d565b6110bb9190614019565b6110c59190613f9b565b6110cf9190613fb2565b6110d99190613fb2565b905060008111611145576040517f08c379a000000000000000000000000000000000000000000000000000000000815260206004820152601b60248201527f5661756c742f6f757420616d6f756e7420697320696e76616c6964000000000060448201526064016106f0565b868111156111af576040517f08c379a000000000000000000000000000000000000000000000000000000000815260206004820152601d60248201527f5661756c742f616d6f756e7420696e206973206e6f7420656e6f75676800000060448201526064016106f0565b6007546040517f9dc29fac0000000000000000000000000000000000000000000000000000000081523360048201526024810183905273ffffffffffffffffffffffffffffffffffffffff90911690639dc29fac90604401600060405180830381600087803b15801561122157600080fd5b505af1158015611235573d6000803e3d6000fd5b505050608085015161125f915073ffffffffffffffffffffffffffffffffffffffff16898861307e565b6040805173ffffffffffffffffffffffffffffffffffffffff8a16815260208101839052908101879052899033907f639027de0b31595783caf0e0f3f582389fb1b77298da6a2eed289c7f0e51857e9060600160405180910390a39350505050610ced6001600255565b60006112d3612ffb565b6112db612e99565b60006112ea86868660016130c1565b905082811015611356576040517f08c379a000000000000000000000000000000000000000000000000000000000815260206004820152601d60248201527f5661756c742f616d6f756e74206f757420697320746f6f206c6172676500000060448201526064016106f0565b6040805173ffffffffffffffffffffffffffffffffffffffff8716815260208101869052908101829052869033907f7309ef3b726eaaa68f8c2718c3792a5573fc273c7a8a7f2daa65dc739b8459529060600160405180910390a39050610ced6001600255565b3360009081526001602081905260409091205414611437576040517f08c379a000000000000000000000000000000000000000000000000000000000815260206004820152601360248201527f417574682f6e6f742d617574686f72697a65640000000000000000000000000060448201526064016106f0565b61143f612ffb565b817f666565000000000000000000000000000000000000000000000000000000000003610e74576009819055817f078705fd406be5cbbc0dae219974006d7114e6884e0bf9cae84e0603e4b6df6c8260405161149d91815260200190565b60405180910390a25050565b3360009081526001602081905260409091205414611523576040517f08c379a000000000000000000000000000000000000000000000000000000000815260206004820152601360248201527f417574682f6e6f742d617574686f72697a65640000000000000000000000000060448201526064016106f0565b61152b61333a565b565b60085460009073ffffffffffffffffffffffffffffffffffffffff1661155657506305f5e10090565b600854604080517ffeaf968c000000000000000000000000000000000000000000000000000000008152905160009273ffffffffffffffffffffffffffffffffffffffff169163feaf968c9160048083019260a09291908290030181865afa1580156115c6573d6000803e3d6000fd5b505050506040513d601f19601f820116820180604052508101906115ea9190614084565b509195945050505050565b6003818154811061160557600080fd5b600091825260209091200154905081565b3360009081526001602081905260409091205414611690576040517f08c379a000000000000000000000000000000000000000000000000000000000815260206004820152601360248201527f417574682f6e6f742d617574686f72697a65640000000000000000000000000060448201526064016106f0565b73ffffffffffffffffffffffffffffffffffffffff8116600081815260016020819052604080832091909155517fdd0e34038ac38b2a1ce960229778ac48a8719bc900b6c4f8d0475c6e8b385a609190a250565b336000908152600160208190526040909120541461175e576040517f08c379a000000000000000000000000000000000000000000000000000000000815260206004820152601360248201527f417574682f6e6f742d617574686f72697a65640000000000000000000000000060448201526064016106f0565b61152b6133b7565b33600090815260016020819052604090912054146117e0576040517f08c379a000000000000000000000000000000000000000000000000000000000815260206004820152601360248201527f417574682f6e6f742d617574686f72697a65640000000000000000000000000060448201526064016106f0565b60005b83811015611868578282828181106117fd576117fd6140d4565b905060c0020160056000878785818110611819576118196140d4565b905060200201358152602001908152602001600020818161183a9190614103565b905050611860858583818110611852576118526140d4565b905060200201356000613412565b6001016117e3565b507f33d6fbd12e1a5f9d585daa03cb33f97dc7b60f812b1258f0e8c52b8c143a9c488484848460405161189e94939291906141cb565b60405180910390a150505050565b3360009081526001602081905260409091205414611926576040517f08c379a000000000000000000000000000000000000000000000000000000000815260206004820152601360248201527f417574682f6e6f742d617574686f72697a65640000000000000000000000000060448201526064016106f0565b73ffffffffffffffffffffffffffffffffffffffff8116600081815260016020526040808220829055517f184450df2e323acec0ed3b5c7531b81f9b4cdef7914dfd4c0a4317416bb5251b9190a250565b600080611984848461362c565b600085815260056020818152604092839020835160c08101855281548152600182015492810183905260028201549481019490945260038101546060850152600481015473ffffffffffffffffffffffffffffffffffffffff908116608086015292015490911660a0830152919250908211611a0557600092505050611a5e565b6000816020015183611a1791906142b9565b9050670de0b6b3a7640000600954670de0b6b3a76400008784611a3a9190613f9b565b611a449190613fb2565b611a4e9190613f9b565b611a589190613fb2565b93505050505b92915050565b600754604080517f18160ddd000000000000000000000000000000000000000000000000000000008152905160009273ffffffffffffffffffffffffffffffffffffffff16916318160ddd9160048083019260209291908290030181865afa158015611ad4573d6000803e3d6000fd5b505050506040513d601f19601f82011682018060405250810190611af89190613fed565b611b0061272a565b611b0a9190613fb2565b905090565b6000611b19612ffb565b611b21612e99565b600085815260056020818152604092839020835160c08101855281548152600182015492810183905260028201549481019490945260038101546060850152600481015473ffffffffffffffffffffffffffffffffffffffff908116608086015292015490911660a0830152611bf3576040517f08c379a000000000000000000000000000000000000000000000000000000000815260206004820152601c60248201527f5661756c742f6173736574206e6f7420696e2077686974656c6973740000000060448201526064016106f0565b6007546040517f9dc29fac0000000000000000000000000000000000000000000000000000000081523360048201526024810186905273ffffffffffffffffffffffffffffffffffffffff90911690639dc29fac90604401600060405180830381600087803b158015611c6557600080fd5b505af1158015611c79573d6000803e3d6000fd5b505050506000816080015173ffffffffffffffffffffffffffffffffffffffff1663313ce5676040518163ffffffff1660e01b8152600401602060405180830381865afa158015611cce573d6000803e3d6000fd5b505050506040513d601f19601f82011682018060405250810190611cf29190613e1a565b611cfd90600a613f8c565b90506000670de0b6b3a7640000611d1389611e5d565b8388611d1d61152d565b611d279190614019565b611d319190613f9b565b611d3b9190613fb2565b611d459190613fb2565b90506000611d538983612682565b9050611d5f81836142b9565b915085821015611dcb576040517f08c379a000000000000000000000000000000000000000000000000000000000815260206004820152601d60248201527f5661756c742f616d6f756e74206f757420697320746f6f206c6172676500000060448201526064016106f0565b6080840151611df173ffffffffffffffffffffffffffffffffffffffff82168a8561307e565b6040805173ffffffffffffffffffffffffffffffffffffffff8b168152602081018a90529081018490528a9033907f639027de0b31595783caf0e0f3f582389fb1b77298da6a2eed289c7f0e51857e9060600160405180910390a350909350505050610ced6001600255565b60008181526005602081905260408083209091015481517ffeaf968c000000000000000000000000000000000000000000000000000000008152915173ffffffffffffffffffffffffffffffffffffffff909116918391839163feaf968c9160048083019260a09291908290030181865afa158015611ee0573d6000803e3d6000fd5b505050506040513d601f19601f82011682018060405250810190611f049190614084565b5091979650505050505050565b3360009081526001602081905260409091205414611f8b576040517f08c379a000000000000000000000000000000000000000000000000000000000815260206004820152601360248201527f417574682f6e6f742d617574686f72697a65640000000000000000000000000060448201526064016106f0565b60085474010000000000000000000000000000000000000000900460ff1661093157600880547fffffffffffffffffffffff00ffffffffffffffffffffffffffffffffffffffff167401000000000000000000000000000000000000000017905560005b82518110156120405761203783828151811061200d5761200d6140d4565b602002602001015133848481518110612028576120286140d4565b602002602001015160006130c1565b50600101611fef565b507fa3a76e531f40d7de332640fb9ce54625a6582d7f8fd087476f61557fd77f6fcb82826040516120729291906142cc565b60405180910390a15050565b33600090815260016020819052604090912054146120f8576040517f08c379a000000000000000000000000000000000000000000000000000000000815260206004820152601360248201527f417574682f6e6f742d617574686f72697a65640000000000000000000000000060448201526064016106f0565b612100612e99565b60065473ffffffffffffffffffffffffffffffffffffffff1661217f576040517f08c379a000000000000000000000000000000000000000000000000000000000815260206004820152601260248201527f5661756c742f66756e64206973207a65726f000000000000000000000000000060448201526064016106f0565b60008281526005602052604080822060065460048083015493517ff3fef3a300000000000000000000000000000000000000000000000000000000815273ffffffffffffffffffffffffffffffffffffffff9485169181019190915260248101869052919392169063f3fef3a3906044016020604051808303816000875af115801561220f573d6000803e3d6000fd5b505050506040513d601f19601f820116820180604052508101906122339190613fed565b9050816003015481111561224d5760006003830155612255565b600060038301555b837fa3b20715ecbfc0df1fd9080734769d9acd91e86de1cbd3625392170cdcfd6f148460405161228791815260200190565b60405180910390a250506109316001600255565b6000818152600560208181526040808420815160c0810183528154815260018201549381019390935260028101548383015260038101546060840181905260048083015473ffffffffffffffffffffffffffffffffffffffff90811660808701819052939096015490951660a085015291517f70a082310000000000000000000000000000000000000000000000000000000081523094810194909452919284919083906370a0823190602401602060405180830381865afa158015612365573d6000803e3d6000fd5b505050506040513d601f19601f820116820180604052508101906123899190613fed565b6123939190614006565b6040840151909150610667670de0b6b3a764000083613f9b565b6000818152600560208181526040808420815160c0810183528154815260018201549381019390935260028101548383015260038101546060840181905260048083015473ffffffffffffffffffffffffffffffffffffffff90811660808701819052939096015490951660a085015291517f70a082310000000000000000000000000000000000000000000000000000000081523094810194909452919282906370a0823190602401602060405180830381865afa158015612474573d6000803e3d6000fd5b505050506040513d601f19601f820116820180604052508101906124989190613fed565b610ced9190614006565b7ff0c57e16840df040f15088dc2f81fe391c3923bec73e23a9662efc9c229c6a00805468010000000000000000810460ff16159067ffffffffffffffff166000811580156124ed5750825b905060008267ffffffffffffffff16600114801561250a5750303b155b905081158015612518575080155b1561254f576040517ff92ee8a900000000000000000000000000000000000000000000000000000000815260040160405180910390fd5b84547fffffffffffffffffffffffffffffffffffffffffffffffff000000000000000016600117855583156125b05784547fffffffffffffffffffffffffffffffffffffffffffffff00ffffffffffffffff16680100000000000000001785555b33600090815260016020819052604090912055600780547fffffffffffffffffffffffff00000000000000000000000000000000000000001673ffffffffffffffffffffffffffffffffffffffff8816179055612616600a670de0b6b3a7640000613fb2565b600955831561267a5784547fffffffffffffffffffffffffffffffffffffffffffffff00ffffffffffffffff168555604051600181527fc7f505b2f371ae2175ee4913f4499e1f2633a7b5936321eed1cdaeb6115181d29060200160405180910390a15b505050505050565b6000806126978461269285614347565b61362c565b600085815260056020818152604092839020835160c081018552815480825260018301549382019390935260028201549481019490945260038101546060850152600481015473ffffffffffffffffffffffffffffffffffffffff908116608086015292015490911660a083015291925090821061271a57600092505050611a5e565b8051600090611a179084906142b9565b600354600090819060015b8181101561290757600060038281548110612752576127526140d4565b60009182526020808320919091015480835260058083526040808520815160c081018352815481526001820154958101959095526002810154858301526003810154606086015260048082015473ffffffffffffffffffffffffffffffffffffffff90811660808801819052929094015490931660a086015290517f70a0823100000000000000000000000000000000000000000000000000000000815230928101929092529194509192916370a0823190602401602060405180830381865afa158015612824573d6000803e3d6000fd5b505050506040513d601f19601f820116820180604052508101906128489190613fed565b90506000826080015173ffffffffffffffffffffffffffffffffffffffff1663313ce5676040518163ffffffff1660e01b8152600401602060405180830381865afa15801561289b573d6000803e3d6000fd5b505050506040513d601f19601f820116820180604052508101906128bf9190613e1a565b6128ca90600a613f8c565b905080826128d786611e5d565b6128e19190613f9b565b6128eb9190613fb2565b6128f59088614006565b96505060019093019250612735915050565b5060065473ffffffffffffffffffffffffffffffffffffffff1615612a60576006546040517f70a0823100000000000000000000000000000000000000000000000000000000815230600482015273ffffffffffffffffffffffffffffffffffffffff909116906370a0823190602401602060405180830381865afa158015612994573d6000803e3d6000fd5b505050506040513d601f19601f820116820180604052508101906129b89190613fed565b600660009054906101000a900473ffffffffffffffffffffffffffffffffffffffff1673ffffffffffffffffffffffffffffffffffffffff1663a035b1fe6040518163ffffffff1660e01b8152600401602060405180830381865afa158015612a25573d6000803e3d6000fd5b505050506040513d601f19601f82011682018060405250810190612a499190613fed565b612a539190613f9b565b612a5d9083614006565b91505b50919050565b3360009081526001602081905260409091205414612ae0576040517f08c379a000000000000000000000000000000000000000000000000000000000815260206004820152601360248201527f417574682f6e6f742d617574686f72697a65640000000000000000000000000060448201526064016106f0565b612ae8612ffb565b73ffffffffffffffffffffffffffffffffffffffff8116612b65576040517f08c379a000000000000000000000000000000000000000000000000000000000815260206004820152601a60248201527f5661756c742f66696c652d616464726573732d69732d7a65726f00000000000060448201526064016106f0565b817f4f7261636c65000000000000000000000000000000000000000000000000000003612bd157600880547fffffffffffffffffffffffff00000000000000000000000000000000000000001673ffffffffffffffffffffffffffffffffffffffff8316179055612c39565b817f46756e640000000000000000000000000000000000000000000000000000000003610e7457600680547fffffffffffffffffffffffff00000000000000000000000000000000000000001673ffffffffffffffffffffffffffffffffffffffff83161790555b60405173ffffffffffffffffffffffffffffffffffffffff8216815282907f1cd8e98e02e12f822936437bb3cf5ca47eb462329e38df93f340c478b3cbfade9060200161149d565b6000611a5e82600061362c565b3360009081526001602081905260409091205414612d08576040517f08c379a000000000000000000000000000000000000000000000000000000000815260206004820152601360248201527f417574682f6e6f742d617574686f72697a65640000000000000000000000000060448201526064016106f0565b612d10612ffb565b817f67656d000000000000000000000000000000000000000000000000000000000003612d8b57600083815260056020526040902060040180547fffffffffffffffffffffffff00000000000000000000000000000000000000001673ffffffffffffffffffffffffffffffffffffffff8316179055612e03565b817f6f7261636c65000000000000000000000000000000000000000000000000000003610e745760008381526005602081905260409091200180547fffffffffffffffffffffffff00000000000000000000000000000000000000001673ffffffffffffffffffffffffffffffffffffffff83161790555b612e4f83837f67656d0000000000000000000000000000000000000000000000000000000000148015612e4a575073ffffffffffffffffffffffffffffffffffffffff8316155b613412565b60405173ffffffffffffffffffffffffffffffffffffffff82168152829084907f6df1fac301e4915518dc9d837f59441863f1c0f193e9c20bd71a3bd2da13021d90602001610f09565b6002805403612ed4576040517f3ee5aeb500000000000000000000000000000000000000000000000000000000815260040160405180910390fd5b60028055565b6040805173ffffffffffffffffffffffffffffffffffffffff8416602482015260448082018490528251808303909101815260649091019091526020810180517bffffffffffffffffffffffffffffffffffffffffffffffffffffffff167f095ea7b300000000000000000000000000000000000000000000000000000000179052612f668482613701565b612ff55760405173ffffffffffffffffffffffffffffffffffffffff848116602483015260006044830152612feb91869182169063095ea7b3906064015b604051602081830303815290604052915060e01b6020820180517bffffffffffffffffffffffffffffffffffffffffffffffffffffffff83818316178352505050506137be565b612ff584826137be565b50505050565b60005460ff161561152b576040517fd93c066500000000000000000000000000000000000000000000000000000000815260040160405180910390fd5b60405173ffffffffffffffffffffffffffffffffffffffff8481166024830152838116604483015260648201839052612ff59186918216906323b872dd90608401612fa4565b60405173ffffffffffffffffffffffffffffffffffffffff8381166024830152604482018390526130bc91859182169063a9059cbb90606401612fa4565b505050565b6000848152600560208181526040808420815160c08101835281548152600182015493810184905260028201549281019290925260038101546060830152600481015473ffffffffffffffffffffffffffffffffffffffff908116608084015293015490921660a0830152613192576040517f08c379a000000000000000000000000000000000000000000000000000000000815260206004820152601c60248201527f5661756c742f6173736574206e6f7420696e2077686974656c6973740000000060448201526064016106f0565b600083156131a7576131a48786611977565b90505b60808201516131ce9073ffffffffffffffffffffffffffffffffffffffff16333088613038565b6000826080015173ffffffffffffffffffffffffffffffffffffffff1663313ce5676040518163ffffffff1660e01b8152600401602060405180830381865afa15801561321f573d6000803e3d6000fd5b505050506040513d601f19601f820116820180604052508101906132439190613e1a565b61324e90600a613f8c565b905060008161325b61152d565b670de0b6b3a764000061326e868b6142b9565b6132778d611e5d565b6132819190613f9b565b61328b9190613f9b565b6132959190613fb2565b61329f9190613fb2565b6007546040517f40c10f1900000000000000000000000000000000000000000000000000000000815273ffffffffffffffffffffffffffffffffffffffff8b81166004830152602482018490529293509116906340c10f1990604401600060405180830381600087803b15801561331557600080fd5b505af1158015613329573d6000803e3d6000fd5b50929b9a5050505050505050505050565b613342613854565b600080547fffffffffffffffffffffffffffffffffffffffffffffffffffffffffffffff001690557f5db9ee0a495bf2e6ff9c91a7834c1ba4fdd244a5e8aa4e537bd38aeae4b073aa335b60405173ffffffffffffffffffffffffffffffffffffffff909116815260200160405180910390a1565b6133bf612ffb565b600080547fffffffffffffffffffffffffffffffffffffffffffffffffffffffffffffff001660011790557f62e78cea01bee320cd4e420270b5ea74000d11b0c9f74754ebdbfc544b05a25861338d3390565b80613472576000828152600460205260409020541561342f575050565b600380546001810182557fc2575a0e9e593c00f959f8c92f12db2869c3395a3b0502d05e2516446f71f85b01839055546000838152600460205260409020555050565b6000828152600460205260409020546134e7576040517f08c379a000000000000000000000000000000000000000000000000000000000815260206004820152601560248201527f5661756c742f6173736574206e6f74206164646564000000000000000000000060448201526064016106f0565b60038054600091906134fb906001906142b9565b8154811061350b5761350b6140d4565b906000526020600020015490508083146135785760008381526004602052604081205461353a906001906142b9565b90508160038281548110613550576135506140d4565b600091825260209091200155613567816001614006565b600083815260046020526040902055505b60038054806135895761358961437f565b6000828152602080822083017fffffffffffffffffffffffffffffffffffffffffffffffffffffffffffffffff90810183905590920190925584825260048082526040808420849055600592839052832083815560018101849055600281018490556003810193909355820180547fffffffffffffffffffffffff0000000000000000000000000000000000000000908116909155910180549091169055505050565b60008061363761272a565b9050600081136136a3576040517f08c379a000000000000000000000000000000000000000000000000000000000815260206004820152601660248201527f5661756c742f61737320616d6f756e74206572726f720000000000000000000060448201526064016106f0565b60006136ae85610591565b90506000846136bc87611e5d565b6136c69190614019565b90506136d281846143ae565b92506136de81836143ae565b915060008212156136ee57600091505b82611a4e83670de0b6b3a7640000613f9b565b60008060008473ffffffffffffffffffffffffffffffffffffffff168460405161372b91906143d6565b6000604051808303816000865af19150503d8060008114613768576040519150601f19603f3d011682016040523d82523d6000602084013e61376d565b606091505b50915091508180156137975750805115806137975750808060200190518101906137979190614405565b801561067157505050505073ffffffffffffffffffffffffffffffffffffffff163b151590565b60006137e073ffffffffffffffffffffffffffffffffffffffff841683613890565b905080516000141580156138055750808060200190518101906138039190614405565b155b156130bc576040517f5274afe700000000000000000000000000000000000000000000000000000000815273ffffffffffffffffffffffffffffffffffffffff841660048201526024016106f0565b60005460ff1661152b576040517f8dfc202b00000000000000000000000000000000000000000000000000000000815260040160405180910390fd5b606061389e838360006138a5565b9392505050565b6060814710156138e3576040517fcd7860590000000000000000000000000000000000000000000000000000000081523060048201526024016106f0565b6000808573ffffffffffffffffffffffffffffffffffffffff16848660405161390c91906143d6565b60006040518083038185875af1925050503d8060008114613949576040519150601f19603f3d011682016040523d82523d6000602084013e61394e565b606091505b509150915061395e868383613968565b9695505050505050565b60608261397d57613978826139f7565b61389e565b81511580156139a1575073ffffffffffffffffffffffffffffffffffffffff84163b155b156139f0576040517f9996b31500000000000000000000000000000000000000000000000000000000815273ffffffffffffffffffffffffffffffffffffffff851660048201526024016106f0565b508061389e565b805115613a075780518082602001fd5b6040517f1425ea4200000000000000000000000000000000000000000000000000000000815260040160405180910390fd5b50565b600060208284031215613a4e57600080fd5b5035919050565b60008060408385031215613a6857600080fd5b50508035926020909101359150565b73ffffffffffffffffffffffffffffffffffffffff81168114613a3957600080fd5b60008060008060808587031215613aaf57600080fd5b843593506020850135613ac181613a77565b93969395505050506040820135916060013590565b600080600060608486031215613aeb57600080fd5b505081359360208301359350604090920135919050565b600060208284031215613b1457600080fd5b813561389e81613a77565b60008060008060408587031215613b3557600080fd5b843567ffffffffffffffff80821115613b4d57600080fd5b818701915087601f830112613b6157600080fd5b813581811115613b7057600080fd5b8860208260051b8501011115613b8557600080fd5b602092830196509450908601359080821115613ba057600080fd5b818701915087601f830112613bb457600080fd5b813581811115613bc357600080fd5b88602060c083028501011115613bd857600080fd5b95989497505060200194505050565b7f4e487b7100000000000000000000000000000000000000000000000000000000600052604160045260246000fd5b604051601f82017fffffffffffffffffffffffffffffffffffffffffffffffffffffffffffffffe016810167ffffffffffffffff81118282101715613c5d57613c5d613be7565b604052919050565b600067ffffffffffffffff821115613c7f57613c7f613be7565b5060051b60200190565b600082601f830112613c9a57600080fd5b81356020613caf613caa83613c65565b613c16565b8083825260208201915060208460051b870101935086841115613cd157600080fd5b602086015b84811015613ced5780358352918301918301613cd6565b509695505050505050565b60008060408385031215613d0b57600080fd5b823567ffffffffffffffff80821115613d2357600080fd5b818501915085601f830112613d3757600080fd5b81356020613d47613caa83613c65565b82815260059290921b84018101918181019089841115613d6657600080fd5b948201945b83861015613d8457853582529482019490820190613d6b565b96505086013592505080821115613d9a57600080fd5b50613da785828601613c89565b9150509250929050565b60008060408385031215613dc457600080fd5b823591506020830135613dd681613a77565b809150509250929050565b600080600060608486031215613df657600080fd5b83359250602084013591506040840135613e0f81613a77565b809150509250925092565b600060208284031215613e2c57600080fd5b815160ff8116811461389e57600080fd5b7f4e487b7100000000000000000000000000000000000000000000000000000000600052601160045260246000fd5b600181815b80851115613ec557817fffffffffffffffffffffffffffffffffffffffffffffffffffffffffffffffff04821115613eab57613eab613e3d565b80851615613eb857918102915b93841c9390800290613e71565b509250929050565b600082613edc57506001611a5e565b81613ee957506000611a5e565b8160018114613eff5760028114613f0957613f25565b6001915050611a5e565b60ff841115613f1a57613f1a613e3d565b50506001821b611a5e565b5060208310610133831016604e8410600b8410161715613f48575081810a611a5e565b613f528383613e6c565b807fffffffffffffffffffffffffffffffffffffffffffffffffffffffffffffffff04821115613f8457613f84613e3d565b029392505050565b600061389e60ff841683613ecd565b8082028115828204841417611a5e57611a5e613e3d565b600082613fe8577f4e487b7100000000000000000000000000000000000000000000000000000000600052601260045260246000fd5b500490565b600060208284031215613fff57600080fd5b5051919050565b80820180821115611a5e57611a5e613e3d565b808202600082127f80000000000000000000000000000000000000000000000000000000000000008414161561405157614051613e3d565b8181058314821517611a5e57611a5e613e3d565b805169ffffffffffffffffffff8116811461407f57600080fd5b919050565b600080600080600060a0868803121561409c57600080fd5b6140a586614065565b94506020860151935060408601519250606086015191506140c860808701614065565b90509295509295909350565b7f4e487b7100000000000000000000000000000000000000000000000000000000600052603260045260246000fd5b81358155602082013560018201556040820135600282015560608201356003820155608082013561413381613a77565b6004820180547fffffffffffffffffffffffff00000000000000000000000000000000000000001673ffffffffffffffffffffffffffffffffffffffff83161790555060a082013561418481613a77565b6005820180547fffffffffffffffffffffffff00000000000000000000000000000000000000001673ffffffffffffffffffffffffffffffffffffffff8316179055505050565b6000604080835285604084015260607f07ffffffffffffffffffffffffffffffffffffffffffffffffffffffffffffff87111561420757600080fd5b8660051b80896060870137606090850185810382016020808801919091529181018790528791608091820160005b898110156142a957843582528285013583830152868501358783015285850135868301528385013561426681613a77565b73ffffffffffffffffffffffffffffffffffffffff9081168386015260a0908682013561429281613a77565b169083015260c09485019490910190600101614235565b509b9a5050505050505050505050565b81810381811115611a5e57611a5e613e3d565b604080825283519082018190526000906020906060840190828701845b82811015614305578151845292840192908401906001016142e9565b5050508381038285015284518082528583019183019060005b8181101561433a5783518352928401929184019160010161431e565b5090979650505050505050565b60007f8000000000000000000000000000000000000000000000000000000000000000820361437857614378613e3d565b5060000390565b7f4e487b7100000000000000000000000000000000000000000000000000000000600052603160045260246000fd5b80820182811260008312801582168215821617156143ce576143ce613e3d565b505092915050565b6000825160005b818110156143f757602081860181015185830152016143dd565b506000920191825250919050565b60006020828403121561441757600080fd5b8151801515811461389e57600080fdfea26469706673582212203b3176dab46d85f0e0319b9345c0c1e44e088ac0a470a60e100aa01db607fb5964736f6c63430008170033",
        "nonce": "0xabc",
        "accessList": []
      },
      "additionalContracts": [],
      "isFixedGasLimit": false
    },
    {
      "hash": "0x586db7c1440cd140c0b2970f31f0899e1d4cfc4cd7157d993f70bae5829530e5",
      "transactionType": "CALL",
      "contractName": null,
      "contractAddress": "0x9315C2Df1Ac5817ED470e888eB201dD7Cd16b31e",
      "function": null,
      "arguments": null,
      "transaction": {
        "type": "0x02",
        "from": "0x077a79ab65caabaa684f34cc22aca911742690e0",
        "to": "0x9315c2df1ac5817ed470e888eb201dd7cd16b31e",
        "gas": "0xcb32",
        "value": "0x0",
        "data": "0x9623609d00000000000000000000000094132a5da7192a0f0d85235b8921f3153f9d5e2300000000000000000000000085564d6eba2da0d01d71071e05e4bf612457cd0d00000000000000000000000000000000000000000000000000000000000000600000000000000000000000000000000000000000000000000000000000000000",
        "nonce": "0xabd",
        "accessList": []
      },
      "additionalContracts": [],
      "isFixedGasLimit": false
    },
    {
      "hash": "0xd05ee7bc730b88199d836e880092ab22a7dabe4b64bbe11935e431071abae64e",
      "transactionType": "CALL",
      "contractName": null,
      "contractAddress": "0x1b967aC2C1B526F71aB99b7eeC6153C33e037A24",
      "function": null,
      "arguments": null,
      "transaction": {
        "type": "0x02",
        "from": "0x077a79ab65caabaa684f34cc22aca911742690e0",
        "to": "0x1b967ac2c1b526f71ab99b7eec6153c33e037a24",
        "gas": "0xcb32",
        "value": "0x0",
        "data": "0x9623609d0000000000000000000000009ab7ff6141fc8621ca8728141a0fcd321796bc0c00000000000000000000000085564d6eba2da0d01d71071e05e4bf612457cd0d00000000000000000000000000000000000000000000000000000000000000600000000000000000000000000000000000000000000000000000000000000000",
        "nonce": "0xabe",
        "accessList": []
      },
      "additionalContracts": [],
      "isFixedGasLimit": false
    },
    {
      "hash": "0xb2fe903cff91c276bf33285122edd5ae23ce65d365eb7cad1e9628dafc647dce",
      "transactionType": "CALL",
      "contractName": null,
      "contractAddress": "0x9E410000a10A32396C44f6bCdB228bBac4758F65",
      "function": null,
      "arguments": null,
      "transaction": {
        "type": "0x02",
        "from": "0x077a79ab65caabaa684f34cc22aca911742690e0",
        "to": "0x9e410000a10a32396c44f6bcdb228bbac4758f65",
        "gas": "0xcb32",
        "value": "0x0",
        "data": "0x9623609d0000000000000000000000008ced3df1c33b134f6e7190b3b9c8af0bafea80dd00000000000000000000000085564d6eba2da0d01d71071e05e4bf612457cd0d00000000000000000000000000000000000000000000000000000000000000600000000000000000000000000000000000000000000000000000000000000000",
        "nonce": "0xabf",
        "accessList": []
      },
      "additionalContracts": [],
      "isFixedGasLimit": false
    },
    {
      "hash": "0x8a3121bc47db37751a320621f716eec3c5bd0870c537aff02b671400bfb6cbd2",
      "transactionType": "CALL",
      "contractName": "TToken",
      "contractAddress": "0xd7a9794eed0dA4F18A56A84FFE57E53262eae316",
      "function": "mint(address,uint256)",
      "arguments": [
        "0x077A79ab65cAAbAa684f34Cc22aCa911742690E0",
        "420095812470000000000"
      ],
      "transaction": {
        "type": "0x02",
        "from": "0x077a79ab65caabaa684f34cc22aca911742690e0",
        "to": "0xd7a9794eed0da4f18a56a84ffe57e53262eae316",
        "gas": "0xb8d8",
        "value": "0x0",
        "data": "0x40c10f19000000000000000000000000077a79ab65caabaa684f34cc22aca911742690e0000000000000000000000000000000000000000000000016c60023adaf771c00",
        "nonce": "0xac0",
        "accessList": []
      },
      "additionalContracts": [],
      "isFixedGasLimit": false
    },
    {
      "hash": "0x70232d73b1a13a302833b39a73538accc83ab7283c56af6768fe8dd7ee116ac5",
      "transactionType": "CALL",
      "contractName": null,
      "contractAddress": "0x94132a5Da7192a0f0D85235b8921f3153F9D5E23",
      "function": "sellExactIn(bytes32,address,uint256,uint256)",
      "arguments": [
        "0x5745544800000000000000000000000000000000000000000000000000000000",
        "0x077A79ab65cAAbAa684f34Cc22aCa911742690E0",
        "420095812470000000000",
        "0"
      ],
      "transaction": {
        "type": "0x02",
        "from": "0x077a79ab65caabaa684f34cc22aca911742690e0",
        "to": "0x94132a5da7192a0f0d85235b8921f3153f9d5e23",
        "gas": "0x4fbc8",
        "value": "0x0",
        "data": "0xa28b9c0f5745544800000000000000000000000000000000000000000000000000000000000000000000000000000000077a79ab65caabaa684f34cc22aca911742690e0000000000000000000000000000000000000000000000016c60023adaf771c000000000000000000000000000000000000000000000000000000000000000000",
        "nonce": "0xac1",
        "accessList": []
      },
      "additionalContracts": [],
      "isFixedGasLimit": false
    },
    {
      "hash": "0xf5ae85f93921a9daf7148822a3de989b02db6390bb659a3a3bc6e12ff54533fe",
      "transactionType": "CALL",
      "contractName": "TToken",
      "contractAddress": "0xd7a9794eed0dA4F18A56A84FFE57E53262eae316",
      "function": "mint(address,uint256)",
      "arguments": [
        "0x077A79ab65cAAbAa684f34Cc22aCa911742690E0",
        "1501348215000000000000000"
      ],
      "transaction": {
        "type": "0x02",
        "from": "0x077a79ab65caabaa684f34cc22aca911742690e0",
        "to": "0xd7a9794eed0da4f18a56a84ffe57e53262eae316",
        "gas": "0xb906",
        "value": "0x0",
        "data": "0x40c10f19000000000000000000000000077a79ab65caabaa684f34cc22aca911742690e0000000000000000000000000000000000000000000013dec3ff412be3ec58000",
        "nonce": "0xac2",
        "accessList": []
      },
      "additionalContracts": [],
      "isFixedGasLimit": false
    },
    {
      "hash": "0x96681ec9378a97a14bbb430c91cabd882a33d08dd59ed057a4263ab80399fbd7",
      "transactionType": "CALL",
      "contractName": null,
      "contractAddress": "0x94132a5Da7192a0f0D85235b8921f3153F9D5E23",
      "function": "sellExactIn(bytes32,address,uint256,uint256)",
      "arguments": [
        "0x5553444300000000000000000000000000000000000000000000000000000000",
        "0x077A79ab65cAAbAa684f34Cc22aCa911742690E0",
        "1501348215000000000000000",
        "0"
      ],
      "transaction": {
        "type": "0x02",
        "from": "0x077a79ab65caabaa684f34cc22aca911742690e0",
        "to": "0x94132a5da7192a0f0d85235b8921f3153f9d5e23",
        "gas": "0x45ab9",
        "value": "0x0",
        "data": "0xa28b9c0f5553444300000000000000000000000000000000000000000000000000000000000000000000000000000000077a79ab65caabaa684f34cc22aca911742690e0000000000000000000000000000000000000000000013dec3ff412be3ec580000000000000000000000000000000000000000000000000000000000000000000",
        "nonce": "0xac3",
        "accessList": []
      },
      "additionalContracts": [],
      "isFixedGasLimit": false
    },
    {
      "hash": "0x1b79bc6266c5a59ac42d4790dc3cf38f7a70a7b7cfd87e1040875f1af38d3184",
      "transactionType": "CALL",
      "contractName": "TToken",
      "contractAddress": "0xd7a9794eed0dA4F18A56A84FFE57E53262eae316",
      "function": "mint(address,uint256)",
      "arguments": [
        "0x077A79ab65cAAbAa684f34Cc22aCa911742690E0",
        "61790225687790283420000000000"
      ],
      "transaction": {
        "type": "0x02",
        "from": "0x077a79ab65caabaa684f34cc22aca911742690e0",
        "to": "0xd7a9794eed0da4f18a56a84ffe57e53262eae316",
        "gas": "0xb916",
        "value": "0x0",
        "data": "0x40c10f19000000000000000000000000077a79ab65caabaa684f34cc22aca911742690e00000000000000000000000000000000000000000c7a7ad3e741ea16e56f71800",
        "nonce": "0xac4",
        "accessList": []
      },
      "additionalContracts": [],
      "isFixedGasLimit": false
    },
    {
      "hash": "0x8ac933c6b5d0b2b7b802e7a8a8e73173fcca5f586f41cd7a8f03075464966953",
      "transactionType": "CALL",
      "contractName": null,
      "contractAddress": "0x94132a5Da7192a0f0D85235b8921f3153F9D5E23",
      "function": "sellExactIn(bytes32,address,uint256,uint256)",
      "arguments": [
        "0x5742544300000000000000000000000000000000000000000000000000000000",
        "0x077A79ab65cAAbAa684f34Cc22aCa911742690E0",
        "61790225687790283420000000000",
        "0"
      ],
      "transaction": {
        "type": "0x02",
        "from": "0x077a79ab65caabaa684f34cc22aca911742690e0",
        "to": "0x94132a5da7192a0f0d85235b8921f3153f9d5e23",
        "gas": "0x45ac9",
        "value": "0x0",
        "data": "0xa28b9c0f5742544300000000000000000000000000000000000000000000000000000000000000000000000000000000077a79ab65caabaa684f34cc22aca911742690e00000000000000000000000000000000000000000c7a7ad3e741ea16e56f718000000000000000000000000000000000000000000000000000000000000000000",
        "nonce": "0xac5",
        "accessList": []
      },
      "additionalContracts": [],
      "isFixedGasLimit": false
    },
    {
      "hash": "0xad925ac6ae5d8de9efd7edd293c63b16d4a8ce625a24aaab4fe6fb25947a6e44",
      "transactionType": "CALL",
      "contractName": "TToken",
      "contractAddress": "0xd7a9794eed0dA4F18A56A84FFE57E53262eae316",
      "function": "mint(address,uint256)",
      "arguments": [
        "0x077A79ab65cAAbAa684f34Cc22aCa911742690E0",
        "22970378416974570000000000"
      ],
      "transaction": {
        "type": "0x02",
        "from": "0x077a79ab65caabaa684f34cc22aca911742690e0",
        "to": "0xd7a9794eed0da4f18a56a84ffe57e53262eae316",
        "gas": "0xb8f7",
        "value": "0x0",
        "data": "0x40c10f19000000000000000000000000077a79ab65caabaa684f34cc22aca911742690e000000000000000000000000000000000000000000013002ab58935980f20a400",
        "nonce": "0xac6",
        "accessList": []
      },
      "additionalContracts": [],
      "isFixedGasLimit": false
    },
    {
      "hash": "0x1517116b580240a7a0bd15add46406ec4478ac32caab196ba6605d58b411d099",
      "transactionType": "CALL",
      "contractName": null,
      "contractAddress": "0x94132a5Da7192a0f0D85235b8921f3153F9D5E23",
      "function": "sellExactIn(bytes32,address,uint256,uint256)",
      "arguments": [
        "0x4c494e4b00000000000000000000000000000000000000000000000000000000",
        "0x077A79ab65cAAbAa684f34Cc22aCa911742690E0",
        "22970378416974570000000000",
        "0"
      ],
      "transaction": {
        "type": "0x02",
        "from": "0x077a79ab65caabaa684f34cc22aca911742690e0",
        "to": "0x94132a5da7192a0f0d85235b8921f3153f9d5e23",
        "gas": "0x45ac2",
        "value": "0x0",
        "data": "0xa28b9c0f4c494e4b00000000000000000000000000000000000000000000000000000000000000000000000000000000077a79ab65caabaa684f34cc22aca911742690e000000000000000000000000000000000000000000013002ab58935980f20a4000000000000000000000000000000000000000000000000000000000000000000",
        "nonce": "0xac7",
        "accessList": []
      },
      "additionalContracts": [],
      "isFixedGasLimit": false
    }
  ],
  "receipts": [
    {
      "transactionHash": "0x5145c5fbe1b3b0b5a71bded2bfc7ab778b96530e14bf66f178cf147776da64bd",
      "transactionIndex": "0x1",
      "blockHash": "0xb67d71352082e42f062a1f25320d939fcf7bb7784f3039dadadfba1e4a759067",
      "blockNumber": "0x7c0bb2",
      "from": "0x077A79ab65cAAbAa684f34Cc22aCa911742690E0",
      "to": null,
      "cumulativeGasUsed": "0x3acebe",
      "gasUsed": "0x3acebe",
      "contractAddress": "0x85564d6Eba2dA0d01D71071E05e4bF612457cd0D",
      "logs": [],
      "status": "0x1",
      "logsBloom": "0x00000000000000000000000000000000000000000000000000000000000000000000000000000000000000000000000000000000000000000000000000000000000000000000000000000000000000000000000000000000000000000000000000000000000000000000000000000000000000000000000000000000000000000000000000000000000000000000000000000000000000000000000000000000000000000000000000000000000000000000000000000000000000000000000000000000000000000000000000000000000000000000000000000000000000000000000000000000000000000000000000000000000000000000000000000000",
      "type": "0x2",
      "effectiveGasPrice": "0x5f5e100"
    },
    {
      "transactionHash": "0x586db7c1440cd140c0b2970f31f0899e1d4cfc4cd7157d993f70bae5829530e5",
      "transactionIndex": "0x1",
      "blockHash": "0xa8cc3a43c1856b1b49abded1a423c6e7f8fe715f973fa4ef31f38c9e3918ccc3",
      "blockNumber": "0x7c0bb7",
      "from": "0x077A79ab65cAAbAa684f34Cc22aCa911742690E0",
      "to": "0x9315C2Df1Ac5817ED470e888eB201dD7Cd16b31e",
      "cumulativeGasUsed": "0x931d",
      "gasUsed": "0x931d",
      "contractAddress": null,
      "logs": [
        {
          "address": "0x94132a5Da7192a0f0D85235b8921f3153F9D5E23",
          "topics": [
            "0xbc7cd75a20ee27fd9adebab32041f755214dbc6bffa90cc0225b39da2e5c2d3b",
            "0x00000000000000000000000085564d6eba2da0d01d71071e05e4bf612457cd0d"
          ],
          "data": "0x",
          "blockHash": "0xa8cc3a43c1856b1b49abded1a423c6e7f8fe715f973fa4ef31f38c9e3918ccc3",
          "blockNumber": "0x7c0bb7",
          "transactionHash": "0x586db7c1440cd140c0b2970f31f0899e1d4cfc4cd7157d993f70bae5829530e5",
          "transactionIndex": "0x1",
          "logIndex": "0x0",
          "removed": false
        }
      ],
      "status": "0x1",
      "logsBloom": "0x00000000000000000000000000000000400004000000000400000000000000004000000000000000000000000000000000000000000000000080000000000000000000000000000000000000000002000000000000000000000000000000000000000000000000000000000000001000000000000000000000000000000000000000020000000000000000000000000000000000000000000000000000000000000000000000000000000000000000000000000000000000000000000000000000000020000000000000000000000000000000000000000000000000000000000000000000000000000000000000000000000000000000000000000000000000",
      "type": "0x2",
      "effectiveGasPrice": "0x5f5e100"
    },
    {
      "transactionHash": "0xd05ee7bc730b88199d836e880092ab22a7dabe4b64bbe11935e431071abae64e",
      "transactionIndex": "0x1",
      "blockHash": "0xd43022015ee7535ceb4471366f03f33927219ab3b6cca5a8292aef3ce045e8ac",
      "blockNumber": "0x7c0bbe",
      "from": "0x077A79ab65cAAbAa684f34Cc22aCa911742690E0",
      "to": "0x1b967aC2C1B526F71aB99b7eeC6153C33e037A24",
      "cumulativeGasUsed": "0x931d",
      "gasUsed": "0x931d",
      "contractAddress": null,
      "logs": [
        {
          "address": "0x9AB7FF6141fc8621cA8728141a0fcd321796BC0c",
          "topics": [
            "0xbc7cd75a20ee27fd9adebab32041f755214dbc6bffa90cc0225b39da2e5c2d3b",
            "0x00000000000000000000000085564d6eba2da0d01d71071e05e4bf612457cd0d"
          ],
          "data": "0x",
          "blockHash": "0xd43022015ee7535ceb4471366f03f33927219ab3b6cca5a8292aef3ce045e8ac",
          "blockNumber": "0x7c0bbe",
          "transactionHash": "0xd05ee7bc730b88199d836e880092ab22a7dabe4b64bbe11935e431071abae64e",
          "transactionIndex": "0x1",
          "logIndex": "0x0",
          "removed": false
        }
      ],
      "status": "0x1",
      "logsBloom": "0x00000000000000000000000000000000401000000000000400000000000000004000000000000000000000000000000000000000000000000080000000000000000000000000000000000000000002000000000000000000000000000000000000000000000000000000000000000000000000000000000000000000000000000000000000000000000000000000000000000000000000000000000000001020000000000000000000000000000000000000000000000000000000000000000000000020000000000000000000000000000000000000000000000000000000000000000000000000000000000000000000000000000000000000000000000000",
      "type": "0x2",
      "effectiveGasPrice": "0x5f5e100"
    },
    {
      "transactionHash": "0xb2fe903cff91c276bf33285122edd5ae23ce65d365eb7cad1e9628dafc647dce",
      "transactionIndex": "0x1",
      "blockHash": "0x67df37c4515a6341b968691c982aff3007ca7dc59316b011e70a9005b05e4b7a",
      "blockNumber": "0x7c0bc6",
      "from": "0x077A79ab65cAAbAa684f34Cc22aCa911742690E0",
      "to": "0x9E410000a10A32396C44f6bCdB228bBac4758F65",
      "cumulativeGasUsed": "0x931d",
      "gasUsed": "0x931d",
      "contractAddress": null,
      "logs": [
        {
          "address": "0x8ceD3df1c33b134F6e7190b3b9C8Af0BAFeA80Dd",
          "topics": [
            "0xbc7cd75a20ee27fd9adebab32041f755214dbc6bffa90cc0225b39da2e5c2d3b",
            "0x00000000000000000000000085564d6eba2da0d01d71071e05e4bf612457cd0d"
          ],
          "data": "0x",
          "blockHash": "0x67df37c4515a6341b968691c982aff3007ca7dc59316b011e70a9005b05e4b7a",
          "blockNumber": "0x7c0bc6",
          "transactionHash": "0xb2fe903cff91c276bf33285122edd5ae23ce65d365eb7cad1e9628dafc647dce",
          "transactionIndex": "0x1",
          "logIndex": "0x0",
          "removed": false
        }
      ],
      "status": "0x1",
      "logsBloom": "0x00000000000000000000200000000000400000000000000400000000000000004000000000000000000000000000000000000000000000000080000000000000000000000000000000000000000002000000000000000000000000000000000000000000000000000000000000000000000000000000000000000000000000000000000000000000000000200000000000000000000000000000000000000000000000000000000000000000000000000000000000000000000000000000000000000020000000000000000000000000000000000000000000000002000000000000000000000000000000000000000000000000000000000000000000000000",
      "type": "0x2",
      "effectiveGasPrice": "0x5f5e100"
    },
    {
      "transactionHash": "0x8a3121bc47db37751a320621f716eec3c5bd0870c537aff02b671400bfb6cbd2",
      "transactionIndex": "0x1",
      "blockHash": "0x04525f0d707901be93a1fd47645e24ed9c2af44504c02bcdae5d6506f9783447",
      "blockNumber": "0x7c0bc8",
      "from": "0x077A79ab65cAAbAa684f34Cc22aCa911742690E0",
      "to": "0xd7a9794eed0dA4F18A56A84FFE57E53262eae316",
      "cumulativeGasUsed": "0x8e30",
      "gasUsed": "0x8e30",
      "contractAddress": null,
      "logs": [
        {
          "address": "0xd7a9794eed0dA4F18A56A84FFE57E53262eae316",
          "topics": [
            "0xddf252ad1be2c89b69c2b068fc378daa952ba7f163c4a11628f55a4df523b3ef",
            "0x0000000000000000000000000000000000000000000000000000000000000000",
            "0x000000000000000000000000077a79ab65caabaa684f34cc22aca911742690e0"
          ],
          "data": "0x000000000000000000000000000000000000000000000016c60023adaf771c00",
          "blockHash": "0x04525f0d707901be93a1fd47645e24ed9c2af44504c02bcdae5d6506f9783447",
          "blockNumber": "0x7c0bc8",
          "transactionHash": "0x8a3121bc47db37751a320621f716eec3c5bd0870c537aff02b671400bfb6cbd2",
          "transactionIndex": "0x1",
          "logIndex": "0x0",
          "removed": false
        }
      ],
      "status": "0x1",
      "logsBloom": "0x00000000000000000000000000000000000000000000000000000000000000000000000000000000000000000000000000000000000000000000000000000000000800000000000000000008000000000000002000000000000000000000000000000000020000000000000000000800000000000000000000000010000000000000000000000000000000000000000000000000000000000020000000000000000000000000000000000000000000000000000200000000800000000000000000000002000000000000000000000000000000000000000000000000000020000000000000000000000000000000000000000008000000000000000000000000",
      "type": "0x2",
      "effectiveGasPrice": "0x5f5e100"
    },
    {
      "transactionHash": "0x70232d73b1a13a302833b39a73538accc83ab7283c56af6768fe8dd7ee116ac5",
      "transactionIndex": "0x2",
      "blockHash": "0x0ed250fd3e41bee5fd45c601b5650bb76ea517b7e970122fa4b67b68773aa4bd",
      "blockNumber": "0x7c0bd0",
      "from": "0x077A79ab65cAAbAa684f34Cc22aCa911742690E0",
      "to": "0x94132a5Da7192a0f0D85235b8921f3153F9D5E23",
      "cumulativeGasUsed": "0x503d7",
      "gasUsed": "0x3e437",
      "contractAddress": null,
      "logs": [
        {
          "address": "0xd7a9794eed0dA4F18A56A84FFE57E53262eae316",
          "topics": [
            "0xddf252ad1be2c89b69c2b068fc378daa952ba7f163c4a11628f55a4df523b3ef",
            "0x000000000000000000000000077a79ab65caabaa684f34cc22aca911742690e0",
            "0x0000000000000000000000000000000000000000000000000000000000000000"
          ],
          "data": "0x000000000000000000000000000000000000000000000016c60023adaf771c00",
          "blockHash": "0x0ed250fd3e41bee5fd45c601b5650bb76ea517b7e970122fa4b67b68773aa4bd",
          "blockNumber": "0x7c0bd0",
          "transactionHash": "0x70232d73b1a13a302833b39a73538accc83ab7283c56af6768fe8dd7ee116ac5",
          "transactionIndex": "0x2",
          "logIndex": "0x2",
          "removed": false
        },
        {
          "address": "0xceBD1a3E9aaD7E60eDD509809e7f9cFF449b7851",
          "topics": [
            "0xddf252ad1be2c89b69c2b068fc378daa952ba7f163c4a11628f55a4df523b3ef",
            "0x00000000000000000000000094132a5da7192a0f0d85235b8921f3153f9d5e23",
            "0x000000000000000000000000077a79ab65caabaa684f34cc22aca911742690e0"
          ],
          "data": "0x000000000000000000000000000000000000000000000000025b769343d0bf33",
          "blockHash": "0x0ed250fd3e41bee5fd45c601b5650bb76ea517b7e970122fa4b67b68773aa4bd",
          "blockNumber": "0x7c0bd0",
          "transactionHash": "0x70232d73b1a13a302833b39a73538accc83ab7283c56af6768fe8dd7ee116ac5",
          "transactionIndex": "0x2",
          "logIndex": "0x3",
          "removed": false
        },
        {
          "address": "0x94132a5Da7192a0f0D85235b8921f3153F9D5E23",
          "topics": [
            "0x639027de0b31595783caf0e0f3f582389fb1b77298da6a2eed289c7f0e51857e",
            "0x000000000000000000000000077a79ab65caabaa684f34cc22aca911742690e0",
            "0x5745544800000000000000000000000000000000000000000000000000000000"
          ],
          "data": "0x000000000000000000000000077a79ab65caabaa684f34cc22aca911742690e0000000000000000000000000000000000000000000000016c60023adaf771c00000000000000000000000000000000000000000000000000025b769343d0bf33",
          "blockHash": "0x0ed250fd3e41bee5fd45c601b5650bb76ea517b7e970122fa4b67b68773aa4bd",
          "blockNumber": "0x7c0bd0",
          "transactionHash": "0x70232d73b1a13a302833b39a73538accc83ab7283c56af6768fe8dd7ee116ac5",
          "transactionIndex": "0x2",
          "logIndex": "0x4",
          "removed": false
        }
      ],
      "status": "0x1",
      "logsBloom": "0x00000000000000000000000000000000000004000000000002000000000000000000000000000000000080000000000000000000000000000000001008000020000800000000000000000008000000000000002000000000000000000000000000000000120000000000000000001800000800000000000000000010000000000000020000000000000000000000000000000000000000000220000000200000000000000000000000000000000000000000000200004000800000000000000000000002000000000040000000000000000010000000000000000000000020000000000000000000000000000000000000000008000000000000000000000000",
      "type": "0x2",
      "effectiveGasPrice": "0x5f5e100"
    },
    {
      "transactionHash": "0xf5ae85f93921a9daf7148822a3de989b02db6390bb659a3a3bc6e12ff54533fe",
      "transactionIndex": "0x1",
      "blockHash": "0xeb73ddbf7f9c763b186bc8415fafcb3e648748205e0face47359e7ad9e6998b0",
      "blockNumber": "0x7c0bd9",
      "from": "0x077A79ab65cAAbAa684f34Cc22aCa911742690E0",
      "to": "0xd7a9794eed0dA4F18A56A84FFE57E53262eae316",
      "cumulativeGasUsed": "0x8e54",
      "gasUsed": "0x8e54",
      "contractAddress": null,
      "logs": [
        {
          "address": "0xd7a9794eed0dA4F18A56A84FFE57E53262eae316",
          "topics": [
            "0xddf252ad1be2c89b69c2b068fc378daa952ba7f163c4a11628f55a4df523b3ef",
            "0x0000000000000000000000000000000000000000000000000000000000000000",
            "0x000000000000000000000000077a79ab65caabaa684f34cc22aca911742690e0"
          ],
          "data": "0x000000000000000000000000000000000000000000013dec3ff412be3ec58000",
          "blockHash": "0xeb73ddbf7f9c763b186bc8415fafcb3e648748205e0face47359e7ad9e6998b0",
          "blockNumber": "0x7c0bd9",
          "transactionHash": "0xf5ae85f93921a9daf7148822a3de989b02db6390bb659a3a3bc6e12ff54533fe",
          "transactionIndex": "0x1",
          "logIndex": "0x0",
          "removed": false
        }
      ],
      "status": "0x1",
      "logsBloom": "0x00000000000000000000000000000000000000000000000000000000000000000000000000000000000000000000000000000000000000000000000000000000000800000000000000000008000000000000002000000000000000000000000000000000020000000000000000000800000000000000000000000010000000000000000000000000000000000000000000000000000000000020000000000000000000000000000000000000000000000000000200000000800000000000000000000002000000000000000000000000000000000000000000000000000020000000000000000000000000000000000000000008000000000000000000000000",
      "type": "0x2",
      "effectiveGasPrice": "0x5f5e100"
    },
    {
      "transactionHash": "0x96681ec9378a97a14bbb430c91cabd882a33d08dd59ed057a4263ab80399fbd7",
      "transactionIndex": "0x1",
      "blockHash": "0x89d9fc443f7abee6bc7c76aab2d40c207cb7047147e18a8458b6b80b350d0a83",
      "blockNumber": "0x7c0bde",
      "from": "0x077A79ab65cAAbAa684f34Cc22aCa911742690E0",
      "to": "0x94132a5Da7192a0f0D85235b8921f3153F9D5E23",
      "cumulativeGasUsed": "0x34fa2",
      "gasUsed": "0x34fa2",
      "contractAddress": null,
      "logs": [
        {
          "address": "0xd7a9794eed0dA4F18A56A84FFE57E53262eae316",
          "topics": [
            "0xddf252ad1be2c89b69c2b068fc378daa952ba7f163c4a11628f55a4df523b3ef",
            "0x000000000000000000000000077a79ab65caabaa684f34cc22aca911742690e0",
            "0x0000000000000000000000000000000000000000000000000000000000000000"
          ],
          "data": "0x000000000000000000000000000000000000000000013dec3ff412be3ec58000",
          "blockHash": "0x89d9fc443f7abee6bc7c76aab2d40c207cb7047147e18a8458b6b80b350d0a83",
          "blockNumber": "0x7c0bde",
          "transactionHash": "0x96681ec9378a97a14bbb430c91cabd882a33d08dd59ed057a4263ab80399fbd7",
          "transactionIndex": "0x1",
          "logIndex": "0x0",
          "removed": false
        },
        {
          "address": "0x39E618D761fdD06bF65065d2974128aAeC7b3Fed",
          "topics": [
            "0xddf252ad1be2c89b69c2b068fc378daa952ba7f163c4a11628f55a4df523b3ef",
            "0x00000000000000000000000094132a5da7192a0f0d85235b8921f3153f9d5e23",
            "0x000000000000000000000000077a79ab65caabaa684f34cc22aca911742690e0"
          ],
          "data": "0x0000000000000000000000000000000000000000000000000000015d3ef79800",
          "blockHash": "0x89d9fc443f7abee6bc7c76aab2d40c207cb7047147e18a8458b6b80b350d0a83",
          "blockNumber": "0x7c0bde",
          "transactionHash": "0x96681ec9378a97a14bbb430c91cabd882a33d08dd59ed057a4263ab80399fbd7",
          "transactionIndex": "0x1",
          "logIndex": "0x1",
          "removed": false
        },
        {
          "address": "0x94132a5Da7192a0f0D85235b8921f3153F9D5E23",
          "topics": [
            "0x639027de0b31595783caf0e0f3f582389fb1b77298da6a2eed289c7f0e51857e",
            "0x000000000000000000000000077a79ab65caabaa684f34cc22aca911742690e0",
            "0x5553444300000000000000000000000000000000000000000000000000000000"
          ],
          "data": "0x000000000000000000000000077a79ab65caabaa684f34cc22aca911742690e0000000000000000000000000000000000000000000013dec3ff412be3ec580000000000000000000000000000000000000000000000000000000015d3ef79800",
          "blockHash": "0x89d9fc443f7abee6bc7c76aab2d40c207cb7047147e18a8458b6b80b350d0a83",
          "blockNumber": "0x7c0bde",
          "transactionHash": "0x96681ec9378a97a14bbb430c91cabd882a33d08dd59ed057a4263ab80399fbd7",
          "transactionIndex": "0x1",
          "logIndex": "0x2",
          "removed": false
        }
      ],
      "status": "0x1",
      "logsBloom": "0x00000000000000000000000000000000000004000000000000000000000000000000000000000000001000000000000000020000000000000000000008000020000800000000000000000008000000000000002000004000000000000000000000000000020000000000000000001800000800000000000000000010000000000000020000000000000000000000000000000008000000000220000000000000000000000000000000000000000000000000000200004000800000000000000010000202000000000040000000000000000000000000000000000000000020000000000000000000000000000000000000000008000000000000000000000000",
      "type": "0x2",
      "effectiveGasPrice": "0x5f5e100"
    },
    {
      "transactionHash": "0x1b79bc6266c5a59ac42d4790dc3cf38f7a70a7b7cfd87e1040875f1af38d3184",
      "transactionIndex": "0x1",
      "blockHash": "0x3d2d46a0867061b9c7b87f6c3640cf3c781deebc4e9f6eda03d854b15e577744",
      "blockNumber": "0x7c0be3",
      "from": "0x077A79ab65cAAbAa684f34Cc22aCa911742690E0",
      "to": "0xd7a9794eed0dA4F18A56A84FFE57E53262eae316",
      "cumulativeGasUsed": "0x8e60",
      "gasUsed": "0x8e60",
      "contractAddress": null,
      "logs": [
        {
          "address": "0xd7a9794eed0dA4F18A56A84FFE57E53262eae316",
          "topics": [
            "0xddf252ad1be2c89b69c2b068fc378daa952ba7f163c4a11628f55a4df523b3ef",
            "0x0000000000000000000000000000000000000000000000000000000000000000",
            "0x000000000000000000000000077a79ab65caabaa684f34cc22aca911742690e0"
          ],
          "data": "0x0000000000000000000000000000000000000000c7a7ad3e741ea16e56f71800",
          "blockHash": "0x3d2d46a0867061b9c7b87f6c3640cf3c781deebc4e9f6eda03d854b15e577744",
          "blockNumber": "0x7c0be3",
          "transactionHash": "0x1b79bc6266c5a59ac42d4790dc3cf38f7a70a7b7cfd87e1040875f1af38d3184",
          "transactionIndex": "0x1",
          "logIndex": "0x0",
          "removed": false
        }
      ],
      "status": "0x1",
      "logsBloom": "0x00000000000000000000000000000000000000000000000000000000000000000000000000000000000000000000000000000000000000000000000000000000000800000000000000000008000000000000002000000000000000000000000000000000020000000000000000000800000000000000000000000010000000000000000000000000000000000000000000000000000000000020000000000000000000000000000000000000000000000000000200000000800000000000000000000002000000000000000000000000000000000000000000000000000020000000000000000000000000000000000000000008000000000000000000000000",
      "type": "0x2",
      "effectiveGasPrice": "0x5f5e100"
    },
    {
      "transactionHash": "0x8ac933c6b5d0b2b7b802e7a8a8e73173fcca5f586f41cd7a8f03075464966953",
      "transactionIndex": "0x1",
      "blockHash": "0x95159fe2de3f60b0802942cde0862b08f2d579d752cee3df2c66a2aaf2c1d8a4",
      "blockNumber": "0x7c0be8",
      "from": "0x077A79ab65cAAbAa684f34Cc22aCa911742690E0",
      "to": "0x94132a5Da7192a0f0D85235b8921f3153F9D5E23",
      "cumulativeGasUsed": "0x3626e",
      "gasUsed": "0x3626e",
      "contractAddress": null,
      "logs": [
        {
          "address": "0xd7a9794eed0dA4F18A56A84FFE57E53262eae316",
          "topics": [
            "0xddf252ad1be2c89b69c2b068fc378daa952ba7f163c4a11628f55a4df523b3ef",
            "0x000000000000000000000000077a79ab65caabaa684f34cc22aca911742690e0",
            "0x0000000000000000000000000000000000000000000000000000000000000000"
          ],
          "data": "0x0000000000000000000000000000000000000000c7a7ad3e741ea16e56f71800",
          "blockHash": "0x95159fe2de3f60b0802942cde0862b08f2d579d752cee3df2c66a2aaf2c1d8a4",
          "blockNumber": "0x7c0be8",
          "transactionHash": "0x8ac933c6b5d0b2b7b802e7a8a8e73173fcca5f586f41cd7a8f03075464966953",
          "transactionIndex": "0x1",
          "logIndex": "0x0",
          "removed": false
        },
        {
          "address": "0x4Ac0ED77C4375D48B51D56cc49b7710c3640b9c2",
          "topics": [
            "0xddf252ad1be2c89b69c2b068fc378daa952ba7f163c4a11628f55a4df523b3ef",
            "0x00000000000000000000000094132a5da7192a0f0d85235b8921f3153f9d5e23",
            "0x000000000000000000000000077a79ab65caabaa684f34cc22aca911742690e0"
          ],
          "data": "0x00000000000000000000000000000000000000000000000000008862c6bc2d4c",
          "blockHash": "0x95159fe2de3f60b0802942cde0862b08f2d579d752cee3df2c66a2aaf2c1d8a4",
          "blockNumber": "0x7c0be8",
          "transactionHash": "0x8ac933c6b5d0b2b7b802e7a8a8e73173fcca5f586f41cd7a8f03075464966953",
          "transactionIndex": "0x1",
          "logIndex": "0x1",
          "removed": false
        },
        {
          "address": "0x94132a5Da7192a0f0D85235b8921f3153F9D5E23",
          "topics": [
            "0x639027de0b31595783caf0e0f3f582389fb1b77298da6a2eed289c7f0e51857e",
            "0x000000000000000000000000077a79ab65caabaa684f34cc22aca911742690e0",
            "0x5742544300000000000000000000000000000000000000000000000000000000"
          ],
          "data": "0x000000000000000000000000077a79ab65caabaa684f34cc22aca911742690e00000000000000000000000000000000000000000c7a7ad3e741ea16e56f7180000000000000000000000000000000000000000000000000000008862c6bc2d4c",
          "blockHash": "0x95159fe2de3f60b0802942cde0862b08f2d579d752cee3df2c66a2aaf2c1d8a4",
          "blockNumber": "0x7c0be8",
          "transactionHash": "0x8ac933c6b5d0b2b7b802e7a8a8e73173fcca5f586f41cd7a8f03075464966953",
          "transactionIndex": "0x1",
          "logIndex": "0x2",
          "removed": false
        }
      ],
      "status": "0x1",
      "logsBloom": "0x00000000000000000000000000000000000004000000000000000000000000000000004000000000000000000000000000000000000000000000000008000020000800000000000000000008000000000000002000000000000000000000000000000000020010000000000000001800000800004000000000200010000000000000020000000000010000000000000000000000000000002220000000000000000000000000000000000000000000000000000200004000800000000000000000000002000000000040000000000000000000000000000000000000000020000000000000000000000000000000000000000008000000000000000000000000",
      "type": "0x2",
      "effectiveGasPrice": "0x5f5e100"
    },
    {
      "transactionHash": "0xad925ac6ae5d8de9efd7edd293c63b16d4a8ce625a24aaab4fe6fb25947a6e44",
      "transactionIndex": "0x1",
      "blockHash": "0xc2c4f113c975086268fe851796e0840c85f89bb29ed74f13673f7bd3d03ab7bb",
      "blockNumber": "0x7c0bef",
      "from": "0x077A79ab65cAAbAa684f34Cc22aCa911742690E0",
      "to": "0xd7a9794eed0dA4F18A56A84FFE57E53262eae316",
      "cumulativeGasUsed": "0x8e48",
      "gasUsed": "0x8e48",
      "contractAddress": null,
      "logs": [
        {
          "address": "0xd7a9794eed0dA4F18A56A84FFE57E53262eae316",
          "topics": [
            "0xddf252ad1be2c89b69c2b068fc378daa952ba7f163c4a11628f55a4df523b3ef",
            "0x0000000000000000000000000000000000000000000000000000000000000000",
            "0x000000000000000000000000077a79ab65caabaa684f34cc22aca911742690e0"
          ],
          "data": "0x00000000000000000000000000000000000000000013002ab58935980f20a400",
          "blockHash": "0xc2c4f113c975086268fe851796e0840c85f89bb29ed74f13673f7bd3d03ab7bb",
          "blockNumber": "0x7c0bef",
          "transactionHash": "0xad925ac6ae5d8de9efd7edd293c63b16d4a8ce625a24aaab4fe6fb25947a6e44",
          "transactionIndex": "0x1",
          "logIndex": "0x0",
          "removed": false
        }
      ],
      "status": "0x1",
      "logsBloom": "0x00000000000000000000000000000000000000000000000000000000000000000000000000000000000000000000000000000000000000000000000000000000000800000000000000000008000000000000002000000000000000000000000000000000020000000000000000000800000000000000000000000010000000000000000000000000000000000000000000000000000000000020000000000000000000000000000000000000000000000000000200000000800000000000000000000002000000000000000000000000000000000000000000000000000020000000000000000000000000000000000000000008000000000000000000000000",
      "type": "0x2",
      "effectiveGasPrice": "0x5f5e100"
    },
    {
      "transactionHash": "0x1517116b580240a7a0bd15add46406ec4478ac32caab196ba6605d58b411d099",
      "transactionIndex": "0x1",
      "blockHash": "0x8e7b86765abbff12a1931798dc6b7b1fd5e05653efbcc862d2233f292ef6ab6f",
      "blockNumber": "0x7c0bf6",
      "from": "0x077A79ab65cAAbAa684f34Cc22aCa911742690E0",
      "to": "0x94132a5Da7192a0f0D85235b8921f3153F9D5E23",
      "cumulativeGasUsed": "0x3627a",
      "gasUsed": "0x3627a",
      "contractAddress": null,
      "logs": [
        {
          "address": "0xd7a9794eed0dA4F18A56A84FFE57E53262eae316",
          "topics": [
            "0xddf252ad1be2c89b69c2b068fc378daa952ba7f163c4a11628f55a4df523b3ef",
            "0x000000000000000000000000077a79ab65caabaa684f34cc22aca911742690e0",
            "0x0000000000000000000000000000000000000000000000000000000000000000"
          ],
          "data": "0x00000000000000000000000000000000000000000013002ab58935980f20a400",
          "blockHash": "0x8e7b86765abbff12a1931798dc6b7b1fd5e05653efbcc862d2233f292ef6ab6f",
          "blockNumber": "0x7c0bf6",
          "transactionHash": "0x1517116b580240a7a0bd15add46406ec4478ac32caab196ba6605d58b411d099",
          "transactionIndex": "0x1",
          "logIndex": "0x0",
          "removed": false
        },
        {
          "address": "0xaB7A6599C1804443C04c998D2be87Dc00A8c07bA",
          "topics": [
            "0xddf252ad1be2c89b69c2b068fc378daa952ba7f163c4a11628f55a4df523b3ef",
            "0x00000000000000000000000094132a5da7192a0f0d85235b8921f3153f9d5e23",
            "0x000000000000000000000000077a79ab65caabaa684f34cc22aca911742690e0"
          ],
          "data": "0x000000000000000000000000000000000000000000013e722bd6c0204ad729cb",
          "blockHash": "0x8e7b86765abbff12a1931798dc6b7b1fd5e05653efbcc862d2233f292ef6ab6f",
          "blockNumber": "0x7c0bf6",
          "transactionHash": "0x1517116b580240a7a0bd15add46406ec4478ac32caab196ba6605d58b411d099",
          "transactionIndex": "0x1",
          "logIndex": "0x1",
          "removed": false
        },
        {
          "address": "0x94132a5Da7192a0f0D85235b8921f3153F9D5E23",
          "topics": [
            "0x639027de0b31595783caf0e0f3f582389fb1b77298da6a2eed289c7f0e51857e",
            "0x000000000000000000000000077a79ab65caabaa684f34cc22aca911742690e0",
            "0x4c494e4b00000000000000000000000000000000000000000000000000000000"
          ],
          "data": "0x000000000000000000000000077a79ab65caabaa684f34cc22aca911742690e000000000000000000000000000000000000000000013002ab58935980f20a400000000000000000000000000000000000000000000013e722bd6c0204ad729cb",
          "blockHash": "0x8e7b86765abbff12a1931798dc6b7b1fd5e05653efbcc862d2233f292ef6ab6f",
          "blockNumber": "0x7c0bf6",
          "transactionHash": "0x1517116b580240a7a0bd15add46406ec4478ac32caab196ba6605d58b411d099",
          "transactionIndex": "0x1",
          "logIndex": "0x2",
          "removed": false
        }
      ],
      "status": "0x1",
      "logsBloom": "0x000000000000000000000000000000000000040000000000000000000000000800000000000000000000000000000000000000000000000000000000080000200008000000000000000000080000000000000020000000000000000000000000000000000200000000000000000018000008000000000000000000100000000000000200080000000000000000040000000000000000000002200000000000000000000000000002000000000000000000000002000040008000000000000000000000020000000000400000000000000000000000000000000000000000a0000000000000000000000000000000000000002008000000000000000000000000",
      "type": "0x2",
      "effectiveGasPrice": "0x5f5e100"
    }
  ],
  "libraries": [],
  "pending": [],
  "returns": {},
  "timestamp": 1705657169,
  "chain": 421614,
  "multi": false,
  "commit": "1be3f1a"
}