{
  "transactions": [
    {
      "hash": "0xc9aae1fed216fc2a476103235c4b27e0478a637e306e54e65518acd25927623e",
      "transactionType": "CREATE",
      "contractName": "Vault",
      "contractAddress": "0x0Cb416AcF949A44012Deb71965DF4dfFF20bE345",
      "function": null,
      "arguments": null,
      "transaction": {
        "type": "0x02",
        "from": "0x077a79ab65caabaa684f34cc22aca911742690e0",
        "gas": "0xd5643e",
        "value": "0x0",
        "data": "0x60806040526008805460ff60a01b1916905534801561001d57600080fd5b506000805460ff191681553381526001602081905260409091208190556002556142408061004c6000396000f3fe608060405234801561001057600080fd5b50600436106102415760003560e01c80639fda5b6611610145578063ca9335f2116100bd578063e6e2307b1161008c578063edcc99ee11610071578063edcc99ee14610519578063f2f4eb261461055e578063f48630ab1461057e57600080fd5b8063e6e2307b146104fe578063ebecb39d1461050657600080fd5b8063ca9335f2146104bd578063d4c3eea0146104d0578063d4e8be83146104d8578063d510be41146104eb57600080fd5b8063a4d3444c11610114578063ba423c88116100f9578063ba423c8814610484578063bf92942514610497578063c4d66de8146104aa57600080fd5b8063a4d3444c1461045e578063aec67f5c1461047157600080fd5b80639fda5b661461038d578063a035b1fe14610430578063a0b4b30114610438578063a28b9c0f1461044b57600080fd5b8063408a8027116101d85780638456cb59116101a757806399538f4b1161018c57806399538f4b1461035e5780639c52a7f1146103675780639e49590c1461037a57600080fd5b80638456cb5914610343578063967b90281461034b57600080fd5b8063408a8027146102e857806343c885ba146102f05780635c975abb1461032557806365fae35e1461033057600080fd5b80631ed5239c116102145780631ed5239c146102a75780632040178f146102ba57806329ae8114146102cd5780633f4ba83a146102e057600080fd5b80630499123f146102465780630cba51821461026c5780630d34b71d146102815780631a0b287e14610294575b600080fd5b610259610254366004613822565b610591565b6040519081526020015b60405180910390f35b61027f61027a36600461383b565b6105bd565b005b61025961028f36600461387f565b610878565b61027f6102a23660046138bc565b610b8f565b6102596102b536600461387f565b610db0565b6102596102c836600461387f565b6110c2565b61027f6102db36600461383b565b6111b6565b61027f6112a2565b610259611326565b6008546103159074010000000000000000000000000000000000000000900460ff1681565b6040519015158152602001610263565b60005460ff16610315565b61027f61033e3660046138e8565b611464565b61027f611532565b61027f610359366004613905565b6115b4565b61025960095481565b61027f6103753660046138e8565b6116fa565b61025961038836600461383b565b6117c5565b6103ea61039b366004613822565b600560208190526000918252604090912080546001820154600283015460038401546004850154949095015492949193909273ffffffffffffffffffffffffffffffffffffffff918216911686565b60408051968752602087019590955293850192909252606084015273ffffffffffffffffffffffffffffffffffffffff90811660808401521660a082015260c001610263565b6102596118b2565b610259610446366004613822565b611970565b61025961045936600461387f565b611991565b61027f61046c366004613ade565b611c3e565b61027f61047f36600461383b565b611dab565b610259610492366004613822565b611fc8565b6102596104a5366004613822565b6120ed565b61027f6104b83660046138e8565b6121e2565b6102596104cb36600461383b565b6123c2565b61025961246a565b61027f6104e6366004613b97565b612718565b6102596104f9366004613822565b612933565b600354610259565b61027f610514366004613bc7565b612940565b6008546105399073ffffffffffffffffffffffffffffffffffffffff1681565b60405173ffffffffffffffffffffffffffffffffffffffff9091168152602001610263565b6007546105399073ffffffffffffffffffffffffffffffffffffffff1681565b61025961058c366004613822565b612b4b565b60008061059d836120ed565b90506000816105ab85612b4b565b6105b59190613c2f565b949350505050565b336000908152600160208190526040909120541461063c576040517f08c379a000000000000000000000000000000000000000000000000000000000815260206004820152601360248201527f417574682f6e6f742d617574686f72697a65640000000000000000000000000060448201526064015b60405180910390fd5b610644612d29565b60065473ffffffffffffffffffffffffffffffffffffffff166106c3576040517f08c379a000000000000000000000000000000000000000000000000000000000815260206004820152601260248201527f5661756c742f66756e64206973207a65726f00000000000000000000000000006044820152606401610633565b6106cc82611fc8565b811115610735576040517f08c379a000000000000000000000000000000000000000000000000000000000815260206004820152601c60248201527f5661756c742f696e76696c6964206465706f73697420616d6f756e74000000006044820152606401610633565b6000828152600560205260409020600481015460065473ffffffffffffffffffffffffffffffffffffffff918216916107719183911685612d6a565b6006546004838101546040517f47e7ef2400000000000000000000000000000000000000000000000000000000815273ffffffffffffffffffffffffffffffffffffffff918216928101929092526024820186905260009216906347e7ef24906044016020604051808303816000875af11580156107f3573d6000803e3d6000fd5b505050506040513d601f19601f820116820180604052508101906108179190613c46565b90508083600301600082825461082d9190613c5f565b909155505060405184815285907fc83dd68d72d0a827986cc1153b60cc28a906ee30f22a23613d5a97dbafc1bed59060200160405180910390a25050506108746001600255565b5050565b6000610882612e8b565b61088a612d29565b600085815260056020818152604092839020835160c08101855281548152600182015492810183905260028201549481019490945260038101546060850152600481015473ffffffffffffffffffffffffffffffffffffffff908116608086015292015490911660a083015261095c576040517f08c379a000000000000000000000000000000000000000000000000000000000815260206004820152601c60248201527f5661756c742f6173736574206e6f7420696e2077686974656c697374000000006044820152606401610633565b600061096787612b4b565b61096f611326565b6109799086613c2f565b6109839190613c72565b9050600081116109ef576040517f08c379a000000000000000000000000000000000000000000000000000000000815260206004820152601b60248201527f5661756c742f6f757420616d6f756e7420697320696e76616c696400000000006044820152606401610633565b60006109fb88836117c5565b9050610a078183613c5f565b915085821115610a73576040517f08c379a000000000000000000000000000000000000000000000000000000000815260206004820152601a60248201527f5661756c742f616d6f756e7420696e206e6f7420656e6f7567680000000000006044820152606401610633565b6080830151610a9a9073ffffffffffffffffffffffffffffffffffffffff16333085612ec8565b6007546040517f40c10f1900000000000000000000000000000000000000000000000000000000815273ffffffffffffffffffffffffffffffffffffffff898116600483015260248201889052909116906340c10f1990604401600060405180830381600087803b158015610b0e57600080fd5b505af1158015610b22573d6000803e3d6000fd5b50506040805173ffffffffffffffffffffffffffffffffffffffff8b168152602081018690529081018890528a92503391507f7309ef3b726eaaa68f8c2718c3792a5573fc273c7a8a7f2daa65dc739b8459529060600160405180910390a3509150506105b56001600255565b3360009081526001602081905260409091205414610c09576040517f08c379a000000000000000000000000000000000000000000000000000000000815260206004820152601360248201527f417574682f6e6f742d617574686f72697a6564000000000000000000000000006044820152606401610633565b610c11612e8b565b817f6d6178000000000000000000000000000000000000000000000000000000000003610c51576000838152600560205260409020600101819055610d70565b817f6d696e000000000000000000000000000000000000000000000000000000000003610c8e576000838152600560205260409020819055610d70565b817f6f7574000000000000000000000000000000000000000000000000000000000003610cce576000838152600560205260409020600101819055610d70565b817f696e76000000000000000000000000000000000000000000000000000000000003610d0e576000838152600560205260409020600101819055610d70565b6040517f08c379a000000000000000000000000000000000000000000000000000000000815260206004820152601d60248201527f5661756c742f66696c652d756e7265636f676e697a65642d706172616d0000006044820152606401610633565b81837fa067509ec87ecd55bd872477a1d1e9646562214b268981fd83507a15ce09b62b83604051610da391815260200190565b60405180910390a3505050565b6000610dba612e8b565b610dc2612d29565b600085815260056020818152604092839020835160c08101855281548152600182015492810183905260028201549481019490945260038101546060850152600481015473ffffffffffffffffffffffffffffffffffffffff908116608086015292015490911660a0830152610e94576040517f08c379a000000000000000000000000000000000000000000000000000000000815260206004820152601c60248201527f5661756c742f6173736574206e6f7420696e2077686974656c697374000000006044820152606401610633565b6000610ea087856123c2565b90506000610eac611326565b610eb68387613c5f565b610ebf8a612b4b565b610ec99190613c2f565b610ed39190613c72565b905060008111610f3f576040517f08c379a000000000000000000000000000000000000000000000000000000000815260206004820152601b60248201527f5661756c742f6f757420616d6f756e7420697320696e76616c696400000000006044820152606401610633565b85811115610fa9576040517f08c379a000000000000000000000000000000000000000000000000000000000815260206004820152601d60248201527f5661756c742f616d6f756e7420696e206973206e6f7420656e6f7567680000006044820152606401610633565b6007546040517f9dc29fac0000000000000000000000000000000000000000000000000000000081523360048201526024810183905273ffffffffffffffffffffffffffffffffffffffff90911690639dc29fac90604401600060405180830381600087803b15801561101b57600080fd5b505af115801561102f573d6000803e3d6000fd5b5050506080840151611059915073ffffffffffffffffffffffffffffffffffffffff168887612f0e565b6040805173ffffffffffffffffffffffffffffffffffffffff8916815260208101839052908101869052889033907f639027de0b31595783caf0e0f3f582389fb1b77298da6a2eed289c7f0e51857e9060600160405180910390a3925050506105b56001600255565b60006110cc612e8b565b6110d4612d29565b60006110e38686866001612f51565b90508281101561114f576040517f08c379a000000000000000000000000000000000000000000000000000000000815260206004820152601d60248201527f5661756c742f616d6f756e74206f757420697320746f6f206c617267650000006044820152606401610633565b6040805173ffffffffffffffffffffffffffffffffffffffff8716815260208101869052908101829052869033907f7309ef3b726eaaa68f8c2718c3792a5573fc273c7a8a7f2daa65dc739b8459529060600160405180910390a390506105b56001600255565b3360009081526001602081905260409091205414611230576040517f08c379a000000000000000000000000000000000000000000000000000000000815260206004820152601360248201527f417574682f6e6f742d617574686f72697a6564000000000000000000000000006044820152606401610633565b611238612e8b565b817f666565000000000000000000000000000000000000000000000000000000000003610d0e576009819055817f078705fd406be5cbbc0dae219974006d7114e6884e0bf9cae84e0603e4b6df6c8260405161129691815260200190565b60405180910390a25050565b336000908152600160208190526040909120541461131c576040517f08c379a000000000000000000000000000000000000000000000000000000000815260206004820152601360248201527f417574682f6e6f742d617574686f72697a6564000000000000000000000000006044820152606401610633565b611324613129565b565b60085460009073ffffffffffffffffffffffffffffffffffffffff1661134f5750633b9aca0090565b600854604080517ffeaf968c000000000000000000000000000000000000000000000000000000008152905160009273ffffffffffffffffffffffffffffffffffffffff169163feaf968c9160048083019260a09291908290030181865afa1580156113bf573d6000803e3d6000fd5b505050506040513d601f19601f820116820180604052508101906113e39190613ccc565b50505091505060008113611453576040517f08c379a000000000000000000000000000000000000000000000000000000000815260206004820152601860248201527f5661756c742f696e76616c696420636f726520707269636500000000000000006044820152606401610633565b61145e81600a613c2f565b91505090565b33600090815260016020819052604090912054146114de576040517f08c379a000000000000000000000000000000000000000000000000000000000815260206004820152601360248201527f417574682f6e6f742d617574686f72697a6564000000000000000000000000006044820152606401610633565b73ffffffffffffffffffffffffffffffffffffffff8116600081815260016020819052604080832091909155517fdd0e34038ac38b2a1ce960229778ac48a8719bc900b6c4f8d0475c6e8b385a609190a250565b33600090815260016020819052604090912054146115ac576040517f08c379a000000000000000000000000000000000000000000000000000000000815260206004820152601360248201527f417574682f6e6f742d617574686f72697a6564000000000000000000000000006044820152606401610633565b6113246131a6565b336000908152600160208190526040909120541461162e576040517f08c379a000000000000000000000000000000000000000000000000000000000815260206004820152601360248201527f417574682f6e6f742d617574686f72697a6564000000000000000000000000006044820152606401610633565b60005b838110156116b65782828281811061164b5761164b613d1c565b905060c002016005600087878581811061166757611667613d1c565b90506020020135815260200190815260200160002081816116889190613d4b565b9050506116ae8585838181106116a0576116a0613d1c565b905060200201356000613201565b600101611631565b507f33d6fbd12e1a5f9d585daa03cb33f97dc7b60f812b1258f0e8c52b8c143a9c48848484846040516116ec9493929190613e13565b60405180910390a150505050565b3360009081526001602081905260409091205414611774576040517f08c379a000000000000000000000000000000000000000000000000000000000815260206004820152601360248201527f417574682f6e6f742d617574686f72697a6564000000000000000000000000006044820152606401610633565b73ffffffffffffffffffffffffffffffffffffffff8116600081815260016020526040808220829055517f184450df2e323acec0ed3b5c7531b81f9b4cdef7914dfd4c0a4317416bb5251b9190a250565b6000806117d2848461341b565b600085815260056020818152604092839020835160c08101855281548152600182015492810183905260028201549481019490945260038101546060850152600481015473ffffffffffffffffffffffffffffffffffffffff908116608086015292015490911660a0830152919250908211611853576000925050506118ac565b60008160200151836118659190613f01565b9050670de0b6b3a7640000600954670de0b6b3a764000087846118889190613c2f565b6118929190613c72565b61189c9190613c2f565b6118a69190613c72565b93505050505b92915050565b600754604080517f18160ddd000000000000000000000000000000000000000000000000000000008152905160009273ffffffffffffffffffffffffffffffffffffffff16916318160ddd9160048083019260209291908290030181865afa158015611922573d6000803e3d6000fd5b505050506040513d601f19601f820116820180604052508101906119469190613c46565b670de0b6b3a764000061195761246a565b6119619190613c2f565b61196b9190613c72565b905090565b6003818154811061198057600080fd5b600091825260209091200154905081565b600061199b612e8b565b6119a3612d29565b600085815260056020818152604092839020835160c08101855281548152600182015492810183905260028201549481019490945260038101546060850152600481015473ffffffffffffffffffffffffffffffffffffffff908116608086015292015490911660a0830152611a75576040517f08c379a000000000000000000000000000000000000000000000000000000000815260206004820152601c60248201527f5661756c742f6173736574206e6f7420696e2077686974656c697374000000006044820152606401610633565b6007546040517f9dc29fac0000000000000000000000000000000000000000000000000000000081523360048201526024810186905273ffffffffffffffffffffffffffffffffffffffff90911690639dc29fac90604401600060405180830381600087803b158015611ae757600080fd5b505af1158015611afb573d6000803e3d6000fd5b505050506000611b0a87612b4b565b85611b13611326565b611b1d9190613c2f565b611b279190613c72565b90506000611b3588836123c2565b9050611b418183613f01565b915084821015611bad576040517f08c379a000000000000000000000000000000000000000000000000000000000815260206004820152601d60248201527f5661756c742f616d6f756e74206f757420697320746f6f206c617267650000006044820152606401610633565b6080830151611bd373ffffffffffffffffffffffffffffffffffffffff82168985612f0e565b6040805173ffffffffffffffffffffffffffffffffffffffff8a16815260208101899052908101849052899033907f639027de0b31595783caf0e0f3f582389fb1b77298da6a2eed289c7f0e51857e9060600160405180910390a35090925050506105b56001600255565b3360009081526001602081905260409091205414611cb8576040517f08c379a000000000000000000000000000000000000000000000000000000000815260206004820152601360248201527f417574682f6e6f742d617574686f72697a6564000000000000000000000000006044820152606401610633565b60085474010000000000000000000000000000000000000000900460ff1661087457600880547fffffffffffffffffffffff00ffffffffffffffffffffffffffffffffffffffff167401000000000000000000000000000000000000000017905560005b8251811015611d6d57611d64838281518110611d3a57611d3a613d1c565b602002602001015133848481518110611d5557611d55613d1c565b60200260200101516000612f51565b50600101611d1c565b507fa3a76e531f40d7de332640fb9ce54625a6582d7f8fd087476f61557fd77f6fcb8282604051611d9f929190613f14565b60405180910390a15050565b3360009081526001602081905260409091205414611e25576040517f08c379a000000000000000000000000000000000000000000000000000000000815260206004820152601360248201527f417574682f6e6f742d617574686f72697a6564000000000000000000000000006044820152606401610633565b611e2d612d29565b60065473ffffffffffffffffffffffffffffffffffffffff16611eac576040517f08c379a000000000000000000000000000000000000000000000000000000000815260206004820152601260248201527f5661756c742f66756e64206973207a65726f00000000000000000000000000006044820152606401610633565b60008281526005602052604080822060065460048083015493517ff3fef3a300000000000000000000000000000000000000000000000000000000815273ffffffffffffffffffffffffffffffffffffffff9485169181019190915260248101869052919392169063f3fef3a3906044016020604051808303816000875af1158015611f3c573d6000803e3d6000fd5b505050506040513d601f19601f82011682018060405250810190611f609190613c46565b90508160030154811115611f7a5760006003830155611f82565b600060038301555b837fa3b20715ecbfc0df1fd9080734769d9acd91e86de1cbd3625392170cdcfd6f1484604051611fb491815260200190565b60405180910390a250506108746001600255565b6000818152600560208181526040808420815160c0810183528154815260018201549381019390935260028101548383015260038101546060840181905260048083015473ffffffffffffffffffffffffffffffffffffffff90811660808701819052939096015490951660a085015291517f70a082310000000000000000000000000000000000000000000000000000000081523094810194909452919284919083906370a0823190602401602060405180830381865afa158015612092573d6000803e3d6000fd5b505050506040513d601f19601f820116820180604052508101906120b69190613c46565b6120c09190613c5f565b60408401519091506120da670de0b6b3a764000083613c2f565b6120e49190613c72565b95945050505050565b6000818152600560208181526040808420815160c0810183528154815260018201549381019390935260028101548383015260038101546060840181905260048083015473ffffffffffffffffffffffffffffffffffffffff90811660808701819052939096015490951660a085015291517f70a082310000000000000000000000000000000000000000000000000000000081523094810194909452919282906370a0823190602401602060405180830381865afa1580156121b4573d6000803e3d6000fd5b505050506040513d601f19601f820116820180604052508101906121d89190613c46565b6105b59190613c5f565b7ff0c57e16840df040f15088dc2f81fe391c3923bec73e23a9662efc9c229c6a00805468010000000000000000810460ff16159067ffffffffffffffff1660008115801561222d5750825b905060008267ffffffffffffffff16600114801561224a5750303b155b905081158015612258575080155b1561228f576040517ff92ee8a900000000000000000000000000000000000000000000000000000000815260040160405180910390fd5b84547fffffffffffffffffffffffffffffffffffffffffffffffff000000000000000016600117855583156122f05784547fffffffffffffffffffffffffffffffffffffffffffffff00ffffffffffffffff16680100000000000000001785555b33600090815260016020819052604090912055600780547fffffffffffffffffffffffff00000000000000000000000000000000000000001673ffffffffffffffffffffffffffffffffffffffff8816179055612356600a670de0b6b3a7640000613c72565b60095583156123ba5784547fffffffffffffffffffffffffffffffffffffffffffffff00ffffffffffffffff168555604051600181527fc7f505b2f371ae2175ee4913f4499e1f2633a7b5936321eed1cdaeb6115181d29060200160405180910390a15b505050505050565b6000806123d7846123d285613f8f565b61341b565b600085815260056020818152604092839020835160c081018552815480825260018301549382019390935260028201549481019490945260038101546060850152600481015473ffffffffffffffffffffffffffffffffffffffff908116608086015292015490911660a083015291925090821061245a576000925050506118ac565b8051600090611865908490613f01565b600354600090819060015b818110156125b95760006003828154811061249257612492613d1c565b60009182526020808320919091015480835260058083526040808520815160c081018352815481526001820154958101959095526002810154858301526003810154606086015260048082015473ffffffffffffffffffffffffffffffffffffffff90811660808801819052929094015490931660a086015290517f70a0823100000000000000000000000000000000000000000000000000000000815230928101929092529194509192916370a0823190602401602060405180830381865afa158015612564573d6000803e3d6000fd5b505050506040513d601f19601f820116820180604052508101906125889190613c46565b90508061259484612b4b565b61259e9190613c2f565b6125a89087613c5f565b955050600190920191506124759050565b5060065473ffffffffffffffffffffffffffffffffffffffff1615612712576006546040517f70a0823100000000000000000000000000000000000000000000000000000000815230600482015273ffffffffffffffffffffffffffffffffffffffff909116906370a0823190602401602060405180830381865afa158015612646573d6000803e3d6000fd5b505050506040513d601f19601f8201168201806040525081019061266a9190613c46565b600660009054906101000a900473ffffffffffffffffffffffffffffffffffffffff1673ffffffffffffffffffffffffffffffffffffffff1663a035b1fe6040518163ffffffff1660e01b8152600401602060405180830381865afa1580156126d7573d6000803e3d6000fd5b505050506040513d601f19601f820116820180604052508101906126fb9190613c46565b6127059190613c2f565b61270f9083613c5f565b91505b50919050565b3360009081526001602081905260409091205414612792576040517f08c379a000000000000000000000000000000000000000000000000000000000815260206004820152601360248201527f417574682f6e6f742d617574686f72697a6564000000000000000000000000006044820152606401610633565b61279a612e8b565b73ffffffffffffffffffffffffffffffffffffffff8116612817576040517f08c379a000000000000000000000000000000000000000000000000000000000815260206004820152601a60248201527f5661756c742f66696c652d616464726573732d69732d7a65726f0000000000006044820152606401610633565b817f4f7261636c6500000000000000000000000000000000000000000000000000000361288357600880547fffffffffffffffffffffffff00000000000000000000000000000000000000001673ffffffffffffffffffffffffffffffffffffffff83161790556128eb565b817f46756e640000000000000000000000000000000000000000000000000000000003610d0e57600680547fffffffffffffffffffffffff00000000000000000000000000000000000000001673ffffffffffffffffffffffffffffffffffffffff83161790555b60405173ffffffffffffffffffffffffffffffffffffffff8216815282907f1cd8e98e02e12f822936437bb3cf5ca47eb462329e38df93f340c478b3cbfade90602001611296565b60006118ac82600061341b565b33600090815260016020819052604090912054146129ba576040517f08c379a000000000000000000000000000000000000000000000000000000000815260206004820152601360248201527f417574682f6e6f742d617574686f72697a6564000000000000000000000000006044820152606401610633565b6129c2612e8b565b817f67656d000000000000000000000000000000000000000000000000000000000003612a3d57600083815260056020526040902060040180547fffffffffffffffffffffffff00000000000000000000000000000000000000001673ffffffffffffffffffffffffffffffffffffffff8316179055612ab5565b817f6f7261636c65000000000000000000000000000000000000000000000000000003610d0e5760008381526005602081905260409091200180547fffffffffffffffffffffffff00000000000000000000000000000000000000001673ffffffffffffffffffffffffffffffffffffffff83161790555b612b0183837f67656d0000000000000000000000000000000000000000000000000000000000148015612afc575073ffffffffffffffffffffffffffffffffffffffff8316155b613201565b60405173ffffffffffffffffffffffffffffffffffffffff82168152829084907f6df1fac301e4915518dc9d837f59441863f1c0f193e9c20bd71a3bd2da13021d90602001610da3565b60008181526005602081905260408083209091015481517ffeaf968c000000000000000000000000000000000000000000000000000000008152915173ffffffffffffffffffffffffffffffffffffffff909116918391839163feaf968c9160048083019260a09291908290030181865afa158015612bce573d6000803e3d6000fd5b505050506040513d601f19601f82011682018060405250810190612bf29190613ccc565b50505091505060008113612c62576040517f08c379a000000000000000000000000000000000000000000000000000000000815260206004820152601960248201527f5661756c742f696e76616c6964206173736574207072696365000000000000006044820152606401610633565b600084815260056020908152604080832060049081015482517f313ce567000000000000000000000000000000000000000000000000000000008152925173ffffffffffffffffffffffffffffffffffffffff9091169363313ce5679380840193919291908290030181865afa158015612ce0573d6000803e3d6000fd5b505050506040513d601f19601f82011682018060405250810190612d049190613fc7565b60ff169050612d14816013613f01565b612d1f90600a61410a565b6120e49083613c2f565b6002805403612d64576040517f3ee5aeb500000000000000000000000000000000000000000000000000000000815260040160405180910390fd5b60028055565b6040805173ffffffffffffffffffffffffffffffffffffffff8416602482015260448082018490528251808303909101815260649091019091526020810180517bffffffffffffffffffffffffffffffffffffffffffffffffffffffff167f095ea7b300000000000000000000000000000000000000000000000000000000179052612df684826134e7565b612e855760405173ffffffffffffffffffffffffffffffffffffffff848116602483015260006044830152612e7b91869182169063095ea7b3906064015b604051602081830303815290604052915060e01b6020820180517bffffffffffffffffffffffffffffffffffffffffffffffffffffffff83818316178352505050506135a4565b612e8584826135a4565b50505050565b60005460ff1615611324576040517fd93c066500000000000000000000000000000000000000000000000000000000815260040160405180910390fd5b60405173ffffffffffffffffffffffffffffffffffffffff8481166024830152838116604483015260648201839052612e859186918216906323b872dd90608401612e34565b60405173ffffffffffffffffffffffffffffffffffffffff838116602483015260448201839052612f4c91859182169063a9059cbb90606401612e34565b505050565b6000848152600560208181526040808420815160c08101835281548152600182015493810184905260028201549281019290925260038101546060830152600481015473ffffffffffffffffffffffffffffffffffffffff908116608084015293015490921660a0830152613022576040517f08c379a000000000000000000000000000000000000000000000000000000000815260206004820152601c60248201527f5661756c742f6173736574206e6f7420696e2077686974656c697374000000006044820152606401610633565b600083156130375761303487866117c5565b90505b608082015161305e9073ffffffffffffffffffffffffffffffffffffffff16333088612ec8565b6000613068611326565b6130728388613f01565b61307b8a612b4b565b6130859190613c2f565b61308f9190613c72565b6007546040517f40c10f1900000000000000000000000000000000000000000000000000000000815273ffffffffffffffffffffffffffffffffffffffff8a81166004830152602482018490529293509116906340c10f1990604401600060405180830381600087803b15801561310557600080fd5b505af1158015613119573d6000803e3d6000fd5b50929a9950505050505050505050565b61313161363a565b600080547fffffffffffffffffffffffffffffffffffffffffffffffffffffffffffffff001690557f5db9ee0a495bf2e6ff9c91a7834c1ba4fdd244a5e8aa4e537bd38aeae4b073aa335b60405173ffffffffffffffffffffffffffffffffffffffff909116815260200160405180910390a1565b6131ae612e8b565b600080547fffffffffffffffffffffffffffffffffffffffffffffffffffffffffffffff001660011790557f62e78cea01bee320cd4e420270b5ea74000d11b0c9f74754ebdbfc544b05a25861317c3390565b80613261576000828152600460205260409020541561321e575050565b600380546001810182557fc2575a0e9e593c00f959f8c92f12db2869c3395a3b0502d05e2516446f71f85b01839055546000838152600460205260409020555050565b6000828152600460205260409020546132d6576040517f08c379a000000000000000000000000000000000000000000000000000000000815260206004820152601560248201527f5661756c742f6173736574206e6f7420616464656400000000000000000000006044820152606401610633565b60038054600091906132ea90600190613f01565b815481106132fa576132fa613d1c565b906000526020600020015490508083146133675760008381526004602052604081205461332990600190613f01565b9050816003828154811061333f5761333f613d1c565b600091825260209091200155613356816001613c5f565b600083815260046020526040902055505b600380548061337857613378614116565b6000828152602080822083017fffffffffffffffffffffffffffffffffffffffffffffffffffffffffffffffff90810183905590920190925584825260048082526040808420849055600592839052832083815560018101849055600281018490556003810193909355820180547fffffffffffffffffffffffff0000000000000000000000000000000000000000908116909155910180549091169055505050565b60008061342661246a565b905060008113613492576040517f08c379a000000000000000000000000000000000000000000000000000000000815260206004820152601860248201527f5661756c742f617373657420616d6f756e74206572726f7200000000000000006044820152606401610633565b600061349d85610591565b90506000846134ab87612b4b565b6134b59190614145565b90506134c18184614191565b92506134cd8183614191565b915060008212156134dd57600091505b6118a68383613c72565b60008060008473ffffffffffffffffffffffffffffffffffffffff168460405161351191906141b9565b6000604051808303816000865af19150503d806000811461354e576040519150601f19603f3d011682016040523d82523d6000602084013e613553565b606091505b509150915081801561357d57508051158061357d57508080602001905181019061357d91906141e8565b80156120e457505050505073ffffffffffffffffffffffffffffffffffffffff163b151590565b60006135c673ffffffffffffffffffffffffffffffffffffffff841683613676565b905080516000141580156135eb5750808060200190518101906135e991906141e8565b155b15612f4c576040517f5274afe700000000000000000000000000000000000000000000000000000000815273ffffffffffffffffffffffffffffffffffffffff84166004820152602401610633565b60005460ff16611324576040517f8dfc202b00000000000000000000000000000000000000000000000000000000815260040160405180910390fd5b60606136848383600061368b565b9392505050565b6060814710156136c9576040517fcd786059000000000000000000000000000000000000000000000000000000008152306004820152602401610633565b6000808573ffffffffffffffffffffffffffffffffffffffff1684866040516136f291906141b9565b60006040518083038185875af1925050503d806000811461372f576040519150601f19603f3d011682016040523d82523d6000602084013e613734565b606091505b509150915061374486838361374e565b9695505050505050565b6060826137635761375e826137dd565b613684565b8151158015613787575073ffffffffffffffffffffffffffffffffffffffff84163b155b156137d6576040517f9996b31500000000000000000000000000000000000000000000000000000000815273ffffffffffffffffffffffffffffffffffffffff85166004820152602401610633565b5080613684565b8051156137ed5780518082602001fd5b6040517f1425ea4200000000000000000000000000000000000000000000000000000000815260040160405180910390fd5b50565b60006020828403121561383457600080fd5b5035919050565b6000806040838503121561384e57600080fd5b50508035926020909101359150565b73ffffffffffffffffffffffffffffffffffffffff8116811461381f57600080fd5b6000806000806080858703121561389557600080fd5b8435935060208501356138a78161385d565b93969395505050506040820135916060013590565b6000806000606084860312156138d157600080fd5b505081359360208301359350604090920135919050565b6000602082840312156138fa57600080fd5b81356136848161385d565b6000806000806040858703121561391b57600080fd5b843567ffffffffffffffff8082111561393357600080fd5b818701915087601f83011261394757600080fd5b81358181111561395657600080fd5b8860208260051b850101111561396b57600080fd5b60209283019650945090860135908082111561398657600080fd5b818701915087601f83011261399a57600080fd5b8135818111156139a957600080fd5b88602060c0830285010111156139be57600080fd5b95989497505060200194505050565b7f4e487b7100000000000000000000000000000000000000000000000000000000600052604160045260246000fd5b604051601f82017fffffffffffffffffffffffffffffffffffffffffffffffffffffffffffffffe016810167ffffffffffffffff81118282101715613a4357613a436139cd565b604052919050565b600067ffffffffffffffff821115613a6557613a656139cd565b5060051b60200190565b600082601f830112613a8057600080fd5b81356020613a95613a9083613a4b565b6139fc565b8083825260208201915060208460051b870101935086841115613ab757600080fd5b602086015b84811015613ad35780358352918301918301613abc565b509695505050505050565b60008060408385031215613af157600080fd5b823567ffffffffffffffff80821115613b0957600080fd5b818501915085601f830112613b1d57600080fd5b81356020613b2d613a9083613a4b565b82815260059290921b84018101918181019089841115613b4c57600080fd5b948201945b83861015613b6a57853582529482019490820190613b51565b96505086013592505080821115613b8057600080fd5b50613b8d85828601613a6f565b9150509250929050565b60008060408385031215613baa57600080fd5b823591506020830135613bbc8161385d565b809150509250929050565b600080600060608486031215613bdc57600080fd5b83359250602084013591506040840135613bf58161385d565b809150509250925092565b7f4e487b7100000000000000000000000000000000000000000000000000000000600052601160045260246000fd5b80820281158282048414176118ac576118ac613c00565b600060208284031215613c5857600080fd5b5051919050565b808201808211156118ac576118ac613c00565b600082613ca8577f4e487b7100000000000000000000000000000000000000000000000000000000600052601260045260246000fd5b500490565b805169ffffffffffffffffffff81168114613cc757600080fd5b919050565b600080600080600060a08688031215613ce457600080fd5b613ced86613cad565b9450602086015193506040860151925060608601519150613d1060808701613cad565b90509295509295909350565b7f4e487b7100000000000000000000000000000000000000000000000000000000600052603260045260246000fd5b813581556020820135600182015560408201356002820155606082013560038201556080820135613d7b8161385d565b6004820180547fffffffffffffffffffffffff00000000000000000000000000000000000000001673ffffffffffffffffffffffffffffffffffffffff83161790555060a0820135613dcc8161385d565b6005820180547fffffffffffffffffffffffff00000000000000000000000000000000000000001673ffffffffffffffffffffffffffffffffffffffff8316179055505050565b6000604080835285604084015260607f07ffffffffffffffffffffffffffffffffffffffffffffffffffffffffffffff871115613e4f57600080fd5b8660051b80896060870137606090850185810382016020808801919091529181018790528791608091820160005b89811015613ef1578435825282850135838301528685013587830152858501358683015283850135613eae8161385d565b73ffffffffffffffffffffffffffffffffffffffff9081168386015260a09086820135613eda8161385d565b169083015260c09485019490910190600101613e7d565b509b9a5050505050505050505050565b818103818111156118ac576118ac613c00565b604080825283519082018190526000906020906060840190828701845b82811015613f4d57815184529284019290840190600101613f31565b5050508381038285015284518082528583019183019060005b81811015613f8257835183529284019291840191600101613f66565b5090979650505050505050565b60007f80000000000000000000000000000000000000000000000000000000000000008203613fc057613fc0613c00565b5060000390565b600060208284031215613fd957600080fd5b815160ff8116811461368457600080fd5b600181815b8085111561404357817fffffffffffffffffffffffffffffffffffffffffffffffffffffffffffffffff0482111561402957614029613c00565b8085161561403657918102915b93841c9390800290613fef565b509250929050565b60008261405a575060016118ac565b81614067575060006118ac565b816001811461407d5760028114614087576140a3565b60019150506118ac565b60ff84111561409857614098613c00565b50506001821b6118ac565b5060208310610133831016604e8410600b84101617156140c6575081810a6118ac565b6140d08383613fea565b807fffffffffffffffffffffffffffffffffffffffffffffffffffffffffffffffff0482111561410257614102613c00565b029392505050565b6000613684838361404b565b7f4e487b7100000000000000000000000000000000000000000000000000000000600052603160045260246000fd5b808202600082127f80000000000000000000000000000000000000000000000000000000000000008414161561417d5761417d613c00565b81810583148215176118ac576118ac613c00565b80820182811260008312801582168215821617156141b1576141b1613c00565b505092915050565b6000825160005b818110156141da57602081860181015185830152016141c0565b506000920191825250919050565b6000602082840312156141fa57600080fd5b8151801515811461368457600080fdfea264697066735822122078d821128a4a94b16ca6181068de7a25c8c241dc4d8f9e7371a55b45a8908c3c64736f6c63430008170033",
        "nonce": "0xac8",
        "accessList": []
      },
      "additionalContracts": [],
      "isFixedGasLimit": false
    },
    {
      "hash": "0xfbda4a7a1495ae2684aa4561f75dd2dd3a3c266ea4a7526ff82faae23b837dd8",
      "transactionType": "CALL",
      "contractName": null,
      "contractAddress": "0x9315C2Df1Ac5817ED470e888eB201dD7Cd16b31e",
      "function": null,
      "arguments": null,
      "transaction": {
        "type": "0x02",
        "from": "0x077a79ab65caabaa684f34cc22aca911742690e0",
        "to": "0x9315c2df1ac5817ed470e888eb201dd7cd16b31e",
        "gas": "0xcb32",
        "value": "0x0",
        "data": "0x9623609d00000000000000000000000094132a5da7192a0f0d85235b8921f3153f9d5e230000000000000000000000000cb416acf949a44012deb71965df4dfff20be34500000000000000000000000000000000000000000000000000000000000000600000000000000000000000000000000000000000000000000000000000000000",
        "nonce": "0xac9",
        "accessList": []
      },
      "additionalContracts": [],
      "isFixedGasLimit": false
    },
    {
      "hash": "0xb51c5a6de0b777a81145e43b2782445613dd48689f7f21e5e9675459622da659",
      "transactionType": "CALL",
      "contractName": null,
      "contractAddress": "0x1b967aC2C1B526F71aB99b7eeC6153C33e037A24",
      "function": null,
      "arguments": null,
      "transaction": {
        "type": "0x02",
        "from": "0x077a79ab65caabaa684f34cc22aca911742690e0",
        "to": "0x1b967ac2c1b526f71ab99b7eec6153c33e037a24",
        "gas": "0xcb32",
        "value": "0x0",
        "data": "0x9623609d0000000000000000000000009ab7ff6141fc8621ca8728141a0fcd321796bc0c0000000000000000000000000cb416acf949a44012deb71965df4dfff20be34500000000000000000000000000000000000000000000000000000000000000600000000000000000000000000000000000000000000000000000000000000000",
        "nonce": "0xaca",
        "accessList": []
      },
      "additionalContracts": [],
      "isFixedGasLimit": false
    },
    {
      "hash": "0x46f496148194b5555c957cc22f3eafd7aaa66ba58797c46148e491a82090707e",
      "transactionType": "CALL",
      "contractName": null,
      "contractAddress": "0x9E410000a10A32396C44f6bCdB228bBac4758F65",
      "function": null,
      "arguments": null,
      "transaction": {
        "type": "0x02",
        "from": "0x077a79ab65caabaa684f34cc22aca911742690e0",
        "to": "0x9e410000a10a32396c44f6bcdb228bbac4758f65",
        "gas": "0xcb32",
        "value": "0x0",
        "data": "0x9623609d0000000000000000000000008ced3df1c33b134f6e7190b3b9c8af0bafea80dd0000000000000000000000000cb416acf949a44012deb71965df4dfff20be34500000000000000000000000000000000000000000000000000000000000000600000000000000000000000000000000000000000000000000000000000000000",
        "nonce": "0xacb",
        "accessList": []
      },
      "additionalContracts": [],
      "isFixedGasLimit": false
    },
    {
      "hash": "0x72f798d5b06f561423ebb4ba6406b6d263768c01a2be29602261587367c03f0f",
      "transactionType": "CALL",
      "contractName": "WETH9_",
      "contractAddress": "0xceBD1a3E9aaD7E60eDD509809e7f9cFF449b7851",
      "function": "approve(address,uint256)",
      "arguments": [
        "0x94132a5Da7192a0f0D85235b8921f3153F9D5E23",
        "200000000000000000"
      ],
      "transaction": {
        "type": "0x02",
        "from": "0x077a79ab65caabaa684f34cc22aca911742690e0",
        "to": "0xcebd1a3e9aad7e60edd509809e7f9cff449b7851",
        "gas": "0x4826c",
        "value": "0x0",
        "data": "0x095ea7b300000000000000000000000094132a5da7192a0f0d85235b8921f3153f9d5e2300000000000000000000000000000000000000000000000002c68af0bb140000",
        "nonce": "0xacc",
        "accessList": []
      },
      "additionalContracts": [],
      "isFixedGasLimit": false
    },
    {
      "hash": "0xe539ba95a67346ec5821b0706ccf0dedf89e0284fb20ab0f0e150ff22a1c43fd",
      "transactionType": "CALL",
      "contractName": null,
      "contractAddress": "0x94132a5Da7192a0f0D85235b8921f3153F9D5E23",
      "function": "buyExactIn(bytes32,address,uint256,uint256)",
      "arguments": [
        "0x5745544800000000000000000000000000000000000000000000000000000000",
        "0x077A79ab65cAAbAa684f34Cc22aCa911742690E0",
        "100000000000000000",
        "0"
      ],
      "transaction": {
        "type": "0x02",
        "from": "0x077a79ab65caabaa684f34cc22aca911742690e0",
        "to": "0x94132a5da7192a0f0d85235b8921f3153f9d5e23",
        "gas": "0x58dcd",
        "value": "0x0",
        "data": "0x2040178f5745544800000000000000000000000000000000000000000000000000000000000000000000000000000000077a79ab65caabaa684f34cc22aca911742690e0000000000000000000000000000000000000000000000000016345785d8a00000000000000000000000000000000000000000000000000000000000000000000",
        "nonce": "0xacd",
        "accessList": []
      },
      "additionalContracts": [],
      "isFixedGasLimit": false
    },
    {
      "hash": "0xa64f0cdf79330619acaa72b08c0fe2f726b22546f741719d3f5e7b43bedae191",
      "transactionType": "CALL",
      "contractName": null,
      "contractAddress": "0x94132a5Da7192a0f0D85235b8921f3153F9D5E23",
      "function": "buyExactOut(bytes32,address,uint256,uint256)",
      "arguments": [
        "0x5745544800000000000000000000000000000000000000000000000000000000",
        "0x077A79ab65cAAbAa684f34Cc22aCa911742690E0",
        "100000000000000000",
        "100000000000000000000"
      ],
      "transaction": {
        "type": "0x02",
        "from": "0x077a79ab65caabaa684f34cc22aca911742690e0",
        "to": "0x94132a5da7192a0f0d85235b8921f3153f9d5e23",
        "gas": "0xa868a",
        "value": "0x0",
        "data": "0x0d34b71d5745544800000000000000000000000000000000000000000000000000000000000000000000000000000000077a79ab65caabaa684f34cc22aca911742690e0000000000000000000000000000000000000000000000000016345785d8a00000000000000000000000000000000000000000000000000056bc75e2d63100000",
        "nonce": "0xace",
        "accessList": []
      },
      "additionalContracts": [],
      "isFixedGasLimit": false
    },
    {
      "hash": "0x7fac5a712f91e768741ccb55a7330072b79a6690ae948730ce0bdfaacb1d2077",
      "transactionType": "CALL",
      "contractName": null,
      "contractAddress": "0x94132a5Da7192a0f0D85235b8921f3153F9D5E23",
      "function": "sellExactIn(bytes32,address,uint256,uint256)",
      "arguments": [
        "0x5745544800000000000000000000000000000000000000000000000000000000",
        "0x077A79ab65cAAbAa684f34Cc22aCa911742690E0",
        "121355110000000000000",
        "0"
      ],
      "transaction": {
        "type": "0x02",
        "from": "0x077a79ab65caabaa684f34cc22aca911742690e0",
        "to": "0x94132a5da7192a0f0d85235b8921f3153f9d5e23",
        "gas": "0x5c011",
        "value": "0x0",
        "data": "0xa28b9c0f5745544800000000000000000000000000000000000000000000000000000000000000000000000000000000077a79ab65caabaa684f34cc22aca911742690e00000000000000000000000000000000000000000000000069423f593fc7460000000000000000000000000000000000000000000000000000000000000000000",
        "nonce": "0xacf",
        "accessList": []
      },
      "additionalContracts": [],
      "isFixedGasLimit": false
    },
    {
      "hash": "0x9203e0a948f3c3c1e5229653b934fa80385c3a53ca3821dad1c41ad351e6b3f7",
      "transactionType": "CALL",
      "contractName": null,
      "contractAddress": "0x94132a5Da7192a0f0D85235b8921f3153F9D5E23",
      "function": "sellExactOut(bytes32,address,uint256,uint256)",
      "arguments": [
        "0x5745544800000000000000000000000000000000000000000000000000000000",
        "0x077A79ab65cAAbAa684f34Cc22aCa911742690E0",
        "100000000000000000000",
        "20600698231825590"
      ],
      "transaction": {
        "type": "0x02",
        "from": "0x077a79ab65caabaa684f34cc22aca911742690e0",
        "to": "0x94132a5da7192a0f0d85235b8921f3153f9d5e23",
        "gas": "0x5c028",
        "value": "0x0",
        "data": "0x1ed5239c5745544800000000000000000000000000000000000000000000000000000000000000000000000000000000077a79ab65caabaa684f34cc22aca911742690e00000000000000000000000000000000000000000000000056bc75e2d6310000000000000000000000000000000000000000000000000000000493039d43ba4b6",
        "nonce": "0xad0",
        "accessList": []
      },
      "additionalContracts": [],
      "isFixedGasLimit": false
    },
    {
      "hash": "0x3339a1aa4fd34deb97842f982d367e8b5c7ca48052794389a02c13bdddff53c1",
      "transactionType": "CALL",
      "contractName": "USDC",
      "contractAddress": "0x39E618D761fdD06bF65065d2974128aAeC7b3Fed",
      "function": "approve(address,uint256)",
      "arguments": [
        "0x94132a5Da7192a0f0D85235b8921f3153F9D5E23",
        "2000000000000"
      ],
      "transaction": {
        "type": "0x02",
        "from": "0x077a79ab65caabaa684f34cc22aca911742690e0",
        "to": "0x39e618d761fdd06bf65065d2974128aaec7b3fed",
        "gas": "0x4823f",
        "value": "0x0",
        "data": "0x095ea7b300000000000000000000000094132a5da7192a0f0d85235b8921f3153f9d5e23000000000000000000000000000000000000000000000000000001d1a94a2000",
        "nonce": "0xad1",
        "accessList": []
      },
      "additionalContracts": [],
      "isFixedGasLimit": false
    },
    {
      "hash": "0xe392d9430d3738a2f364fc35ed06075c2d88241d3f10eb82e39bf75a069c4d9f",
      "transactionType": "CALL",
      "contractName": null,
      "contractAddress": "0x94132a5Da7192a0f0D85235b8921f3153F9D5E23",
      "function": "buyExactIn(bytes32,address,uint256,uint256)",
      "arguments": [
        "0x5553444300000000000000000000000000000000000000000000000000000000",
        "0x077A79ab65cAAbAa684f34Cc22aCa911742690E0",
        "1000000000000",
        "0"
      ],
      "transaction": {
        "type": "0x02",
        "from": "0x077a79ab65caabaa684f34cc22aca911742690e0",
        "to": "0x94132a5da7192a0f0d85235b8921f3153f9d5e23",
        "gas": "0xa3263",
        "value": "0x0",
        "data": "0x2040178f5553444300000000000000000000000000000000000000000000000000000000000000000000000000000000077a79ab65caabaa684f34cc22aca911742690e0000000000000000000000000000000000000000000000000000000e8d4a510000000000000000000000000000000000000000000000000000000000000000000",
        "nonce": "0xad2",
        "accessList": []
      },
      "additionalContracts": [],
      "isFixedGasLimit": false
    },
    {
      "hash": "0x673a2ec0b322e5d5408b429ae681f821cce5beddd9893d90be66f12fd99db562",
      "transactionType": "CALL",
      "contractName": null,
      "contractAddress": "0x94132a5Da7192a0f0D85235b8921f3153F9D5E23",
      "function": "buyExactOut(bytes32,address,uint256,uint256)",
      "arguments": [
        "0x5553444300000000000000000000000000000000000000000000000000000000",
        "0x077A79ab65cAAbAa684f34Cc22aCa911742690E0",
        "1000000000000",
        "1000000000000000000000"
      ],
      "transaction": {
        "type": "0x02",
        "from": "0x077a79ab65caabaa684f34cc22aca911742690e0",
        "to": "0x94132a5da7192a0f0d85235b8921f3153f9d5e23",
        "gas": "0xa32aa",
        "value": "0x0",
        "data": "0x0d34b71d5553444300000000000000000000000000000000000000000000000000000000000000000000000000000000077a79ab65caabaa684f34cc22aca911742690e0000000000000000000000000000000000000000000000000000000e8d4a5100000000000000000000000000000000000000000000000003635c9adc5dea00000",
        "nonce": "0xad3",
        "accessList": []
      },
      "additionalContracts": [],
      "isFixedGasLimit": false
    },
    {
      "hash": "0x72611ad98086a74ef6e7db68f2d35deb6e025c7a084ca1ba0f5c5f8637fd830e",
      "transactionType": "CALL",
      "contractName": null,
      "contractAddress": "0x94132a5Da7192a0f0D85235b8921f3153F9D5E23",
      "function": "sellExactIn(bytes32,address,uint256,uint256)",
      "arguments": [
        "0x5553444300000000000000000000000000000000000000000000000000000000",
        "0x077A79ab65cAAbAa684f34Cc22aCa911742690E0",
        "500449405000000000000000",
        "0"
      ],
      "transaction": {
        "type": "0x02",
        "from": "0x077a79ab65caabaa684f34cc22aca911742690e0",
        "to": "0x94132a5da7192a0f0d85235b8921f3153f9d5e23",
        "gas": "0x4baba",
        "value": "0x0",
        "data": "0xa28b9c0f5553444300000000000000000000000000000000000000000000000000000000000000000000000000000000077a79ab65caabaa684f34cc22aca911742690e00000000000000000000000000000000000000000000069f96aa6b0ea14ec80000000000000000000000000000000000000000000000000000000000000000000",
        "nonce": "0xad4",
        "accessList": []
      },
      "additionalContracts": [],
      "isFixedGasLimit": false
    },
    {
      "hash": "0x310bc1f392987f30ce8c5adb6f944b579647e6faa2cece936b9025c10089cc3c",
      "transactionType": "CALL",
      "contractName": null,
      "contractAddress": "0x94132a5Da7192a0f0D85235b8921f3153F9D5E23",
      "function": "sellExactOut(bytes32,address,uint256,uint256)",
      "arguments": [
        "0x5553444300000000000000000000000000000000000000000000000000000000",
        "0x077A79ab65cAAbAa684f34Cc22aCa911742690E0",
        "1000000000000000000000",
        "499550998"
      ],
      "transaction": {
        "type": "0x02",
        "from": "0x077a79ab65caabaa684f34cc22aca911742690e0",
        "to": "0x94132a5da7192a0f0d85235b8921f3153f9d5e23",
        "gas": "0x4ba8d",
        "value": "0x0",
        "data": "0x1ed5239c5553444300000000000000000000000000000000000000000000000000000000000000000000000000000000077a79ab65caabaa684f34cc22aca911742690e000000000000000000000000000000000000000000000003635c9adc5dea00000000000000000000000000000000000000000000000000000000000001dc68b16",
        "nonce": "0xad5",
        "accessList": []
      },
      "additionalContracts": [],
      "isFixedGasLimit": false
    },
    {
      "hash": "0x8fa52270141d6ce5ad40468bc9a097cac091cf5e0144d8f39508348f95edac97",
      "transactionType": "CALL",
      "contractName": "WBTC",
      "contractAddress": "0x4Ac0ED77C4375D48B51D56cc49b7710c3640b9c2",
      "function": "approve(address,uint256)",
      "arguments": [
        "0x94132a5Da7192a0f0D85235b8921f3153F9D5E23",
        "200000000000000"
      ],
      "transaction": {
        "type": "0x02",
        "from": "0x077a79ab65caabaa684f34cc22aca911742690e0",
        "to": "0x4ac0ed77c4375d48b51d56cc49b7710c3640b9c2",
        "gas": "0x4823f",
        "value": "0x0",
        "data": "0x095ea7b300000000000000000000000094132a5da7192a0f0d85235b8921f3153f9d5e230000000000000000000000000000000000000000000000000000b5e620f48000",
        "nonce": "0xad6",
        "accessList": []
      },
      "additionalContracts": [],
      "isFixedGasLimit": false
    },
    {
      "hash": "0x9293a4651157856c9cd93894b64eeaca98535d74abd4e7e5aa853edb4c0524b9",
      "transactionType": "CALL",
      "contractName": null,
      "contractAddress": "0x94132a5Da7192a0f0D85235b8921f3153F9D5E23",
      "function": "buyExactIn(bytes32,address,uint256,uint256)",
      "arguments": [
        "0x5742544300000000000000000000000000000000000000000000000000000000",
        "0x077A79ab65cAAbAa684f34Cc22aCa911742690E0",
        "100000000000000",
        "0"
      ],
      "transaction": {
        "type": "0x02",
        "from": "0x077a79ab65caabaa684f34cc22aca911742690e0",
        "to": "0x94132a5da7192a0f0d85235b8921f3153f9d5e23",
        "gas": "0x9da3b",
        "value": "0x0",
        "data": "0x2040178f5742544300000000000000000000000000000000000000000000000000000000000000000000000000000000077a79ab65caabaa684f34cc22aca911742690e000000000000000000000000000000000000000000000000000005af3107a40000000000000000000000000000000000000000000000000000000000000000000",
        "nonce": "0xad7",
        "accessList": []
      },
      "additionalContracts": [],
      "isFixedGasLimit": false
    },
    {
      "hash": "0xe525d77aedfb8746b398f02d11d073e2d8ef56f6355244b349e02b17a9acdba6",
      "transactionType": "CALL",
      "contractName": null,
      "contractAddress": "0x94132a5Da7192a0f0D85235b8921f3153F9D5E23",
      "function": "buyExactOut(bytes32,address,uint256,uint256)",
      "arguments": [
        "0x5742544300000000000000000000000000000000000000000000000000000000",
        "0x077A79ab65cAAbAa684f34Cc22aCa911742690E0",
        "100000000000000",
        "1000000000000000000000"
      ],
      "transaction": {
        "type": "0x02",
        "from": "0x077a79ab65caabaa684f34cc22aca911742690e0",
        "to": "0x94132a5da7192a0f0d85235b8921f3153f9d5e23",
        "gas": "0x9da83",
        "value": "0x0",
        "data": "0x0d34b71d5742544300000000000000000000000000000000000000000000000000000000000000000000000000000000077a79ab65caabaa684f34cc22aca911742690e000000000000000000000000000000000000000000000000000005af3107a400000000000000000000000000000000000000000000000003635c9adc5dea00000",
        "nonce": "0xad8",
        "accessList": []
      },
      "additionalContracts": [],
      "isFixedGasLimit": false
    },
    {
      "hash": "0xc1ca3efa73cf144533681b86c14ca0818409fc8142a7e99ce7197cfb9408b001",
      "transactionType": "CALL",
      "contractName": null,
      "contractAddress": "0x94132a5Da7192a0f0D85235b8921f3153F9D5E23",
      "function": "sellExactIn(bytes32,address,uint256,uint256)",
      "arguments": [
        "0x5742544300000000000000000000000000000000000000000000000000000000",
        "0x077A79ab65cAAbAa684f34Cc22aCa911742690E0",
        "20170850000000000000000000000",
        "0"
      ],
      "transaction": {
        "type": "0x02",
        "from": "0x077a79ab65caabaa684f34cc22aca911742690e0",
        "to": "0x94132a5da7192a0f0d85235b8921f3153f9d5e23",
        "gas": "0x4baca",
        "value": "0x0",
        "data": "0xa28b9c0f5742544300000000000000000000000000000000000000000000000000000000000000000000000000000000077a79ab65caabaa684f34cc22aca911742690e00000000000000000000000000000000000000000412cefa18b41158c394000000000000000000000000000000000000000000000000000000000000000000000",
        "nonce": "0xad9",
        "accessList": []
      },
      "additionalContracts": [],
      "isFixedGasLimit": false
    },
    {
      "hash": "0x3e3851f6805219c20fe666157f9e8715cbeef1b2210da67e1f3cd84a16f079f3",
      "transactionType": "CALL",
      "contractName": null,
      "contractAddress": "0x94132a5Da7192a0f0D85235b8921f3153F9D5E23",
      "function": "sellExactOut(bytes32,address,uint256,uint256)",
      "arguments": [
        "0x5742544300000000000000000000000000000000000000000000000000000000",
        "0x077A79ab65cAAbAa684f34Cc22aCa911742690E0",
        "1000000000000000000000",
        "1239412"
      ],
      "transaction": {
        "type": "0x02",
        "from": "0x077a79ab65caabaa684f34cc22aca911742690e0",
        "to": "0x94132a5da7192a0f0d85235b8921f3153f9d5e23",
        "gas": "0x4ba7e",
        "value": "0x0",
        "data": "0x1ed5239c5742544300000000000000000000000000000000000000000000000000000000000000000000000000000000077a79ab65caabaa684f34cc22aca911742690e000000000000000000000000000000000000000000000003635c9adc5dea00000000000000000000000000000000000000000000000000000000000000012e974",
        "nonce": "0xada",
        "accessList": []
      },
      "additionalContracts": [],
      "isFixedGasLimit": false
    },
    {
      "hash": "0xe18e8e20e75e11ead9aa6d07fec9e384583951380750a28f8a55a795ae6470ff",
      "transactionType": "CALL",
      "contractName": "LINK",
      "contractAddress": "0xaB7A6599C1804443C04c998D2be87Dc00A8c07bA",
      "function": "approve(address,uint256)",
      "arguments": [
        "0x94132a5Da7192a0f0D85235b8921f3153F9D5E23",
        "2000000000000000000000000"
      ],
      "transaction": {
        "type": "0x02",
        "from": "0x077a79ab65caabaa684f34cc22aca911742690e0",
        "to": "0xab7a6599c1804443c04c998d2be87dc00a8c07ba",
        "gas": "0x4826e",
        "value": "0x0",
        "data": "0x095ea7b300000000000000000000000094132a5da7192a0f0d85235b8921f3153f9d5e2300000000000000000000000000000000000000000001a784379d99db42000000",
        "nonce": "0xadb",
        "accessList": []
      },
      "additionalContracts": [],
      "isFixedGasLimit": false
    },
    {
      "hash": "0xc9758242102f9e07e18756a9b46be4a8bd1bbc236a5cc8fac855aa720d308148",
      "transactionType": "CALL",
      "contractName": null,
      "contractAddress": "0x94132a5Da7192a0f0D85235b8921f3153F9D5E23",
      "function": "buyExactIn(bytes32,address,uint256,uint256)",
      "arguments": [
        "0x4c494e4b00000000000000000000000000000000000000000000000000000000",
        "0x077A79ab65cAAbAa684f34Cc22aCa911742690E0",
        "1000000000000000000000000",
        "0"
      ],
      "transaction": {
        "type": "0x02",
        "from": "0x077a79ab65caabaa684f34cc22aca911742690e0",
        "to": "0x94132a5da7192a0f0d85235b8921f3153f9d5e23",
        "gas": "0x4da34",
        "value": "0x0",
        "data": "0x2040178f4c494e4b00000000000000000000000000000000000000000000000000000000000000000000000000000000077a79ab65caabaa684f34cc22aca911742690e000000000000000000000000000000000000000000000d3c21bcecceda10000000000000000000000000000000000000000000000000000000000000000000000",
        "nonce": "0xadc",
        "accessList": []
      },
      "additionalContracts": [],
      "isFixedGasLimit": false
    },
    {
      "hash": "0x317defef3b972dc77b9c4cde7d7e3eaed63138fdf7e8ba932085370d7adc584b",
      "transactionType": "CALL",
      "contractName": null,
      "contractAddress": "0x94132a5Da7192a0f0D85235b8921f3153F9D5E23",
      "function": "buyExactOut(bytes32,address,uint256,uint256)",
      "arguments": [
        "0x4c494e4b00000000000000000000000000000000000000000000000000000000",
        "0x077A79ab65cAAbAa684f34Cc22aCa911742690E0",
        "1000000000000000000000000",
        "1000000000000000000000"
      ],
      "transaction": {
        "type": "0x02",
        "from": "0x077a79ab65caabaa684f34cc22aca911742690e0",
        "to": "0x94132a5da7192a0f0d85235b8921f3153f9d5e23",
        "gas": "0x9dad2",
        "value": "0x0",
        "data": "0x0d34b71d4c494e4b00000000000000000000000000000000000000000000000000000000000000000000000000000000077a79ab65caabaa684f34cc22aca911742690e000000000000000000000000000000000000000000000d3c21bcecceda100000000000000000000000000000000000000000000000000003635c9adc5dea00000",
        "nonce": "0xadd",
        "accessList": []
      },
      "additionalContracts": [],
      "isFixedGasLimit": false
    },
    {
      "hash": "0x881c0013d550a0a8e8bbd45b991ef93a0e1cfc942b60e8584482acab3b2154af",
      "transactionType": "CALL",
      "contractName": null,
      "contractAddress": "0x94132a5Da7192a0f0D85235b8921f3153F9D5E23",
      "function": "sellExactIn(bytes32,address,uint256,uint256)",
      "arguments": [
        "0x4c494e4b00000000000000000000000000000000000000000000000000000000",
        "0x077A79ab65cAAbAa684f34Cc22aCa911742690E0",
        "7385083035000000000000000",
        "0"
      ],
      "transaction": {
        "type": "0x02",
        "from": "0x077a79ab65caabaa684f34cc22aca911742690e0",
        "to": "0x94132a5da7192a0f0d85235b8921f3153f9d5e23",
        "gas": "0x4bb15",
        "value": "0x0",
        "data": "0xa28b9c0f4c494e4b00000000000000000000000000000000000000000000000000000000000000000000000000000000077a79ab65caabaa684f34cc22aca911742690e0000000000000000000000000000000000000000000061bda274d85a3022f80000000000000000000000000000000000000000000000000000000000000000000",
        "nonce": "0xade",
        "accessList": []
      },
      "additionalContracts": [],
      "isFixedGasLimit": false
    },
    {
      "hash": "0x8c66ebd18b7b1bbda118f70ad5e4ea73d470f59529ea82429a8f7327f277d8e8",
      "transactionType": "CALL",
      "contractName": null,
      "contractAddress": "0x94132a5Da7192a0f0D85235b8921f3153F9D5E23",
      "function": "sellExactOut(bytes32,address,uint256,uint256)",
      "arguments": [
        "0x4c494e4b00000000000000000000000000000000000000000000000000000000",
        "0x077A79ab65cAAbAa684f34Cc22aCa911742690E0",
        "1000000000000000000000",
        "33852022897397253164"
      ],
      "transaction": {
        "type": "0x02",
        "from": "0x077a79ab65caabaa684f34cc22aca911742690e0",
        "to": "0x94132a5da7192a0f0d85235b8921f3153f9d5e23",
        "gas": "0x9b02e",
        "value": "0x0",
        "data": "0x1ed5239c4c494e4b00000000000000000000000000000000000000000000000000000000000000000000000000000000077a79ab65caabaa684f34cc22aca911742690e000000000000000000000000000000000000000000000003635c9adc5dea00000000000000000000000000000000000000000000000000001d5ca8b782fc0c42c",
        "nonce": "0xadf",
        "accessList": []
      },
      "additionalContracts": [],
      "isFixedGasLimit": false
    }
  ],
  "receipts": [
    {
      "transactionHash": "0xc9aae1fed216fc2a476103235c4b27e0478a637e306e54e65518acd25927623e",
      "transactionIndex": "0x1",
      "blockHash": "0x19c9a7aa59f05b70b54bbbbb76c0fccdfd5e7cf5d2a8fb2df849d914ee07ed9f",
      "blockNumber": "0x7d1574",
      "from": "0x077A79ab65cAAbAa684f34Cc22aCa911742690E0",
      "to": null,
      "cumulativeGasUsed": "0x991858",
      "gasUsed": "0x991858",
      "contractAddress": "0x0Cb416AcF949A44012Deb71965DF4dfFF20bE345",
      "logs": [],
      "status": "0x1",
      "logsBloom": "0x00000000000000000000000000000000000000000000000000000000000000000000000000000000000000000000000000000000000000000000000000000000000000000000000000000000000000000000000000000000000000000000000000000000000000000000000000000000000000000000000000000000000000000000000000000000000000000000000000000000000000000000000000000000000000000000000000000000000000000000000000000000000000000000000000000000000000000000000000000000000000000000000000000000000000000000000000000000000000000000000000000000000000000000000000000000",
      "type": "0x2",
      "effectiveGasPrice": "0x5f5e100"
    },
    {
      "transactionHash": "0xfbda4a7a1495ae2684aa4561f75dd2dd3a3c266ea4a7526ff82faae23b837dd8",
      "transactionIndex": "0x1",
      "blockHash": "0x957dbf8ba9733ec5940ac75f5e3f0dcab7952f706142a84c21de40c2d5fb30b4",
      "blockNumber": "0x7d157e",
      "from": "0x077A79ab65cAAbAa684f34Cc22aCa911742690E0",
      "to": "0x9315C2Df1Ac5817ED470e888eB201dD7Cd16b31e",
      "cumulativeGasUsed": "0x3d3e8",
      "gasUsed": "0x3d3e8",
      "contractAddress": null,
      "logs": [
        {
          "address": "0x94132a5Da7192a0f0D85235b8921f3153F9D5E23",
          "topics": [
            "0xbc7cd75a20ee27fd9adebab32041f755214dbc6bffa90cc0225b39da2e5c2d3b",
            "0x0000000000000000000000000cb416acf949a44012deb71965df4dfff20be345"
          ],
          "data": "0x",
          "blockHash": "0x957dbf8ba9733ec5940ac75f5e3f0dcab7952f706142a84c21de40c2d5fb30b4",
          "blockNumber": "0x7d157e",
          "transactionHash": "0xfbda4a7a1495ae2684aa4561f75dd2dd3a3c266ea4a7526ff82faae23b837dd8",
          "transactionIndex": "0x1",
          "logIndex": "0x0",
          "removed": false
        }
      ],
      "status": "0x1",
      "logsBloom": "0x00000000080000000000000000000000400004000000000000000000000000000000000000000000000000000000000000000000000000000000000000000000000000000000000100000000000002000000000000000000000000000000000000000000000000000000000000001000000000000000000000000000000000000000020000000000000000000000000000000000000000000000000000000000000000000000000000000000000000000000000000000000000000000000000000000020000000000000000000000000000000000000000000000080000000000000000000000000000000000000000000000000000000000000000000000000",
      "type": "0x2",
      "effectiveGasPrice": "0x5f5e100"
    },
    {
      "transactionHash": "0xb51c5a6de0b777a81145e43b2782445613dd48689f7f21e5e9675459622da659",
      "transactionIndex": "0x1",
      "blockHash": "0xca6c975331dd5867c27a37ab3fd6c4ccaf42499dc9aa869460c33cb17763d949",
      "blockNumber": "0x7d1585",
      "from": "0x077A79ab65cAAbAa684f34Cc22aCa911742690E0",
      "to": "0x1b967aC2C1B526F71aB99b7eeC6153C33e037A24",
      "cumulativeGasUsed": "0x3d3e8",
      "gasUsed": "0x3d3e8",
      "contractAddress": null,
      "logs": [
        {
          "address": "0x9AB7FF6141fc8621cA8728141a0fcd321796BC0c",
          "topics": [
            "0xbc7cd75a20ee27fd9adebab32041f755214dbc6bffa90cc0225b39da2e5c2d3b",
            "0x0000000000000000000000000cb416acf949a44012deb71965df4dfff20be345"
          ],
          "data": "0x",
          "blockHash": "0xca6c975331dd5867c27a37ab3fd6c4ccaf42499dc9aa869460c33cb17763d949",
          "blockNumber": "0x7d1585",
          "transactionHash": "0xb51c5a6de0b777a81145e43b2782445613dd48689f7f21e5e9675459622da659",
          "transactionIndex": "0x1",
          "logIndex": "0x0",
          "removed": false
        }
      ],
      "status": "0x1",
      "logsBloom": "0x00000000080000000000000000000000401000000000000000000000000000000000000000000000000000000000000000000000000000000000000000000000000000000000000100000000000002000000000000000000000000000000000000000000000000000000000000000000000000000000000000000000000000000000000000000000000000000000000000000000000000000000000000001020000000000000000000000000000000000000000000000000000000000000000000000020000000000000000000000000000000000000000000000080000000000000000000000000000000000000000000000000000000000000000000000000",
      "type": "0x2",
      "effectiveGasPrice": "0x5f5e100"
    },
    {
      "transactionHash": "0x46f496148194b5555c957cc22f3eafd7aaa66ba58797c46148e491a82090707e",
      "transactionIndex": "0x1",
      "blockHash": "0x203be28d21d453513b646e70b2096f5ea95862e5ded3240b9df2ba9b314c807a",
      "blockNumber": "0x7d158a",
      "from": "0x077A79ab65cAAbAa684f34Cc22aCa911742690E0",
      "to": "0x9E410000a10A32396C44f6bCdB228bBac4758F65",
      "cumulativeGasUsed": "0x3d3e8",
      "gasUsed": "0x3d3e8",
      "contractAddress": null,
      "logs": [
        {
          "address": "0x8ceD3df1c33b134F6e7190b3b9C8Af0BAFeA80Dd",
          "topics": [
            "0xbc7cd75a20ee27fd9adebab32041f755214dbc6bffa90cc0225b39da2e5c2d3b",
            "0x0000000000000000000000000cb416acf949a44012deb71965df4dfff20be345"
          ],
          "data": "0x",
          "blockHash": "0x203be28d21d453513b646e70b2096f5ea95862e5ded3240b9df2ba9b314c807a",
          "blockNumber": "0x7d158a",
          "transactionHash": "0x46f496148194b5555c957cc22f3eafd7aaa66ba58797c46148e491a82090707e",
          "transactionIndex": "0x1",
          "logIndex": "0x0",
          "removed": false
        }
      ],
      "status": "0x1",
      "logsBloom": "0x00000000080000000000200000000000400000000000000000000000000000000000000000000000000000000000000000000000000000000000000000000000000000000000000100000000000002000000000000000000000000000000000000000000000000000000000000000000000000000000000000000000000000000000000000000000000000200000000000000000000000000000000000000000000000000000000000000000000000000000000000000000000000000000000000000020000000000000000000000000000000000000000000000082000000000000000000000000000000000000000000000000000000000000000000000000",
      "type": "0x2",
      "effectiveGasPrice": "0x5f5e100"
    },
    {
      "transactionHash": "0x72f798d5b06f561423ebb4ba6406b6d263768c01a2be29602261587367c03f0f",
      "transactionIndex": "0x1",
      "blockHash": "0x7f18271d5a9d7a189e05bb436ae623fb014ae0ad1c3cff693943019cfb8d64a4",
      "blockNumber": "0x7d158e",
      "from": "0x077A79ab65cAAbAa684f34Cc22aCa911742690E0",
      "to": "0xceBD1a3E9aaD7E60eDD509809e7f9cFF449b7851",
      "cumulativeGasUsed": "0x2dec8",
      "gasUsed": "0x2dec8",
      "contractAddress": null,
      "logs": [
        {
          "address": "0xceBD1a3E9aaD7E60eDD509809e7f9cFF449b7851",
          "topics": [
            "0x8c5be1e5ebec7d5bd14f71427d1e84f3dd0314c0f7b2291e5b200ac8c7c3b925",
            "0x000000000000000000000000077a79ab65caabaa684f34cc22aca911742690e0",
            "0x00000000000000000000000094132a5da7192a0f0d85235b8921f3153f9d5e23"
          ],
          "data": "0x00000000000000000000000000000000000000000000000002c68af0bb140000",
          "blockHash": "0x7f18271d5a9d7a189e05bb436ae623fb014ae0ad1c3cff693943019cfb8d64a4",
          "blockNumber": "0x7d158e",
          "transactionHash": "0x72f798d5b06f561423ebb4ba6406b6d263768c01a2be29602261587367c03f0f",
          "transactionIndex": "0x1",
          "logIndex": "0x0",
          "removed": false
        }
      ],
      "status": "0x1",
      "logsBloom": "0x00000000000000000000000000000000000000000000000000000000000000000000000000000000000080000000000000000000000000000000001008200000000800000000000000000000000000000000002000000000000000000000000000000000000000000000000000000000000000000000000000000000000000000000000000000000000000000000000000000000000000000200000000200000020000000000000000000000000000000000000000000000000000000000000000000000000000000040000000000000000000000000000000000000000000000010000000000000000000000000000000000008000000000000000000000000",
      "type": "0x2",
      "effectiveGasPrice": "0x5f5e100"
    },
    {
      "transactionHash": "0xe539ba95a67346ec5821b0706ccf0dedf89e0284fb20ab0f0e150ff22a1c43fd",
      "transactionIndex": "0x1",
      "blockHash": "0xbe72ce4b4312f12408d72b6be13f9bc749c13a47a9d54b811f6565087289f0a7",
      "blockNumber": "0x7d1595",
      "from": "0x077A79ab65cAAbAa684f34Cc22aCa911742690E0",
      "to": "0x94132a5Da7192a0f0D85235b8921f3153F9D5E23",
      "cumulativeGasUsed": "0x74628",
      "gasUsed": "0x74628",
      "contractAddress": null,
      "logs": [
        {
          "address": "0xceBD1a3E9aaD7E60eDD509809e7f9cFF449b7851",
          "topics": [
            "0xddf252ad1be2c89b69c2b068fc378daa952ba7f163c4a11628f55a4df523b3ef",
            "0x000000000000000000000000077a79ab65caabaa684f34cc22aca911742690e0",
            "0x00000000000000000000000094132a5da7192a0f0d85235b8921f3153f9d5e23"
          ],
          "data": "0x000000000000000000000000000000000000000000000000016345785d8a0000",
          "blockHash": "0xbe72ce4b4312f12408d72b6be13f9bc749c13a47a9d54b811f6565087289f0a7",
          "blockNumber": "0x7d1595",
          "transactionHash": "0xe539ba95a67346ec5821b0706ccf0dedf89e0284fb20ab0f0e150ff22a1c43fd",
          "transactionIndex": "0x1",
          "logIndex": "0x0",
          "removed": false
        },
        {
          "address": "0xd7a9794eed0dA4F18A56A84FFE57E53262eae316",
          "topics": [
            "0xddf252ad1be2c89b69c2b068fc378daa952ba7f163c4a11628f55a4df523b3ef",
            "0x0000000000000000000000000000000000000000000000000000000000000000",
            "0x000000000000000000000000077a79ab65caabaa684f34cc22aca911742690e0"
          ],
          "data": "0x00000000000000000000000000000000000000000000000d27a1a6cdd96bc000",
          "blockHash": "0xbe72ce4b4312f12408d72b6be13f9bc749c13a47a9d54b811f6565087289f0a7",
          "blockNumber": "0x7d1595",
          "transactionHash": "0xe539ba95a67346ec5821b0706ccf0dedf89e0284fb20ab0f0e150ff22a1c43fd",
          "transactionIndex": "0x1",
          "logIndex": "0x1",
          "removed": false
        },
        {
          "address": "0x94132a5Da7192a0f0D85235b8921f3153F9D5E23",
          "topics": [
            "0x7309ef3b726eaaa68f8c2718c3792a5573fc273c7a8a7f2daa65dc739b845952",
            "0x000000000000000000000000077a79ab65caabaa684f34cc22aca911742690e0",
            "0x5745544800000000000000000000000000000000000000000000000000000000"
          ],
          "data": "0x000000000000000000000000077a79ab65caabaa684f34cc22aca911742690e0000000000000000000000000000000000000000000000000016345785d8a000000000000000000000000000000000000000000000000000d27a1a6cdd96bc000",
          "blockHash": "0xbe72ce4b4312f12408d72b6be13f9bc749c13a47a9d54b811f6565087289f0a7",
          "blockNumber": "0x7d1595",
          "transactionHash": "0xe539ba95a67346ec5821b0706ccf0dedf89e0284fb20ab0f0e150ff22a1c43fd",
          "transactionIndex": "0x1",
          "logIndex": "0x2",
          "removed": false
        }
      ],
      "status": "0x1",
      "logsBloom": "0x00000000000000000000000000000000000004000000000002000000000000000000000000000000000080000000000000000000000000000000001008000000000800000000000000000008000000000000002000000000000000000000000000000000120800000000000000001800000000000000000000000010000000000000020000000000000000000000000000000000000000000220000000202000000000000000000000000000000000000000000200000000800000000000000000000002000000000040000000000000000010000000000000000000000020000000000000000000000000000000000000000208000000000000000000000000",
      "type": "0x2",
      "effectiveGasPrice": "0x5f5e100"
    },
    {
      "transactionHash": "0xa64f0cdf79330619acaa72b08c0fe2f726b22546f741719d3f5e7b43bedae191",
      "transactionIndex": "0x1",
      "blockHash": "0xb65d186d6ff33fc1d529619b3d7b6bf86efc16da868029823b836457df333f69",
      "blockNumber": "0x7d1598",
      "from": "0x077A79ab65cAAbAa684f34Cc22aCa911742690E0",
      "to": "0x94132a5Da7192a0f0D85235b8921f3153F9D5E23",
      "cumulativeGasUsed": "0x7465f",
      "gasUsed": "0x7465f",
      "contractAddress": null,
      "logs": [
        {
          "address": "0xceBD1a3E9aaD7E60eDD509809e7f9cFF449b7851",
          "topics": [
            "0xddf252ad1be2c89b69c2b068fc378daa952ba7f163c4a11628f55a4df523b3ef",
            "0x000000000000000000000000077a79ab65caabaa684f34cc22aca911742690e0",
            "0x00000000000000000000000094132a5da7192a0f0d85235b8921f3153f9d5e23"
          ],
          "data": "0x000000000000000000000000000000000000000000000000009267adc0552d76",
          "blockHash": "0xb65d186d6ff33fc1d529619b3d7b6bf86efc16da868029823b836457df333f69",
          "blockNumber": "0x7d1598",
          "transactionHash": "0xa64f0cdf79330619acaa72b08c0fe2f726b22546f741719d3f5e7b43bedae191",
          "transactionIndex": "0x1",
          "logIndex": "0x0",
          "removed": false
        },
        {
          "address": "0xd7a9794eed0dA4F18A56A84FFE57E53262eae316",
          "topics": [
            "0xddf252ad1be2c89b69c2b068fc378daa952ba7f163c4a11628f55a4df523b3ef",
            "0x0000000000000000000000000000000000000000000000000000000000000000",
            "0x000000000000000000000000077a79ab65caabaa684f34cc22aca911742690e0"
          ],
          "data": "0x0000000000000000000000000000000000000000000000056bc75e2d63100000",
          "blockHash": "0xb65d186d6ff33fc1d529619b3d7b6bf86efc16da868029823b836457df333f69",
          "blockNumber": "0x7d1598",
          "transactionHash": "0xa64f0cdf79330619acaa72b08c0fe2f726b22546f741719d3f5e7b43bedae191",
          "transactionIndex": "0x1",
          "logIndex": "0x1",
          "removed": false
        },
        {
          "address": "0x94132a5Da7192a0f0D85235b8921f3153F9D5E23",
          "topics": [
            "0x7309ef3b726eaaa68f8c2718c3792a5573fc273c7a8a7f2daa65dc739b845952",
            "0x000000000000000000000000077a79ab65caabaa684f34cc22aca911742690e0",
            "0x5745544800000000000000000000000000000000000000000000000000000000"
          ],
          "data": "0x000000000000000000000000077a79ab65caabaa684f34cc22aca911742690e0000000000000000000000000000000000000000000000000009267adc0552d760000000000000000000000000000000000000000000000056bc75e2d63100000",
          "blockHash": "0xb65d186d6ff33fc1d529619b3d7b6bf86efc16da868029823b836457df333f69",
          "blockNumber": "0x7d1598",
          "transactionHash": "0xa64f0cdf79330619acaa72b08c0fe2f726b22546f741719d3f5e7b43bedae191",
          "transactionIndex": "0x1",
          "logIndex": "0x2",
          "removed": false
        }
      ],
      "status": "0x1",
      "logsBloom": "0x00000000000000000000000000000000000004000000000002000000000000000000000000000000000080000000000000000000000000000000001008000000000800000000000000000008000000000000002000000000000000000000000000000000120800000000000000001800000000000000000000000010000000000000020000000000000000000000000000000000000000000220000000202000000000000000000000000000000000000000000200000000800000000000000000000002000000000040000000000000000010000000000000000000000020000000000000000000000000000000000000000208000000000000000000000000",
      "type": "0x2",
      "effectiveGasPrice": "0x5f5e100"
    },
    {
      "transactionHash": "0x7fac5a712f91e768741ccb55a7330072b79a6690ae948730ce0bdfaacb1d2077",
      "transactionIndex": "0x1",
      "blockHash": "0x721725ee51ca2e76a325feb2be044a0cc902ee8dab4678573c55c5b7ef1a8502",
      "blockNumber": "0x7d159d",
      "from": "0x077A79ab65cAAbAa684f34Cc22aCa911742690E0",
      "to": "0x94132a5Da7192a0f0D85235b8921f3153F9D5E23",
      "cumulativeGasUsed": "0x72f56",
      "gasUsed": "0x72f56",
      "contractAddress": null,
      "logs": [
        {
          "address": "0xd7a9794eed0dA4F18A56A84FFE57E53262eae316",
          "topics": [
            "0xddf252ad1be2c89b69c2b068fc378daa952ba7f163c4a11628f55a4df523b3ef",
            "0x000000000000000000000000077a79ab65caabaa684f34cc22aca911742690e0",
            "0x0000000000000000000000000000000000000000000000000000000000000000"
          ],
          "data": "0x0000000000000000000000000000000000000000000000069423f593fc746000",
          "blockHash": "0x721725ee51ca2e76a325feb2be044a0cc902ee8dab4678573c55c5b7ef1a8502",
          "blockNumber": "0x7d159d",
          "transactionHash": "0x7fac5a712f91e768741ccb55a7330072b79a6690ae948730ce0bdfaacb1d2077",
          "transactionIndex": "0x1",
          "logIndex": "0x0",
          "removed": false
        },
        {
          "address": "0xceBD1a3E9aaD7E60eDD509809e7f9cFF449b7851",
          "topics": [
            "0xddf252ad1be2c89b69c2b068fc378daa952ba7f163c4a11628f55a4df523b3ef",
            "0x00000000000000000000000094132a5da7192a0f0d85235b8921f3153f9d5e23",
            "0x000000000000000000000000077a79ab65caabaa684f34cc22aca911742690e0"
          ],
          "data": "0x00000000000000000000000000000000000000000000000000b1ab815d88b5de",
          "blockHash": "0x721725ee51ca2e76a325feb2be044a0cc902ee8dab4678573c55c5b7ef1a8502",
          "blockNumber": "0x7d159d",
          "transactionHash": "0x7fac5a712f91e768741ccb55a7330072b79a6690ae948730ce0bdfaacb1d2077",
          "transactionIndex": "0x1",
          "logIndex": "0x1",
          "removed": false
        },
        {
          "address": "0x94132a5Da7192a0f0D85235b8921f3153F9D5E23",
          "topics": [
            "0x639027de0b31595783caf0e0f3f582389fb1b77298da6a2eed289c7f0e51857e",
            "0x000000000000000000000000077a79ab65caabaa684f34cc22aca911742690e0",
            "0x5745544800000000000000000000000000000000000000000000000000000000"
          ],
          "data": "0x000000000000000000000000077a79ab65caabaa684f34cc22aca911742690e00000000000000000000000000000000000000000000000069423f593fc74600000000000000000000000000000000000000000000000000000b1ab815d88b5de",
          "blockHash": "0x721725ee51ca2e76a325feb2be044a0cc902ee8dab4678573c55c5b7ef1a8502",
          "blockNumber": "0x7d159d",
          "transactionHash": "0x7fac5a712f91e768741ccb55a7330072b79a6690ae948730ce0bdfaacb1d2077",
          "transactionIndex": "0x1",
          "logIndex": "0x2",
          "removed": false
        }
      ],
      "status": "0x1",
      "logsBloom": "0x00000000000000000000000000000000000004000000000002000000000000000000000000000000000080000000000000000000000000000000001008000020000800000000000000000008000000000000002000000000000000000000000000000000120000000000000000001800000800000000000000000010000000000000020000000000000000000000000000000000000000000220000000200000000000000000000000000000000000000000000200004000800000000000000000000002000000000040000000000000000010000000000000000000000020000000000000000000000000000000000000000008000000000000000000000000",
      "type": "0x2",
      "effectiveGasPrice": "0x5f5e100"
    },
    {
      "transactionHash": "0x9203e0a948f3c3c1e5229653b934fa80385c3a53ca3821dad1c41ad351e6b3f7",
      "transactionIndex": "0x1",
      "blockHash": "0x47194728fca41e766756c9d5b0321ef23e171972e1d0394dfdf5ca425bef040b",
      "blockNumber": "0x7d15a6",
      "from": "0x077A79ab65cAAbAa684f34Cc22aCa911742690E0",
      "to": "0x94132a5Da7192a0f0D85235b8921f3153F9D5E23",
      "cumulativeGasUsed": "0x72f66",
      "gasUsed": "0x72f66",
      "contractAddress": null,
      "logs": [
        {
          "address": "0xd7a9794eed0dA4F18A56A84FFE57E53262eae316",
          "topics": [
            "0xddf252ad1be2c89b69c2b068fc378daa952ba7f163c4a11628f55a4df523b3ef",
            "0x000000000000000000000000077a79ab65caabaa684f34cc22aca911742690e0",
            "0x0000000000000000000000000000000000000000000000000000000000000000"
          ],
          "data": "0x000000000000000000000000000000000000000000000002b6248b21ccff688f",
          "blockHash": "0x47194728fca41e766756c9d5b0321ef23e171972e1d0394dfdf5ca425bef040b",
          "blockNumber": "0x7d15a6",
          "transactionHash": "0x9203e0a948f3c3c1e5229653b934fa80385c3a53ca3821dad1c41ad351e6b3f7",
          "transactionIndex": "0x1",
          "logIndex": "0x0",
          "removed": false
        },
        {
          "address": "0xceBD1a3E9aaD7E60eDD509809e7f9cFF449b7851",
          "topics": [
            "0xddf252ad1be2c89b69c2b068fc378daa952ba7f163c4a11628f55a4df523b3ef",
            "0x00000000000000000000000094132a5da7192a0f0d85235b8921f3153f9d5e23",
            "0x000000000000000000000000077a79ab65caabaa684f34cc22aca911742690e0"
          ],
          "data": "0x00000000000000000000000000000000000000000000000000493039d43ba4b6",
          "blockHash": "0x47194728fca41e766756c9d5b0321ef23e171972e1d0394dfdf5ca425bef040b",
          "blockNumber": "0x7d15a6",
          "transactionHash": "0x9203e0a948f3c3c1e5229653b934fa80385c3a53ca3821dad1c41ad351e6b3f7",
          "transactionIndex": "0x1",
          "logIndex": "0x1",
          "removed": false
        },
        {
          "address": "0x94132a5Da7192a0f0D85235b8921f3153F9D5E23",
          "topics": [
            "0x639027de0b31595783caf0e0f3f582389fb1b77298da6a2eed289c7f0e51857e",
            "0x000000000000000000000000077a79ab65caabaa684f34cc22aca911742690e0",
            "0x5745544800000000000000000000000000000000000000000000000000000000"
          ],
          "data": "0x000000000000000000000000077a79ab65caabaa684f34cc22aca911742690e0000000000000000000000000000000000000000000000002b6248b21ccff688f00000000000000000000000000000000000000000000000000493039d43ba4b6",
          "blockHash": "0x47194728fca41e766756c9d5b0321ef23e171972e1d0394dfdf5ca425bef040b",
          "blockNumber": "0x7d15a6",
          "transactionHash": "0x9203e0a948f3c3c1e5229653b934fa80385c3a53ca3821dad1c41ad351e6b3f7",
          "transactionIndex": "0x1",
          "logIndex": "0x2",
          "removed": false
        }
      ],
      "status": "0x1",
      "logsBloom": "0x00000000000000000000000000000000000004000000000002000000000000000000000000000000000080000000000000000000000000000000001008000020000800000000000000000008000000000000002000000000000000000000000000000000120000000000000000001800000800000000000000000010000000000000020000000000000000000000000000000000000000000220000000200000000000000000000000000000000000000000000200004000800000000000000000000002000000000040000000000000000010000000000000000000000020000000000000000000000000000000000000000008000000000000000000000000",
      "type": "0x2",
      "effectiveGasPrice": "0x5f5e100"
    },
    {
      "transactionHash": "0x3339a1aa4fd34deb97842f982d367e8b5c7ca48052794389a02c13bdddff53c1",
      "transactionIndex": "0x1",
      "blockHash": "0xaa08bf855d4ef36d9ac6f8b24ba7ba970d0ac1479efaa7a3394afbc53ab7ab58",
      "blockNumber": "0x7d15ae",
      "from": "0x077A79ab65cAAbAa684f34Cc22aCa911742690E0",
      "to": "0x39E618D761fdD06bF65065d2974128aAeC7b3Fed",
      "cumulativeGasUsed": "0x2dea5",
      "gasUsed": "0x2dea5",
      "contractAddress": null,
      "logs": [
        {
          "address": "0x39E618D761fdD06bF65065d2974128aAeC7b3Fed",
          "topics": [
            "0x8c5be1e5ebec7d5bd14f71427d1e84f3dd0314c0f7b2291e5b200ac8c7c3b925",
            "0x000000000000000000000000077a79ab65caabaa684f34cc22aca911742690e0",
            "0x00000000000000000000000094132a5da7192a0f0d85235b8921f3153f9d5e23"
          ],
          "data": "0x000000000000000000000000000000000000000000000000000001d1a94a2000",
          "blockHash": "0xaa08bf855d4ef36d9ac6f8b24ba7ba970d0ac1479efaa7a3394afbc53ab7ab58",
          "blockNumber": "0x7d15ae",
          "transactionHash": "0x3339a1aa4fd34deb97842f982d367e8b5c7ca48052794389a02c13bdddff53c1",
          "transactionIndex": "0x1",
          "logIndex": "0x0",
          "removed": false
        }
      ],
      "status": "0x1",
      "logsBloom": "0x00000000000000000000000000000000000000000000000000000000000000000000000000000000000000000000000000020000000000000000000008200000000800000000000000000000000000000000002000004000000000000000000000000000000000000000000000000000000000000000000000000000000000000000000000000000000000000000000000000008000000000200000000000000020000000000000000000000000000000000000000000000000000000000000000000000000000000040000000000000000000000000000000000000000000000010000000000000000000000000000000000008000000000000000000000000",
      "type": "0x2",
      "effectiveGasPrice": "0x5f5e100"
    },
    {
      "transactionHash": "0xe392d9430d3738a2f364fc35ed06075c2d88241d3f10eb82e39bf75a069c4d9f",
      "transactionIndex": "0x1",
      "blockHash": "0x06c383e84b40a83c1851f93e24ae5f1897ee60da8a330d50da419e883005ee7a",
      "blockNumber": "0x7d15b6",
      "from": "0x077A79ab65cAAbAa684f34Cc22aCa911742690E0",
      "to": "0x94132a5Da7192a0f0D85235b8921f3153F9D5E23",
      "cumulativeGasUsed": "0x70693",
      "gasUsed": "0x70693",
      "contractAddress": null,
      "logs": [
        {
          "address": "0x39E618D761fdD06bF65065d2974128aAeC7b3Fed",
          "topics": [
            "0xddf252ad1be2c89b69c2b068fc378daa952ba7f163c4a11628f55a4df523b3ef",
            "0x000000000000000000000000077a79ab65caabaa684f34cc22aca911742690e0",
            "0x00000000000000000000000094132a5da7192a0f0d85235b8921f3153f9d5e23"
          ],
          "data": "0x000000000000000000000000000000000000000000000000000000e8d4a51000",
          "blockHash": "0x06c383e84b40a83c1851f93e24ae5f1897ee60da8a330d50da419e883005ee7a",
          "blockNumber": "0x7d15b6",
          "transactionHash": "0xe392d9430d3738a2f364fc35ed06075c2d88241d3f10eb82e39bf75a069c4d9f",
          "transactionIndex": "0x1",
          "logIndex": "0x0",
          "removed": false
        },
        {
          "address": "0xd7a9794eed0dA4F18A56A84FFE57E53262eae316",
          "topics": [
            "0xddf252ad1be2c89b69c2b068fc378daa952ba7f163c4a11628f55a4df523b3ef",
            "0x0000000000000000000000000000000000000000000000000000000000000000",
            "0x000000000000000000000000077a79ab65caabaa684f34cc22aca911742690e0"
          ],
          "data": "0x00000000000000000000000000000000000000000000d3f2d54d61d429d90000",
          "blockHash": "0x06c383e84b40a83c1851f93e24ae5f1897ee60da8a330d50da419e883005ee7a",
          "blockNumber": "0x7d15b6",
          "transactionHash": "0xe392d9430d3738a2f364fc35ed06075c2d88241d3f10eb82e39bf75a069c4d9f",
          "transactionIndex": "0x1",
          "logIndex": "0x1",
          "removed": false
        },
        {
          "address": "0x94132a5Da7192a0f0D85235b8921f3153F9D5E23",
          "topics": [
            "0x7309ef3b726eaaa68f8c2718c3792a5573fc273c7a8a7f2daa65dc739b845952",
            "0x000000000000000000000000077a79ab65caabaa684f34cc22aca911742690e0",
            "0x5553444300000000000000000000000000000000000000000000000000000000"
          ],
          "data": "0x000000000000000000000000077a79ab65caabaa684f34cc22aca911742690e0000000000000000000000000000000000000000000000000000000e8d4a5100000000000000000000000000000000000000000000000d3f2d54d61d429d90000",
          "blockHash": "0x06c383e84b40a83c1851f93e24ae5f1897ee60da8a330d50da419e883005ee7a",
          "blockNumber": "0x7d15b6",
          "transactionHash": "0xe392d9430d3738a2f364fc35ed06075c2d88241d3f10eb82e39bf75a069c4d9f",
          "transactionIndex": "0x1",
          "logIndex": "0x2",
          "removed": false
        }
      ],
      "status": "0x1",
      "logsBloom": "0x00000000000000000000000000000000000004000000000000000000000000000000000000000000001000000000000000020000000000000000000008000000000800000000000000000008000000000000002000004000000000000000000000000000020800000000000000001800000000000000000000000010000000000000020000000000000000000000000000000008000000000220000000002000000000000000000000000000000000000000000200000000800000000000000010000202000000000040000000000000000000000000000000000000000020000000000000000000000000000000000000000208000000000000000000000000",
      "type": "0x2",
      "effectiveGasPrice": "0x5f5e100"
    },
    {
      "transactionHash": "0x673a2ec0b322e5d5408b429ae681f821cce5beddd9893d90be66f12fd99db562",
      "transactionIndex": "0x1",
      "blockHash": "0x539209088737e8117f31010e94299a381a60696b83f91f7f30b8def206d7861e",
      "blockNumber": "0x7d15be",
      "from": "0x077A79ab65cAAbAa684f34Cc22aCa911742690E0",
      "to": "0x94132a5Da7192a0f0D85235b8921f3153F9D5E23",
      "cumulativeGasUsed": "0x6c3fe",
      "gasUsed": "0x6c3fe",
      "contractAddress": null,
      "logs": [
        {
          "address": "0x39E618D761fdD06bF65065d2974128aAeC7b3Fed",
          "topics": [
            "0xddf252ad1be2c89b69c2b068fc378daa952ba7f163c4a11628f55a4df523b3ef",
            "0x000000000000000000000000077a79ab65caabaa684f34cc22aca911742690e0",
            "0x00000000000000000000000094132a5da7192a0f0d85235b8921f3153f9d5e23"
          ],
          "data": "0x000000000000000000000000000000000000000000000000000000003b8d162d",
          "blockHash": "0x539209088737e8117f31010e94299a381a60696b83f91f7f30b8def206d7861e",
          "blockNumber": "0x7d15be",
          "transactionHash": "0x673a2ec0b322e5d5408b429ae681f821cce5beddd9893d90be66f12fd99db562",
          "transactionIndex": "0x1",
          "logIndex": "0x0",
          "removed": false
        },
        {
          "address": "0xd7a9794eed0dA4F18A56A84FFE57E53262eae316",
          "topics": [
            "0xddf252ad1be2c89b69c2b068fc378daa952ba7f163c4a11628f55a4df523b3ef",
            "0x0000000000000000000000000000000000000000000000000000000000000000",
            "0x000000000000000000000000077a79ab65caabaa684f34cc22aca911742690e0"
          ],
          "data": "0x00000000000000000000000000000000000000000000003635c9adc5dea00000",
          "blockHash": "0x539209088737e8117f31010e94299a381a60696b83f91f7f30b8def206d7861e",
          "blockNumber": "0x7d15be",
          "transactionHash": "0x673a2ec0b322e5d5408b429ae681f821cce5beddd9893d90be66f12fd99db562",
          "transactionIndex": "0x1",
          "logIndex": "0x1",
          "removed": false
        },
        {
          "address": "0x94132a5Da7192a0f0D85235b8921f3153F9D5E23",
          "topics": [
            "0x7309ef3b726eaaa68f8c2718c3792a5573fc273c7a8a7f2daa65dc739b845952",
            "0x000000000000000000000000077a79ab65caabaa684f34cc22aca911742690e0",
            "0x5553444300000000000000000000000000000000000000000000000000000000"
          ],
          "data": "0x000000000000000000000000077a79ab65caabaa684f34cc22aca911742690e0000000000000000000000000000000000000000000000000000000003b8d162d00000000000000000000000000000000000000000000003635c9adc5dea00000",
          "blockHash": "0x539209088737e8117f31010e94299a381a60696b83f91f7f30b8def206d7861e",
          "blockNumber": "0x7d15be",
          "transactionHash": "0x673a2ec0b322e5d5408b429ae681f821cce5beddd9893d90be66f12fd99db562",
          "transactionIndex": "0x1",
          "logIndex": "0x2",
          "removed": false
        }
      ],
      "status": "0x1",
      "logsBloom": "0x00000000000000000000000000000000000004000000000000000000000000000000000000000000001000000000000000020000000000000000000008000000000800000000000000000008000000000000002000004000000000000000000000000000020800000000000000001800000000000000000000000010000000000000020000000000000000000000000000000008000000000220000000002000000000000000000000000000000000000000000200000000800000000000000010000202000000000040000000000000000000000000000000000000000020000000000000000000000000000000000000000208000000000000000000000000",
      "type": "0x2",
      "effectiveGasPrice": "0x5f5e100"
    },
    {
      "transactionHash": "0x72611ad98086a74ef6e7db68f2d35deb6e025c7a084ca1ba0f5c5f8637fd830e",
      "transactionIndex": "0x1",
      "blockHash": "0xbe71d568efa31e0ac8c5cc929587ad31c0cba15d8836f353ea2eed1139acc4f7",
      "blockNumber": "0x7d15c5",
      "from": "0x077A79ab65cAAbAa684f34Cc22aCa911742690E0",
      "to": "0x94132a5Da7192a0f0D85235b8921f3153F9D5E23",
      "cumulativeGasUsed": "0x6ad57",
      "gasUsed": "0x6ad57",
      "contractAddress": null,
      "logs": [
        {
          "address": "0xd7a9794eed0dA4F18A56A84FFE57E53262eae316",
          "topics": [
            "0xddf252ad1be2c89b69c2b068fc378daa952ba7f163c4a11628f55a4df523b3ef",
            "0x000000000000000000000000077a79ab65caabaa684f34cc22aca911742690e0",
            "0x0000000000000000000000000000000000000000000000000000000000000000"
          ],
          "data": "0x0000000000000000000000000000000000000000000069f96aa6b0ea14ec8000",
          "blockHash": "0xbe71d568efa31e0ac8c5cc929587ad31c0cba15d8836f353ea2eed1139acc4f7",
          "blockNumber": "0x7d15c5",
          "transactionHash": "0x72611ad98086a74ef6e7db68f2d35deb6e025c7a084ca1ba0f5c5f8637fd830e",
          "transactionIndex": "0x1",
          "logIndex": "0x0",
          "removed": false
        },
        {
          "address": "0x39E618D761fdD06bF65065d2974128aAeC7b3Fed",
          "topics": [
            "0xddf252ad1be2c89b69c2b068fc378daa952ba7f163c4a11628f55a4df523b3ef",
            "0x00000000000000000000000094132a5da7192a0f0d85235b8921f3153f9d5e23",
            "0x000000000000000000000000077a79ab65caabaa684f34cc22aca911742690e0"
          ],
          "data": "0x000000000000000000000000000000000000000000000000000000746a528800",
          "blockHash": "0xbe71d568efa31e0ac8c5cc929587ad31c0cba15d8836f353ea2eed1139acc4f7",
          "blockNumber": "0x7d15c5",
          "transactionHash": "0x72611ad98086a74ef6e7db68f2d35deb6e025c7a084ca1ba0f5c5f8637fd830e",
          "transactionIndex": "0x1",
          "logIndex": "0x1",
          "removed": false
        },
        {
          "address": "0x94132a5Da7192a0f0D85235b8921f3153F9D5E23",
          "topics": [
            "0x639027de0b31595783caf0e0f3f582389fb1b77298da6a2eed289c7f0e51857e",
            "0x000000000000000000000000077a79ab65caabaa684f34cc22aca911742690e0",
            "0x5553444300000000000000000000000000000000000000000000000000000000"
          ],
          "data": "0x000000000000000000000000077a79ab65caabaa684f34cc22aca911742690e00000000000000000000000000000000000000000000069f96aa6b0ea14ec8000000000000000000000000000000000000000000000000000000000746a528800",
          "blockHash": "0xbe71d568efa31e0ac8c5cc929587ad31c0cba15d8836f353ea2eed1139acc4f7",
          "blockNumber": "0x7d15c5",
          "transactionHash": "0x72611ad98086a74ef6e7db68f2d35deb6e025c7a084ca1ba0f5c5f8637fd830e",
          "transactionIndex": "0x1",
          "logIndex": "0x2",
          "removed": false
        }
      ],
      "status": "0x1",
      "logsBloom": "0x00000000000000000000000000000000000004000000000000000000000000000000000000000000001000000000000000020000000000000000000008000020000800000000000000000008000000000000002000004000000000000000000000000000020000000000000000001800000800000000000000000010000000000000020000000000000000000000000000000008000000000220000000000000000000000000000000000000000000000000000200004000800000000000000010000202000000000040000000000000000000000000000000000000000020000000000000000000000000000000000000000008000000000000000000000000",
      "type": "0x2",
      "effectiveGasPrice": "0x5f5e100"
    },
    {
      "transactionHash": "0x310bc1f392987f30ce8c5adb6f944b579647e6faa2cece936b9025c10089cc3c",
      "transactionIndex": "0x1",
      "blockHash": "0x919b5a2f2fe66310689407b32a0c7d7a7491b2b9e17bd6f39ffb036b439bf727",
      "blockNumber": "0x7d15cc",
      "from": "0x077A79ab65cAAbAa684f34Cc22aCa911742690E0",
      "to": "0x94132a5Da7192a0f0D85235b8921f3153F9D5E23",
      "cumulativeGasUsed": "0x6ad37",
      "gasUsed": "0x6ad37",
      "contractAddress": null,
      "logs": [
        {
          "address": "0xd7a9794eed0dA4F18A56A84FFE57E53262eae316",
          "topics": [
            "0xddf252ad1be2c89b69c2b068fc378daa952ba7f163c4a11628f55a4df523b3ef",
            "0x000000000000000000000000077a79ab65caabaa684f34cc22aca911742690e0",
            "0x0000000000000000000000000000000000000000000000000000000000000000"
          ],
          "data": "0x00000000000000000000000000000000000000000000001b1ae4d65ece6a1c60",
          "blockHash": "0x919b5a2f2fe66310689407b32a0c7d7a7491b2b9e17bd6f39ffb036b439bf727",
          "blockNumber": "0x7d15cc",
          "transactionHash": "0x310bc1f392987f30ce8c5adb6f944b579647e6faa2cece936b9025c10089cc3c",
          "transactionIndex": "0x1",
          "logIndex": "0x0",
          "removed": false
        },
        {
          "address": "0x39E618D761fdD06bF65065d2974128aAeC7b3Fed",
          "topics": [
            "0xddf252ad1be2c89b69c2b068fc378daa952ba7f163c4a11628f55a4df523b3ef",
            "0x00000000000000000000000094132a5da7192a0f0d85235b8921f3153f9d5e23",
            "0x000000000000000000000000077a79ab65caabaa684f34cc22aca911742690e0"
          ],
          "data": "0x000000000000000000000000000000000000000000000000000000001dc68b16",
          "blockHash": "0x919b5a2f2fe66310689407b32a0c7d7a7491b2b9e17bd6f39ffb036b439bf727",
          "blockNumber": "0x7d15cc",
          "transactionHash": "0x310bc1f392987f30ce8c5adb6f944b579647e6faa2cece936b9025c10089cc3c",
          "transactionIndex": "0x1",
          "logIndex": "0x1",
          "removed": false
        },
        {
          "address": "0x94132a5Da7192a0f0D85235b8921f3153F9D5E23",
          "topics": [
            "0x639027de0b31595783caf0e0f3f582389fb1b77298da6a2eed289c7f0e51857e",
            "0x000000000000000000000000077a79ab65caabaa684f34cc22aca911742690e0",
            "0x5553444300000000000000000000000000000000000000000000000000000000"
          ],
          "data": "0x000000000000000000000000077a79ab65caabaa684f34cc22aca911742690e000000000000000000000000000000000000000000000001b1ae4d65ece6a1c60000000000000000000000000000000000000000000000000000000001dc68b16",
          "blockHash": "0x919b5a2f2fe66310689407b32a0c7d7a7491b2b9e17bd6f39ffb036b439bf727",
          "blockNumber": "0x7d15cc",
          "transactionHash": "0x310bc1f392987f30ce8c5adb6f944b579647e6faa2cece936b9025c10089cc3c",
          "transactionIndex": "0x1",
          "logIndex": "0x2",
          "removed": false
        }
      ],
      "status": "0x1",
      "logsBloom": "0x00000000000000000000000000000000000004000000000000000000000000000000000000000000001000000000000000020000000000000000000008000020000800000000000000000008000000000000002000004000000000000000000000000000020000000000000000001800000800000000000000000010000000000000020000000000000000000000000000000008000000000220000000000000000000000000000000000000000000000000000200004000800000000000000010000202000000000040000000000000000000000000000000000000000020000000000000000000000000000000000000000008000000000000000000000000",
      "type": "0x2",
      "effectiveGasPrice": "0x5f5e100"
    },
    {
      "transactionHash": "0x8fa52270141d6ce5ad40468bc9a097cac091cf5e0144d8f39508348f95edac97",
      "transactionIndex": "0x1",
      "blockHash": "0x15ac9f23e27f802dfce4e1388fa98f8e637eb22d9116e3d3390e1277520c8424",
      "blockNumber": "0x7d15d1",
      "from": "0x077A79ab65cAAbAa684f34Cc22aCa911742690E0",
      "to": "0x4Ac0ED77C4375D48B51D56cc49b7710c3640b9c2",
      "cumulativeGasUsed": "0x2dea5",
      "gasUsed": "0x2dea5",
      "contractAddress": null,
      "logs": [
        {
          "address": "0x4Ac0ED77C4375D48B51D56cc49b7710c3640b9c2",
          "topics": [
            "0x8c5be1e5ebec7d5bd14f71427d1e84f3dd0314c0f7b2291e5b200ac8c7c3b925",
            "0x000000000000000000000000077a79ab65caabaa684f34cc22aca911742690e0",
            "0x00000000000000000000000094132a5da7192a0f0d85235b8921f3153f9d5e23"
          ],
          "data": "0x0000000000000000000000000000000000000000000000000000b5e620f48000",
          "blockHash": "0x15ac9f23e27f802dfce4e1388fa98f8e637eb22d9116e3d3390e1277520c8424",
          "blockNumber": "0x7d15d1",
          "transactionHash": "0x8fa52270141d6ce5ad40468bc9a097cac091cf5e0144d8f39508348f95edac97",
          "transactionIndex": "0x1",
          "logIndex": "0x0",
          "removed": false
        }
      ],
      "status": "0x1",
      "logsBloom": "0x00000000000000000000000000000000000000000000000000000000000000000000000000000000000000000000000000000000000000000000000008200000000800000000000000000000000000000000002000000000000000000000000000000000000010000000000000000000000000004000000000000000000000000000000000000000000000000000000000000000000000002200000000000000020000000000000000000000000000000000000000000000000000000000000000000000000000000040000000000000000000000000000000000000000000000010000000000000000000000000000000000008000000000000000000000000",
      "type": "0x2",
      "effectiveGasPrice": "0x5f5e100"
    },
    {
      "transactionHash": "0x9293a4651157856c9cd93894b64eeaca98535d74abd4e7e5aa853edb4c0524b9",
      "transactionIndex": "0x1",
      "blockHash": "0x091dc2b9b489848d1eb14d966590f57ce04e802d61e0e9459164a079332c9703",
      "blockNumber": "0x7d15d6",
      "from": "0x077A79ab65cAAbAa684f34Cc22aCa911742690E0",
      "to": "0x94132a5Da7192a0f0D85235b8921f3153F9D5E23",
      "cumulativeGasUsed": "0x6c3d3",
      "gasUsed": "0x6c3d3",
      "contractAddress": null,
      "logs": [
        {
          "address": "0x4Ac0ED77C4375D48B51D56cc49b7710c3640b9c2",
          "topics": [
            "0xddf252ad1be2c89b69c2b068fc378daa952ba7f163c4a11628f55a4df523b3ef",
            "0x000000000000000000000000077a79ab65caabaa684f34cc22aca911742690e0",
            "0x00000000000000000000000094132a5da7192a0f0d85235b8921f3153f9d5e23"
          ],
          "data": "0x00000000000000000000000000000000000000000000000000005af3107a4000",
          "blockHash": "0x091dc2b9b489848d1eb14d966590f57ce04e802d61e0e9459164a079332c9703",
          "blockNumber": "0x7d15d6",
          "transactionHash": "0x9293a4651157856c9cd93894b64eeaca98535d74abd4e7e5aa853edb4c0524b9",
          "transactionIndex": "0x1",
          "logIndex": "0x0",
          "removed": false
        },
        {
          "address": "0xd7a9794eed0dA4F18A56A84FFE57E53262eae316",
          "topics": [
            "0xddf252ad1be2c89b69c2b068fc378daa952ba7f163c4a11628f55a4df523b3ef",
            "0x0000000000000000000000000000000000000000000000000000000000000000",
            "0x000000000000000000000000077a79ab65caabaa684f34cc22aca911742690e0"
          ],
          "data": "0x00000000000000000000000000000000000000008266f10acddf375c95800000",
          "blockHash": "0x091dc2b9b489848d1eb14d966590f57ce04e802d61e0e9459164a079332c9703",
          "blockNumber": "0x7d15d6",
          "transactionHash": "0x9293a4651157856c9cd93894b64eeaca98535d74abd4e7e5aa853edb4c0524b9",
          "transactionIndex": "0x1",
          "logIndex": "0x1",
          "removed": false
        },
        {
          "address": "0x94132a5Da7192a0f0D85235b8921f3153F9D5E23",
          "topics": [
            "0x7309ef3b726eaaa68f8c2718c3792a5573fc273c7a8a7f2daa65dc739b845952",
            "0x000000000000000000000000077a79ab65caabaa684f34cc22aca911742690e0",
            "0x5742544300000000000000000000000000000000000000000000000000000000"
          ],
          "data": "0x000000000000000000000000077a79ab65caabaa684f34cc22aca911742690e000000000000000000000000000000000000000000000000000005af3107a400000000000000000000000000000000000000000008266f10acddf375c95800000",
          "blockHash": "0x091dc2b9b489848d1eb14d966590f57ce04e802d61e0e9459164a079332c9703",
          "blockNumber": "0x7d15d6",
          "transactionHash": "0x9293a4651157856c9cd93894b64eeaca98535d74abd4e7e5aa853edb4c0524b9",
          "transactionIndex": "0x1",
          "logIndex": "0x2",
          "removed": false
        }
      ],
      "status": "0x1",
      "logsBloom": "0x00000000000000000000000000000000000004000000000000000000000000000000004000000000000000000000000000000000000000000000000008000000000800000000000000000008000000000000002000000000000000000000000000000000020810000000000000001800000000004000000000200010000000000000020000000000010000000000000000000000000000002220000000002000000000000000000000000000000000000000000200000000800000000000000000000002000000000040000000000000000000000000000000000000000020000000000000000000000000000000000000000208000000000000000000000000",
      "type": "0x2",
      "effectiveGasPrice": "0x5f5e100"
    },
    {
      "transactionHash": "0xe525d77aedfb8746b398f02d11d073e2d8ef56f6355244b349e02b17a9acdba6",
      "transactionIndex": "0x1",
      "blockHash": "0xe6962c2bd020b9f6770440adf13db06951c866f966f8905d37721aa0bc426f9f",
      "blockNumber": "0x7d15de",
      "from": "0x077A79ab65cAAbAa684f34Cc22aCa911742690E0",
      "to": "0x94132a5Da7192a0f0D85235b8921f3153F9D5E23",
      "cumulativeGasUsed": "0x6c0bc",
      "gasUsed": "0x6c0bc",
      "contractAddress": null,
      "logs": [
        {
          "address": "0x4Ac0ED77C4375D48B51D56cc49b7710c3640b9c2",
          "topics": [
            "0xddf252ad1be2c89b69c2b068fc378daa952ba7f163c4a11628f55a4df523b3ef",
            "0x000000000000000000000000077a79ab65caabaa684f34cc22aca911742690e0",
            "0x00000000000000000000000094132a5da7192a0f0d85235b8921f3153f9d5e23"
          ],
          "data": "0x000000000000000000000000000000000000000000000000000000000025cf1e",
          "blockHash": "0xe6962c2bd020b9f6770440adf13db06951c866f966f8905d37721aa0bc426f9f",
          "blockNumber": "0x7d15de",
          "transactionHash": "0xe525d77aedfb8746b398f02d11d073e2d8ef56f6355244b349e02b17a9acdba6",
          "transactionIndex": "0x1",
          "logIndex": "0x0",
          "removed": false
        },
        {
          "address": "0xd7a9794eed0dA4F18A56A84FFE57E53262eae316",
          "topics": [
            "0xddf252ad1be2c89b69c2b068fc378daa952ba7f163c4a11628f55a4df523b3ef",
            "0x0000000000000000000000000000000000000000000000000000000000000000",
            "0x000000000000000000000000077a79ab65caabaa684f34cc22aca911742690e0"
          ],
          "data": "0x00000000000000000000000000000000000000000000003635c9adc5dea00000",
          "blockHash": "0xe6962c2bd020b9f6770440adf13db06951c866f966f8905d37721aa0bc426f9f",
          "blockNumber": "0x7d15de",
          "transactionHash": "0xe525d77aedfb8746b398f02d11d073e2d8ef56f6355244b349e02b17a9acdba6",
          "transactionIndex": "0x1",
          "logIndex": "0x1",
          "removed": false
        },
        {
          "address": "0x94132a5Da7192a0f0D85235b8921f3153F9D5E23",
          "topics": [
            "0x7309ef3b726eaaa68f8c2718c3792a5573fc273c7a8a7f2daa65dc739b845952",
            "0x000000000000000000000000077a79ab65caabaa684f34cc22aca911742690e0",
            "0x5742544300000000000000000000000000000000000000000000000000000000"
          ],
          "data": "0x000000000000000000000000077a79ab65caabaa684f34cc22aca911742690e0000000000000000000000000000000000000000000000000000000000025cf1e00000000000000000000000000000000000000000000003635c9adc5dea00000",
          "blockHash": "0xe6962c2bd020b9f6770440adf13db06951c866f966f8905d37721aa0bc426f9f",
          "blockNumber": "0x7d15de",
          "transactionHash": "0xe525d77aedfb8746b398f02d11d073e2d8ef56f6355244b349e02b17a9acdba6",
          "transactionIndex": "0x1",
          "logIndex": "0x2",
          "removed": false
        }
      ],
      "status": "0x1",
      "logsBloom": "0x00000000000000000000000000000000000004000000000000000000000000000000004000000000000000000000000000000000000000000000000008000000000800000000000000000008000000000000002000000000000000000000000000000000020810000000000000001800000000004000000000200010000000000000020000000000010000000000000000000000000000002220000000002000000000000000000000000000000000000000000200000000800000000000000000000002000000000040000000000000000000000000000000000000000020000000000000000000000000000000000000000208000000000000000000000000",
      "type": "0x2",
      "effectiveGasPrice": "0x5f5e100"
    },
    {
      "transactionHash": "0xc1ca3efa73cf144533681b86c14ca0818409fc8142a7e99ce7197cfb9408b001",
      "transactionIndex": "0x1",
      "blockHash": "0x4356ce49da3302bc5d2068fc33c47da84d293a6930f7d0cb23f8ac9728187b14",
      "blockNumber": "0x7d15e3",
      "from": "0x077A79ab65cAAbAa684f34Cc22aCa911742690E0",
      "to": "0x94132a5Da7192a0f0D85235b8921f3153F9D5E23",
      "cumulativeGasUsed": "0x6ad63",
      "gasUsed": "0x6ad63",
      "contractAddress": null,
      "logs": [
        {
          "address": "0xd7a9794eed0dA4F18A56A84FFE57E53262eae316",
          "topics": [
            "0xddf252ad1be2c89b69c2b068fc378daa952ba7f163c4a11628f55a4df523b3ef",
            "0x000000000000000000000000077a79ab65caabaa684f34cc22aca911742690e0",
            "0x0000000000000000000000000000000000000000000000000000000000000000"
          ],
          "data": "0x0000000000000000000000000000000000000000412cefa18b41158c39400000",
          "blockHash": "0x4356ce49da3302bc5d2068fc33c47da84d293a6930f7d0cb23f8ac9728187b14",
          "blockNumber": "0x7d15e3",
          "transactionHash": "0xc1ca3efa73cf144533681b86c14ca0818409fc8142a7e99ce7197cfb9408b001",
          "transactionIndex": "0x1",
          "logIndex": "0x0",
          "removed": false
        },
        {
          "address": "0x4Ac0ED77C4375D48B51D56cc49b7710c3640b9c2",
          "topics": [
            "0xddf252ad1be2c89b69c2b068fc378daa952ba7f163c4a11628f55a4df523b3ef",
            "0x00000000000000000000000094132a5da7192a0f0d85235b8921f3153f9d5e23",
            "0x000000000000000000000000077a79ab65caabaa684f34cc22aca911742690e0"
          ],
          "data": "0x00000000000000000000000000000000000000000000000000002d74f97998b7",
          "blockHash": "0x4356ce49da3302bc5d2068fc33c47da84d293a6930f7d0cb23f8ac9728187b14",
          "blockNumber": "0x7d15e3",
          "transactionHash": "0xc1ca3efa73cf144533681b86c14ca0818409fc8142a7e99ce7197cfb9408b001",
          "transactionIndex": "0x1",
          "logIndex": "0x1",
          "removed": false
        },
        {
          "address": "0x94132a5Da7192a0f0D85235b8921f3153F9D5E23",
          "topics": [
            "0x639027de0b31595783caf0e0f3f582389fb1b77298da6a2eed289c7f0e51857e",
            "0x000000000000000000000000077a79ab65caabaa684f34cc22aca911742690e0",
            "0x5742544300000000000000000000000000000000000000000000000000000000"
          ],
          "data": "0x000000000000000000000000077a79ab65caabaa684f34cc22aca911742690e00000000000000000000000000000000000000000412cefa18b41158c3940000000000000000000000000000000000000000000000000000000002d74f97998b7",
          "blockHash": "0x4356ce49da3302bc5d2068fc33c47da84d293a6930f7d0cb23f8ac9728187b14",
          "blockNumber": "0x7d15e3",
          "transactionHash": "0xc1ca3efa73cf144533681b86c14ca0818409fc8142a7e99ce7197cfb9408b001",
          "transactionIndex": "0x1",
          "logIndex": "0x2",
          "removed": false
        }
      ],
      "status": "0x1",
      "logsBloom": "0x00000000000000000000000000000000000004000000000000000000000000000000004000000000000000000000000000000000000000000000000008000020000800000000000000000008000000000000002000000000000000000000000000000000020010000000000000001800000800004000000000200010000000000000020000000000010000000000000000000000000000002220000000000000000000000000000000000000000000000000000200004000800000000000000000000002000000000040000000000000000000000000000000000000000020000000000000000000000000000000000000000008000000000000000000000000",
      "type": "0x2",
      "effectiveGasPrice": "0x5f5e100"
    },
    {
      "transactionHash": "0x3e3851f6805219c20fe666157f9e8715cbeef1b2210da67e1f3cd84a16f079f3",
      "transactionIndex": "0x1",
      "blockHash": "0xde48a003632889df82cbf0bde73d4e835b6807e705eab27ca396ad1eac2519f5",
      "blockNumber": "0x7d15e6",
      "from": "0x077A79ab65cAAbAa684f34Cc22aCa911742690E0",
      "to": "0x94132a5Da7192a0f0D85235b8921f3153F9D5E23",
      "cumulativeGasUsed": "0x6ad2b",
      "gasUsed": "0x6ad2b",
      "contractAddress": null,
      "logs": [
        {
          "address": "0xd7a9794eed0dA4F18A56A84FFE57E53262eae316",
          "topics": [
            "0xddf252ad1be2c89b69c2b068fc378daa952ba7f163c4a11628f55a4df523b3ef",
            "0x000000000000000000000000077a79ab65caabaa684f34cc22aca911742690e0",
            "0x0000000000000000000000000000000000000000000000000000000000000000"
          ],
          "data": "0x00000000000000000000000000000000000000000000001b1d9c1916f41a3800",
          "blockHash": "0xde48a003632889df82cbf0bde73d4e835b6807e705eab27ca396ad1eac2519f5",
          "blockNumber": "0x7d15e6",
          "transactionHash": "0x3e3851f6805219c20fe666157f9e8715cbeef1b2210da67e1f3cd84a16f079f3",
          "transactionIndex": "0x1",
          "logIndex": "0x0",
          "removed": false
        },
        {
          "address": "0x4Ac0ED77C4375D48B51D56cc49b7710c3640b9c2",
          "topics": [
            "0xddf252ad1be2c89b69c2b068fc378daa952ba7f163c4a11628f55a4df523b3ef",
            "0x00000000000000000000000094132a5da7192a0f0d85235b8921f3153f9d5e23",
            "0x000000000000000000000000077a79ab65caabaa684f34cc22aca911742690e0"
          ],
          "data": "0x000000000000000000000000000000000000000000000000000000000012e974",
          "blockHash": "0xde48a003632889df82cbf0bde73d4e835b6807e705eab27ca396ad1eac2519f5",
          "blockNumber": "0x7d15e6",
          "transactionHash": "0x3e3851f6805219c20fe666157f9e8715cbeef1b2210da67e1f3cd84a16f079f3",
          "transactionIndex": "0x1",
          "logIndex": "0x1",
          "removed": false
        },
        {
          "address": "0x94132a5Da7192a0f0D85235b8921f3153F9D5E23",
          "topics": [
            "0x639027de0b31595783caf0e0f3f582389fb1b77298da6a2eed289c7f0e51857e",
            "0x000000000000000000000000077a79ab65caabaa684f34cc22aca911742690e0",
            "0x5742544300000000000000000000000000000000000000000000000000000000"
          ],
          "data": "0x000000000000000000000000077a79ab65caabaa684f34cc22aca911742690e000000000000000000000000000000000000000000000001b1d9c1916f41a3800000000000000000000000000000000000000000000000000000000000012e974",
          "blockHash": "0xde48a003632889df82cbf0bde73d4e835b6807e705eab27ca396ad1eac2519f5",
          "blockNumber": "0x7d15e6",
          "transactionHash": "0x3e3851f6805219c20fe666157f9e8715cbeef1b2210da67e1f3cd84a16f079f3",
          "transactionIndex": "0x1",
          "logIndex": "0x2",
          "removed": false
        }
      ],
      "status": "0x1",
      "logsBloom": "0x00000000000000000000000000000000000004000000000000000000000000000000004000000000000000000000000000000000000000000000000008000020000800000000000000000008000000000000002000000000000000000000000000000000020010000000000000001800000800004000000000200010000000000000020000000000010000000000000000000000000000002220000000000000000000000000000000000000000000000000000200004000800000000000000000000002000000000040000000000000000000000000000000000000000020000000000000000000000000000000000000000008000000000000000000000000",
      "type": "0x2",
      "effectiveGasPrice": "0x5f5e100"
    },
    {
      "transactionHash": "0xe18e8e20e75e11ead9aa6d07fec9e384583951380750a28f8a55a795ae6470ff",
      "transactionIndex": "0x2",
      "blockHash": "0xf79d531dd4da66f4ec9abb7d6c9da3e143fac49ee7f303c57d343c6beb706ca6",
      "blockNumber": "0x7d15ea",
      "from": "0x077A79ab65cAAbAa684f34Cc22aCa911742690E0",
      "to": "0xaB7A6599C1804443C04c998D2be87Dc00A8c07bA",
      "cumulativeGasUsed": "0x2768a6",
      "gasUsed": "0x2dec9",
      "contractAddress": null,
      "logs": [
        {
          "address": "0xaB7A6599C1804443C04c998D2be87Dc00A8c07bA",
          "topics": [
            "0x8c5be1e5ebec7d5bd14f71427d1e84f3dd0314c0f7b2291e5b200ac8c7c3b925",
            "0x000000000000000000000000077a79ab65caabaa684f34cc22aca911742690e0",
            "0x00000000000000000000000094132a5da7192a0f0d85235b8921f3153f9d5e23"
          ],
          "data": "0x00000000000000000000000000000000000000000001a784379d99db42000000",
          "blockHash": "0xf79d531dd4da66f4ec9abb7d6c9da3e143fac49ee7f303c57d343c6beb706ca6",
          "blockNumber": "0x7d15ea",
          "transactionHash": "0xe18e8e20e75e11ead9aa6d07fec9e384583951380750a28f8a55a795ae6470ff",
          "transactionIndex": "0x2",
          "logIndex": "0xb",
          "removed": false
        }
      ],
      "status": "0x1",
      "logsBloom": "0x00000000000000000000000000000000000000000000000000000000000000000000000000000000000000000000000000000000000000000000000008200000000800000000000000000000000000000000002000000000000000000000000000000000000000000000000000000000000000000000000000000000000000000000000008000000000000000004000000000000000000000200000000000000020000000000000000000000000000000000000000000000000000000000000000000000000000000040000000000000000000000000000000000000000000000010000000000000000000000000000000002008000000000000000000000000",
      "type": "0x2",
      "effectiveGasPrice": "0x5f5e100"
    },
    {
      "transactionHash": "0xc9758242102f9e07e18756a9b46be4a8bd1bbc236a5cc8fac855aa720d308148",
      "transactionIndex": "0x1",
      "blockHash": "0xf2bc97d14d99cc9aff76fe16dfd996615e4eccfb21cd81911698bf3dfdb16963",
      "blockNumber": "0x7d15f2",
      "from": "0x077A79ab65cAAbAa684f34Cc22aCa911742690E0",
      "to": "0x94132a5Da7192a0f0D85235b8921f3153F9D5E23",
      "cumulativeGasUsed": "0x6c421",
      "gasUsed": "0x6c421",
      "contractAddress": null,
      "logs": [
        {
          "address": "0xaB7A6599C1804443C04c998D2be87Dc00A8c07bA",
          "topics": [
            "0xddf252ad1be2c89b69c2b068fc378daa952ba7f163c4a11628f55a4df523b3ef",
            "0x000000000000000000000000077a79ab65caabaa684f34cc22aca911742690e0",
            "0x00000000000000000000000094132a5da7192a0f0d85235b8921f3153f9d5e23"
          ],
          "data": "0x00000000000000000000000000000000000000000000d3c21bcecceda1000000",
          "blockHash": "0xf2bc97d14d99cc9aff76fe16dfd996615e4eccfb21cd81911698bf3dfdb16963",
          "blockNumber": "0x7d15f2",
          "transactionHash": "0xc9758242102f9e07e18756a9b46be4a8bd1bbc236a5cc8fac855aa720d308148",
          "transactionIndex": "0x1",
          "logIndex": "0x0",
          "removed": false
        },
        {
          "address": "0xd7a9794eed0dA4F18A56A84FFE57E53262eae316",
          "topics": [
            "0xddf252ad1be2c89b69c2b068fc378daa952ba7f163c4a11628f55a4df523b3ef",
            "0x0000000000000000000000000000000000000000000000000000000000000000",
            "0x000000000000000000000000077a79ab65caabaa684f34cc22aca911742690e0"
          ],
          "data": "0x0000000000000000000000000000000000000000000c43ad50f4ec7b5c170000",
          "blockHash": "0xf2bc97d14d99cc9aff76fe16dfd996615e4eccfb21cd81911698bf3dfdb16963",
          "blockNumber": "0x7d15f2",
          "transactionHash": "0xc9758242102f9e07e18756a9b46be4a8bd1bbc236a5cc8fac855aa720d308148",
          "transactionIndex": "0x1",
          "logIndex": "0x1",
          "removed": false
        },
        {
          "address": "0x94132a5Da7192a0f0D85235b8921f3153F9D5E23",
          "topics": [
            "0x7309ef3b726eaaa68f8c2718c3792a5573fc273c7a8a7f2daa65dc739b845952",
            "0x000000000000000000000000077a79ab65caabaa684f34cc22aca911742690e0",
            "0x4c494e4b00000000000000000000000000000000000000000000000000000000"
          ],
          "data": "0x000000000000000000000000077a79ab65caabaa684f34cc22aca911742690e000000000000000000000000000000000000000000000d3c21bcecceda10000000000000000000000000000000000000000000000000c43ad50f4ec7b5c170000",
          "blockHash": "0xf2bc97d14d99cc9aff76fe16dfd996615e4eccfb21cd81911698bf3dfdb16963",
          "blockNumber": "0x7d15f2",
          "transactionHash": "0xc9758242102f9e07e18756a9b46be4a8bd1bbc236a5cc8fac855aa720d308148",
          "transactionIndex": "0x1",
          "logIndex": "0x2",
          "removed": false
        }
      ],
      "status": "0x1",
      "logsBloom": "0x000000000000000000000000000000000000040000000000000000000000000800000000000000000000000000000000000000000000000000000000080000000008000000000000000000080000000000000020000000000000000000000000000000000208000000000000000018000000000000000000000000100000000000000200080000000000000000040000000000000000000002200000000020000000000000000002000000000000000000000002000000008000000000000000000000020000000000400000000000000000000000000000000000000000a0000000000000000000000000000000000000002208000000000000000000000000",
      "type": "0x2",
      "effectiveGasPrice": "0x5f5e100"
    },
    {
      "transactionHash": "0x317defef3b972dc77b9c4cde7d7e3eaed63138fdf7e8ba932085370d7adc584b",
      "transactionIndex": "0x1",
      "blockHash": "0xde49378d1328bf2a26f9d587174d702ab51e5b2a970514eabea3431b71ac3a26",
      "blockNumber": "0x7d15f9",
      "from": "0x077A79ab65cAAbAa684f34Cc22aCa911742690E0",
      "to": "0x94132a5Da7192a0f0D85235b8921f3153F9D5E23",
      "cumulativeGasUsed": "0x6c458",
      "gasUsed": "0x6c458",
      "contractAddress": null,
      "logs": [
        {
          "address": "0xaB7A6599C1804443C04c998D2be87Dc00A8c07bA",
          "topics": [
            "0xddf252ad1be2c89b69c2b068fc378daa952ba7f163c4a11628f55a4df523b3ef",
            "0x000000000000000000000000077a79ab65caabaa684f34cc22aca911742690e0",
            "0x00000000000000000000000094132a5da7192a0f0d85235b8921f3153f9d5e23"
          ],
          "data": "0x000000000000000000000000000000000000000000000003a7ffda35ba89065d",
          "blockHash": "0xde49378d1328bf2a26f9d587174d702ab51e5b2a970514eabea3431b71ac3a26",
          "blockNumber": "0x7d15f9",
          "transactionHash": "0x317defef3b972dc77b9c4cde7d7e3eaed63138fdf7e8ba932085370d7adc584b",
          "transactionIndex": "0x1",
          "logIndex": "0x0",
          "removed": false
        },
        {
          "address": "0xd7a9794eed0dA4F18A56A84FFE57E53262eae316",
          "topics": [
            "0xddf252ad1be2c89b69c2b068fc378daa952ba7f163c4a11628f55a4df523b3ef",
            "0x0000000000000000000000000000000000000000000000000000000000000000",
            "0x000000000000000000000000077a79ab65caabaa684f34cc22aca911742690e0"
          ],
          "data": "0x00000000000000000000000000000000000000000000003635c9adc5dea00000",
          "blockHash": "0xde49378d1328bf2a26f9d587174d702ab51e5b2a970514eabea3431b71ac3a26",
          "blockNumber": "0x7d15f9",
          "transactionHash": "0x317defef3b972dc77b9c4cde7d7e3eaed63138fdf7e8ba932085370d7adc584b",
          "transactionIndex": "0x1",
          "logIndex": "0x1",
          "removed": false
        },
        {
          "address": "0x94132a5Da7192a0f0D85235b8921f3153F9D5E23",
          "topics": [
            "0x7309ef3b726eaaa68f8c2718c3792a5573fc273c7a8a7f2daa65dc739b845952",
            "0x000000000000000000000000077a79ab65caabaa684f34cc22aca911742690e0",
            "0x4c494e4b00000000000000000000000000000000000000000000000000000000"
          ],
          "data": "0x000000000000000000000000077a79ab65caabaa684f34cc22aca911742690e0000000000000000000000000000000000000000000000003a7ffda35ba89065d00000000000000000000000000000000000000000000003635c9adc5dea00000",
          "blockHash": "0xde49378d1328bf2a26f9d587174d702ab51e5b2a970514eabea3431b71ac3a26",
          "blockNumber": "0x7d15f9",
          "transactionHash": "0x317defef3b972dc77b9c4cde7d7e3eaed63138fdf7e8ba932085370d7adc584b",
          "transactionIndex": "0x1",
          "logIndex": "0x2",
          "removed": false
        }
      ],
      "status": "0x1",
      "logsBloom": "0x000000000000000000000000000000000000040000000000000000000000000800000000000000000000000000000000000000000000000000000000080000000008000000000000000000080000000000000020000000000000000000000000000000000208000000000000000018000000000000000000000000100000000000000200080000000000000000040000000000000000000002200000000020000000000000000002000000000000000000000002000000008000000000000000000000020000000000400000000000000000000000000000000000000000a0000000000000000000000000000000000000002208000000000000000000000000",
      "type": "0x2",
      "effectiveGasPrice": "0x5f5e100"
    },
    {
      "transactionHash": "0x881c0013d550a0a8e8bbd45b991ef93a0e1cfc942b60e8584482acab3b2154af",
      "transactionIndex": "0x1",
      "blockHash": "0xc635e47d861854bd8d2ed90b1496ccf184ee9ba36ba48545ab510ab5f693fdf8",
      "blockNumber": "0x7d1602",
      "from": "0x077A79ab65cAAbAa684f34Cc22aCa911742690E0",
      "to": "0x94132a5Da7192a0f0D85235b8921f3153F9D5E23",
      "cumulativeGasUsed": "0x6ad99",
      "gasUsed": "0x6ad99",
      "contractAddress": null,
      "logs": [
        {
          "address": "0xd7a9794eed0dA4F18A56A84FFE57E53262eae316",
          "topics": [
            "0xddf252ad1be2c89b69c2b068fc378daa952ba7f163c4a11628f55a4df523b3ef",
            "0x000000000000000000000000077a79ab65caabaa684f34cc22aca911742690e0",
            "0x0000000000000000000000000000000000000000000000000000000000000000"
          ],
          "data": "0x000000000000000000000000000000000000000000061bda274d85a3022f8000",
          "blockHash": "0xc635e47d861854bd8d2ed90b1496ccf184ee9ba36ba48545ab510ab5f693fdf8",
          "blockNumber": "0x7d1602",
          "transactionHash": "0x881c0013d550a0a8e8bbd45b991ef93a0e1cfc942b60e8584482acab3b2154af",
          "transactionIndex": "0x1",
          "logIndex": "0x0",
          "removed": false
        },
        {
          "address": "0xaB7A6599C1804443C04c998D2be87Dc00A8c07bA",
          "topics": [
            "0xddf252ad1be2c89b69c2b068fc378daa952ba7f163c4a11628f55a4df523b3ef",
            "0x00000000000000000000000094132a5da7192a0f0d85235b8921f3153f9d5e23",
            "0x000000000000000000000000077a79ab65caabaa684f34cc22aca911742690e0"
          ],
          "data": "0x000000000000000000000000000000000000000000006979b1765889018325d7",
          "blockHash": "0xc635e47d861854bd8d2ed90b1496ccf184ee9ba36ba48545ab510ab5f693fdf8",
          "blockNumber": "0x7d1602",
          "transactionHash": "0x881c0013d550a0a8e8bbd45b991ef93a0e1cfc942b60e8584482acab3b2154af",
          "transactionIndex": "0x1",
          "logIndex": "0x1",
          "removed": false
        },
        {
          "address": "0x94132a5Da7192a0f0D85235b8921f3153F9D5E23",
          "topics": [
            "0x639027de0b31595783caf0e0f3f582389fb1b77298da6a2eed289c7f0e51857e",
            "0x000000000000000000000000077a79ab65caabaa684f34cc22aca911742690e0",
            "0x4c494e4b00000000000000000000000000000000000000000000000000000000"
          ],
          "data": "0x000000000000000000000000077a79ab65caabaa684f34cc22aca911742690e0000000000000000000000000000000000000000000061bda274d85a3022f8000000000000000000000000000000000000000000000006979b1765889018325d7",
          "blockHash": "0xc635e47d861854bd8d2ed90b1496ccf184ee9ba36ba48545ab510ab5f693fdf8",
          "blockNumber": "0x7d1602",
          "transactionHash": "0x881c0013d550a0a8e8bbd45b991ef93a0e1cfc942b60e8584482acab3b2154af",
          "transactionIndex": "0x1",
          "logIndex": "0x2",
          "removed": false
        }
      ],
      "status": "0x1",
      "logsBloom": "0x000000000000000000000000000000000000040000000000000000000000000800000000000000000000000000000000000000000000000000000000080000200008000000000000000000080000000000000020000000000000000000000000000000000200000000000000000018000008000000000000000000100000000000000200080000000000000000040000000000000000000002200000000000000000000000000002000000000000000000000002000040008000000000000000000000020000000000400000000000000000000000000000000000000000a0000000000000000000000000000000000000002008000000000000000000000000",
      "type": "0x2",
      "effectiveGasPrice": "0x5f5e100"
    },
    {
      "transactionHash": "0x8c66ebd18b7b1bbda118f70ad5e4ea73d470f59529ea82429a8f7327f277d8e8",
      "transactionIndex": "0x1",
      "blockHash": "0x388a7537cc248dedda4c770ed0ee32963215f4d7573a65efcd41636d4cc0325c",
      "blockNumber": "0x7d160c",
      "from": "0x077A79ab65cAAbAa684f34Cc22aCa911742690E0",
      "to": "0x94132a5Da7192a0f0D85235b8921f3153F9D5E23",
      "cumulativeGasUsed": "0x6ada9",
      "gasUsed": "0x6ada9",
      "contractAddress": null,
      "logs": [
        {
          "address": "0xd7a9794eed0dA4F18A56A84FFE57E53262eae316",
          "topics": [
            "0xddf252ad1be2c89b69c2b068fc378daa952ba7f163c4a11628f55a4df523b3ef",
            "0x000000000000000000000000077a79ab65caabaa684f34cc22aca911742690e0",
            "0x0000000000000000000000000000000000000000000000000000000000000000"
          ],
          "data": "0x00000000000000000000000000000000000000000000001b3574a47a7ec07661",
          "blockHash": "0x388a7537cc248dedda4c770ed0ee32963215f4d7573a65efcd41636d4cc0325c",
          "blockNumber": "0x7d160c",
          "transactionHash": "0x8c66ebd18b7b1bbda118f70ad5e4ea73d470f59529ea82429a8f7327f277d8e8",
          "transactionIndex": "0x1",
          "logIndex": "0x0",
          "removed": false
        },
        {
          "address": "0xaB7A6599C1804443C04c998D2be87Dc00A8c07bA",
          "topics": [
            "0xddf252ad1be2c89b69c2b068fc378daa952ba7f163c4a11628f55a4df523b3ef",
            "0x00000000000000000000000094132a5da7192a0f0d85235b8921f3153f9d5e23",
            "0x000000000000000000000000077a79ab65caabaa684f34cc22aca911742690e0"
          ],
          "data": "0x000000000000000000000000000000000000000000000001d5ca8b782fc0c42c",
          "blockHash": "0x388a7537cc248dedda4c770ed0ee32963215f4d7573a65efcd41636d4cc0325c",
          "blockNumber": "0x7d160c",
          "transactionHash": "0x8c66ebd18b7b1bbda118f70ad5e4ea73d470f59529ea82429a8f7327f277d8e8",
          "transactionIndex": "0x1",
          "logIndex": "0x1",
          "removed": false
        },
        {
          "address": "0x94132a5Da7192a0f0D85235b8921f3153F9D5E23",
          "topics": [
            "0x639027de0b31595783caf0e0f3f582389fb1b77298da6a2eed289c7f0e51857e",
            "0x000000000000000000000000077a79ab65caabaa684f34cc22aca911742690e0",
            "0x4c494e4b00000000000000000000000000000000000000000000000000000000"
          ],
          "data": "0x000000000000000000000000077a79ab65caabaa684f34cc22aca911742690e000000000000000000000000000000000000000000000001b3574a47a7ec07661000000000000000000000000000000000000000000000001d5ca8b782fc0c42c",
          "blockHash": "0x388a7537cc248dedda4c770ed0ee32963215f4d7573a65efcd41636d4cc0325c",
          "blockNumber": "0x7d160c",
          "transactionHash": "0x8c66ebd18b7b1bbda118f70ad5e4ea73d470f59529ea82429a8f7327f277d8e8",
          "transactionIndex": "0x1",
          "logIndex": "0x2",
          "removed": false
        }
      ],
      "status": "0x1",
      "logsBloom": "0x000000000000000000000000000000000000040000000000000000000000000800000000000000000000000000000000000000000000000000000000080000200008000000000000000000080000000000000020000000000000000000000000000000000200000000000000000018000008000000000000000000100000000000000200080000000000000000040000000000000000000002200000000000000000000000000002000000000000000000000002000040008000000000000000000000020000000000400000000000000000000000000000000000000000a0000000000000000000000000000000000000002008000000000000000000000000",
      "type": "0x2",
      "effectiveGasPrice": "0x5f5e100"
    }
  ],
  "libraries": [],
  "pending": [],
  "returns": {},
  "timestamp": 1705683846,
  "chain": 421614,
  "multi": false,
  "commit": "f84881b"
}